{"abi":[{"inputs":[{"internalType":"uint256","name":"minimum","type":"uint256"}],"name":"createCampaign","outputs":[],"stateMutability":"nonpayable","type":"function"},{"inputs":[{"internalType":"uint256","name":"","type":"uint256"}],"name":"deployedCampaigns","outputs":[{"internalType":"address","name":"","type":"address"}],"stateMutability":"view","type":"function"},{"inputs":[],"name":"getDeployedCampaigns","outputs":[{"internalType":"address[]","name":"","type":"address[]"}],"stateMutability":"view","type":"function"}],"devdoc":{"kind":"dev","methods":{},"version":1},"evm":{"assembly":"    /* \"Campaign.sol\":65:439  contract CampaignFactory {... */\n  mstore(0x40, 0x80)\n  callvalue\n  dup1\n  iszero\n  tag_1\n  jumpi\n  0x00\n  dup1\n  revert\ntag_1:\n  pop\n  dataSize(sub_0)\n  dup1\n  dataOffset(sub_0)\n  0x00\n  codecopy\n  0x00\n  return\nstop\n\nsub_0: assembly {\n        /* \"Campaign.sol\":65:439  contract CampaignFactory {... */\n      mstore(0x40, 0x80)\n      callvalue\n      dup1\n      iszero\n      tag_1\n      jumpi\n      0x00\n      dup1\n      revert\n    tag_1:\n      pop\n      jumpi(tag_2, lt(calldatasize, 0x04))\n      shr(0xe0, calldataload(0x00))\n      dup1\n      0x339d50a5\n      eq\n      tag_3\n      jumpi\n      dup1\n      0x4acb9d4f\n      eq\n      tag_4\n      jumpi\n      dup1\n      0xa3303a75\n      eq\n      tag_5\n      jumpi\n    tag_2:\n      0x00\n      dup1\n      revert\n        /* \"Campaign.sol\":97:131  address[] public deployedCampaigns */\n    tag_3:\n      tag_6\n      0x04\n      dup1\n      calldatasize\n      sub\n      dup2\n      add\n      swap1\n      tag_7\n      swap2\n      swap1\n      tag_8\n      jump\t// in\n    tag_7:\n      tag_9\n      jump\t// in\n    tag_6:\n      mload(0x40)\n      tag_10\n      swap2\n      swap1\n      tag_11\n      jump\t// in\n    tag_10:\n      mload(0x40)\n      dup1\n      swap2\n      sub\n      swap1\n      return\n        /* \"Campaign.sol\":322:436  function getDeployedCampaigns() public view returns (address[] memory) {... */\n    tag_4:\n      tag_12\n      tag_13\n      jump\t// in\n    tag_12:\n      mload(0x40)\n      tag_14\n      swap2\n      swap1\n      tag_15\n      jump\t// in\n    tag_14:\n      mload(0x40)\n      dup1\n      swap2\n      sub\n      swap1\n      return\n        /* \"Campaign.sol\":140:314  function createCampaign(uint minimum) public {... */\n    tag_5:\n      tag_16\n      0x04\n      dup1\n      calldatasize\n      sub\n      dup2\n      add\n      swap1\n      tag_17\n      swap2\n      swap1\n      tag_8\n      jump\t// in\n    tag_17:\n      tag_18\n      jump\t// in\n    tag_16:\n      stop\n        /* \"Campaign.sol\":97:131  address[] public deployedCampaigns */\n    tag_9:\n      0x00\n      dup2\n      dup2\n      sload\n      dup2\n      lt\n      tag_19\n      jumpi\n      0x00\n      dup1\n      revert\n    tag_19:\n      swap1\n      0x00\n      mstore\n      keccak256(0x00, 0x20)\n      add\n      0x00\n      swap2\n      pop\n      sload\n      swap1\n      0x0100\n      exp\n      swap1\n      div\n      0xffffffffffffffffffffffffffffffffffffffff\n      and\n      dup2\n      jump\t// out\n        /* \"Campaign.sol\":322:436  function getDeployedCampaigns() public view returns (address[] memory) {... */\n    tag_13:\n        /* \"Campaign.sol\":375:391  address[] memory */\n      0x60\n        /* \"Campaign.sol\":411:428  deployedCampaigns */\n      0x00\n        /* \"Campaign.sol\":404:428  return deployedCampaigns */\n      dup1\n      sload\n      dup1\n      0x20\n      mul\n      0x20\n      add\n      mload(0x40)\n      swap1\n      dup2\n      add\n      0x40\n      mstore\n      dup1\n      swap3\n      swap2\n      swap1\n      dup2\n      dup2\n      mstore\n      0x20\n      add\n      dup3\n      dup1\n      sload\n      dup1\n      iszero\n      tag_22\n      jumpi\n      0x20\n      mul\n      dup3\n      add\n      swap2\n      swap1\n      0x00\n      mstore\n      keccak256(0x00, 0x20)\n      swap1\n    tag_23:\n      dup2\n      0x00\n      swap1\n      sload\n      swap1\n      0x0100\n      exp\n      swap1\n      div\n      0xffffffffffffffffffffffffffffffffffffffff\n      and\n      0xffffffffffffffffffffffffffffffffffffffff\n      and\n      dup2\n      mstore\n      0x20\n      add\n      swap1\n      0x01\n      add\n      swap1\n      dup1\n      dup4\n      gt\n      tag_23\n      jumpi\n    tag_22:\n      pop\n      pop\n      pop\n      pop\n      pop\n      swap1\n      pop\n        /* \"Campaign.sol\":322:436  function getDeployedCampaigns() public view returns (address[] memory) {... */\n      swap1\n      jump\t// out\n        /* \"Campaign.sol\":140:314  function createCampaign(uint minimum) public {... */\n    tag_18:\n        /* \"Campaign.sol\":196:215  address newCampaign */\n      0x00\n        /* \"Campaign.sol\":239:246  minimum */\n      dup2\n        /* \"Campaign.sol\":248:258  msg.sender */\n      caller\n        /* \"Campaign.sol\":226:259  new Campaign(minimum, msg.sender) */\n      mload(0x40)\n      tag_25\n      swap1\n      tag_26\n      jump\t// in\n    tag_25:\n      tag_27\n      swap3\n      swap2\n      swap1\n      tag_28\n      jump\t// in\n    tag_27:\n      mload(0x40)\n      dup1\n      swap2\n      sub\n      swap1\n      0x00\n      create\n      dup1\n      iszero\n      dup1\n      iszero\n      tag_29\n      jumpi\n      returndatasize\n      0x00\n      dup1\n      returndatacopy\n      revert(0x00, returndatasize)\n    tag_29:\n      pop\n        /* \"Campaign.sol\":196:260  address newCampaign = address(new Campaign(minimum, msg.sender)) */\n      swap1\n      pop\n        /* \"Campaign.sol\":271:288  deployedCampaigns */\n      0x00\n        /* \"Campaign.sol\":294:305  newCampaign */\n      dup2\n        /* \"Campaign.sol\":271:306  deployedCampaigns.push(newCampaign) */\n      swap1\n      dup1\n      0x01\n      dup2\n      sload\n      add\n      dup1\n      dup3\n      sstore\n      dup1\n      swap2\n      pop\n      pop\n      0x01\n      swap1\n      sub\n      swap1\n      0x00\n      mstore\n      keccak256(0x00, 0x20)\n      add\n      0x00\n      swap1\n      swap2\n      swap1\n      swap2\n      swap1\n      swap2\n      0x0100\n      exp\n      dup2\n      sload\n      dup2\n      0xffffffffffffffffffffffffffffffffffffffff\n      mul\n      not\n      and\n      swap1\n      dup4\n      0xffffffffffffffffffffffffffffffffffffffff\n      and\n      mul\n      or\n      swap1\n      sstore\n      pop\n        /* \"Campaign.sol\":185:314  {... */\n      pop\n        /* \"Campaign.sol\":140:314  function createCampaign(uint minimum) public {... */\n      pop\n      jump\t// out\n    tag_26:\n      dataSize(sub_0)\n      dup1\n      dataOffset(sub_0)\n      dup4\n      codecopy\n      add\n      swap1\n      jump\t// out\n        /* \"#utility.yul\":88:205   */\n    tag_32:\n        /* \"#utility.yul\":197:198   */\n      0x00\n        /* \"#utility.yul\":194:195   */\n      dup1\n        /* \"#utility.yul\":187:199   */\n      revert\n        /* \"#utility.yul\":334:411   */\n    tag_34:\n        /* \"#utility.yul\":371:378   */\n      0x00\n        /* \"#utility.yul\":400:405   */\n      dup2\n        /* \"#utility.yul\":389:405   */\n      swap1\n      pop\n        /* \"#utility.yul\":334:411   */\n      swap2\n      swap1\n      pop\n      jump\t// out\n        /* \"#utility.yul\":417:539   */\n    tag_35:\n        /* \"#utility.yul\":490:514   */\n      tag_54\n        /* \"#utility.yul\":508:513   */\n      dup2\n        /* \"#utility.yul\":490:514   */\n      tag_34\n      jump\t// in\n    tag_54:\n        /* \"#utility.yul\":483:488   */\n      dup2\n        /* \"#utility.yul\":480:515   */\n      eq\n        /* \"#utility.yul\":470:533   */\n      tag_55\n      jumpi\n        /* \"#utility.yul\":529:530   */\n      0x00\n        /* \"#utility.yul\":526:527   */\n      dup1\n        /* \"#utility.yul\":519:531   */\n      revert\n        /* \"#utility.yul\":470:533   */\n    tag_55:\n        /* \"#utility.yul\":417:539   */\n      pop\n      jump\t// out\n        /* \"#utility.yul\":545:684   */\n    tag_36:\n        /* \"#utility.yul\":591:596   */\n      0x00\n        /* \"#utility.yul\":629:635   */\n      dup2\n        /* \"#utility.yul\":616:636   */\n      calldataload\n        /* \"#utility.yul\":607:636   */\n      swap1\n      pop\n        /* \"#utility.yul\":645:678   */\n      tag_57\n        /* \"#utility.yul\":672:677   */\n      dup2\n        /* \"#utility.yul\":645:678   */\n      tag_35\n      jump\t// in\n    tag_57:\n        /* \"#utility.yul\":545:684   */\n      swap3\n      swap2\n      pop\n      pop\n      jump\t// out\n        /* \"#utility.yul\":690:1019   */\n    tag_8:\n        /* \"#utility.yul\":749:755   */\n      0x00\n        /* \"#utility.yul\":798:800   */\n      0x20\n        /* \"#utility.yul\":786:795   */\n      dup3\n        /* \"#utility.yul\":777:784   */\n      dup5\n        /* \"#utility.yul\":773:796   */\n      sub\n        /* \"#utility.yul\":769:801   */\n      slt\n        /* \"#utility.yul\":766:885   */\n      iszero\n      tag_59\n      jumpi\n        /* \"#utility.yul\":804:883   */\n      tag_60\n      tag_32\n      jump\t// in\n    tag_60:\n        /* \"#utility.yul\":766:885   */\n    tag_59:\n        /* \"#utility.yul\":924:925   */\n      0x00\n        /* \"#utility.yul\":949:1002   */\n      tag_61\n        /* \"#utility.yul\":994:1001   */\n      dup5\n        /* \"#utility.yul\":985:991   */\n      dup3\n        /* \"#utility.yul\":974:983   */\n      dup6\n        /* \"#utility.yul\":970:992   */\n      add\n        /* \"#utility.yul\":949:1002   */\n      tag_36\n      jump\t// in\n    tag_61:\n        /* \"#utility.yul\":939:1002   */\n      swap2\n      pop\n        /* \"#utility.yul\":895:1012   */\n      pop\n        /* \"#utility.yul\":690:1019   */\n      swap3\n      swap2\n      pop\n      pop\n      jump\t// out\n        /* \"#utility.yul\":1025:1151   */\n    tag_37:\n        /* \"#utility.yul\":1062:1069   */\n      0x00\n        /* \"#utility.yul\":1102:1144   */\n      0xffffffffffffffffffffffffffffffffffffffff\n        /* \"#utility.yul\":1095:1100   */\n      dup3\n        /* \"#utility.yul\":1091:1145   */\n      and\n        /* \"#utility.yul\":1080:1145   */\n      swap1\n      pop\n        /* \"#utility.yul\":1025:1151   */\n      swap2\n      swap1\n      pop\n      jump\t// out\n        /* \"#utility.yul\":1157:1253   */\n    tag_38:\n        /* \"#utility.yul\":1194:1201   */\n      0x00\n        /* \"#utility.yul\":1223:1247   */\n      tag_64\n        /* \"#utility.yul\":1241:1246   */\n      dup3\n        /* \"#utility.yul\":1223:1247   */\n      tag_37\n      jump\t// in\n    tag_64:\n        /* \"#utility.yul\":1212:1247   */\n      swap1\n      pop\n        /* \"#utility.yul\":1157:1253   */\n      swap2\n      swap1\n      pop\n      jump\t// out\n        /* \"#utility.yul\":1259:1377   */\n    tag_39:\n        /* \"#utility.yul\":1346:1370   */\n      tag_66\n        /* \"#utility.yul\":1364:1369   */\n      dup2\n        /* \"#utility.yul\":1346:1370   */\n      tag_38\n      jump\t// in\n    tag_66:\n        /* \"#utility.yul\":1341:1344   */\n      dup3\n        /* \"#utility.yul\":1334:1371   */\n      mstore\n        /* \"#utility.yul\":1259:1377   */\n      pop\n      pop\n      jump\t// out\n        /* \"#utility.yul\":1383:1605   */\n    tag_11:\n        /* \"#utility.yul\":1476:1480   */\n      0x00\n        /* \"#utility.yul\":1514:1516   */\n      0x20\n        /* \"#utility.yul\":1503:1512   */\n      dup3\n        /* \"#utility.yul\":1499:1517   */\n      add\n        /* \"#utility.yul\":1491:1517   */\n      swap1\n      pop\n        /* \"#utility.yul\":1527:1598   */\n      tag_68\n        /* \"#utility.yul\":1595:1596   */\n      0x00\n        /* \"#utility.yul\":1584:1593   */\n      dup4\n        /* \"#utility.yul\":1580:1597   */\n      add\n        /* \"#utility.yul\":1571:1577   */\n      dup5\n        /* \"#utility.yul\":1527:1598   */\n      tag_39\n      jump\t// in\n    tag_68:\n        /* \"#utility.yul\":1383:1605   */\n      swap3\n      swap2\n      pop\n      pop\n      jump\t// out\n        /* \"#utility.yul\":1611:1725   */\n    tag_40:\n        /* \"#utility.yul\":1678:1684   */\n      0x00\n        /* \"#utility.yul\":1712:1717   */\n      dup2\n        /* \"#utility.yul\":1706:1718   */\n      mload\n        /* \"#utility.yul\":1696:1718   */\n      swap1\n      pop\n        /* \"#utility.yul\":1611:1725   */\n      swap2\n      swap1\n      pop\n      jump\t// out\n        /* \"#utility.yul\":1731:1915   */\n    tag_41:\n        /* \"#utility.yul\":1830:1841   */\n      0x00\n        /* \"#utility.yul\":1864:1870   */\n      dup3\n        /* \"#utility.yul\":1859:1862   */\n      dup3\n        /* \"#utility.yul\":1852:1871   */\n      mstore\n        /* \"#utility.yul\":1904:1908   */\n      0x20\n        /* \"#utility.yul\":1899:1902   */\n      dup3\n        /* \"#utility.yul\":1895:1909   */\n      add\n        /* \"#utility.yul\":1880:1909   */\n      swap1\n      pop\n        /* \"#utility.yul\":1731:1915   */\n      swap3\n      swap2\n      pop\n      pop\n      jump\t// out\n        /* \"#utility.yul\":1921:2053   */\n    tag_42:\n        /* \"#utility.yul\":1988:1992   */\n      0x00\n        /* \"#utility.yul\":2011:2014   */\n      dup2\n        /* \"#utility.yul\":2003:2014   */\n      swap1\n      pop\n        /* \"#utility.yul\":2041:2045   */\n      0x20\n        /* \"#utility.yul\":2036:2039   */\n      dup3\n        /* \"#utility.yul\":2032:2046   */\n      add\n        /* \"#utility.yul\":2024:2046   */\n      swap1\n      pop\n        /* \"#utility.yul\":1921:2053   */\n      swap2\n      swap1\n      pop\n      jump\t// out\n        /* \"#utility.yul\":2059:2167   */\n    tag_43:\n        /* \"#utility.yul\":2136:2160   */\n      tag_73\n        /* \"#utility.yul\":2154:2159   */\n      dup2\n        /* \"#utility.yul\":2136:2160   */\n      tag_38\n      jump\t// in\n    tag_73:\n        /* \"#utility.yul\":2131:2134   */\n      dup3\n        /* \"#utility.yul\":2124:2161   */\n      mstore\n        /* \"#utility.yul\":2059:2167   */\n      pop\n      pop\n      jump\t// out\n        /* \"#utility.yul\":2173:2352   */\n    tag_44:\n        /* \"#utility.yul\":2242:2252   */\n      0x00\n        /* \"#utility.yul\":2263:2309   */\n      tag_75\n        /* \"#utility.yul\":2305:2308   */\n      dup4\n        /* \"#utility.yul\":2297:2303   */\n      dup4\n        /* \"#utility.yul\":2263:2309   */\n      tag_43\n      jump\t// in\n    tag_75:\n        /* \"#utility.yul\":2341:2345   */\n      0x20\n        /* \"#utility.yul\":2336:2339   */\n      dup4\n        /* \"#utility.yul\":2332:2346   */\n      add\n        /* \"#utility.yul\":2318:2346   */\n      swap1\n      pop\n        /* \"#utility.yul\":2173:2352   */\n      swap3\n      swap2\n      pop\n      pop\n      jump\t// out\n        /* \"#utility.yul\":2358:2471   */\n    tag_45:\n        /* \"#utility.yul\":2428:2432   */\n      0x00\n        /* \"#utility.yul\":2460:2464   */\n      0x20\n        /* \"#utility.yul\":2455:2458   */\n      dup3\n        /* \"#utility.yul\":2451:2465   */\n      add\n        /* \"#utility.yul\":2443:2465   */\n      swap1\n      pop\n        /* \"#utility.yul\":2358:2471   */\n      swap2\n      swap1\n      pop\n      jump\t// out\n        /* \"#utility.yul\":2507:3239   */\n    tag_46:\n        /* \"#utility.yul\":2626:2629   */\n      0x00\n        /* \"#utility.yul\":2655:2709   */\n      tag_78\n        /* \"#utility.yul\":2703:2708   */\n      dup3\n        /* \"#utility.yul\":2655:2709   */\n      tag_40\n      jump\t// in\n    tag_78:\n        /* \"#utility.yul\":2725:2811   */\n      tag_79\n        /* \"#utility.yul\":2804:2810   */\n      dup2\n        /* \"#utility.yul\":2799:2802   */\n      dup6\n        /* \"#utility.yul\":2725:2811   */\n      tag_41\n      jump\t// in\n    tag_79:\n        /* \"#utility.yul\":2718:2811   */\n      swap4\n      pop\n        /* \"#utility.yul\":2835:2891   */\n      tag_80\n        /* \"#utility.yul\":2885:2890   */\n      dup4\n        /* \"#utility.yul\":2835:2891   */\n      tag_42\n      jump\t// in\n    tag_80:\n        /* \"#utility.yul\":2914:2921   */\n      dup1\n        /* \"#utility.yul\":2945:2946   */\n      0x00\n        /* \"#utility.yul\":2930:3214   */\n    tag_81:\n        /* \"#utility.yul\":2955:2961   */\n      dup4\n        /* \"#utility.yul\":2952:2953   */\n      dup2\n        /* \"#utility.yul\":2949:2962   */\n      lt\n        /* \"#utility.yul\":2930:3214   */\n      iszero\n      tag_83\n      jumpi\n        /* \"#utility.yul\":3031:3037   */\n      dup2\n        /* \"#utility.yul\":3025:3038   */\n      mload\n        /* \"#utility.yul\":3058:3121   */\n      tag_84\n        /* \"#utility.yul\":3117:3120   */\n      dup9\n        /* \"#utility.yul\":3102:3115   */\n      dup3\n        /* \"#utility.yul\":3058:3121   */\n      tag_44\n      jump\t// in\n    tag_84:\n        /* \"#utility.yul\":3051:3121   */\n      swap8\n      pop\n        /* \"#utility.yul\":3144:3204   */\n      tag_85\n        /* \"#utility.yul\":3197:3203   */\n      dup4\n        /* \"#utility.yul\":3144:3204   */\n      tag_45\n      jump\t// in\n    tag_85:\n        /* \"#utility.yul\":3134:3204   */\n      swap3\n      pop\n        /* \"#utility.yul\":2990:3214   */\n      pop\n        /* \"#utility.yul\":2977:2978   */\n      0x01\n        /* \"#utility.yul\":2974:2975   */\n      dup2\n        /* \"#utility.yul\":2970:2979   */\n      add\n        /* \"#utility.yul\":2965:2979   */\n      swap1\n      pop\n        /* \"#utility.yul\":2930:3214   */\n      jump(tag_81)\n    tag_83:\n        /* \"#utility.yul\":2934:2948   */\n      pop\n        /* \"#utility.yul\":3230:3233   */\n      dup6\n        /* \"#utility.yul\":3223:3233   */\n      swap4\n      pop\n        /* \"#utility.yul\":2631:3239   */\n      pop\n      pop\n      pop\n        /* \"#utility.yul\":2507:3239   */\n      swap3\n      swap2\n      pop\n      pop\n      jump\t// out\n        /* \"#utility.yul\":3245:3618   */\n    tag_15:\n        /* \"#utility.yul\":3388:3392   */\n      0x00\n        /* \"#utility.yul\":3426:3428   */\n      0x20\n        /* \"#utility.yul\":3415:3424   */\n      dup3\n        /* \"#utility.yul\":3411:3429   */\n      add\n        /* \"#utility.yul\":3403:3429   */\n      swap1\n      pop\n        /* \"#utility.yul\":3475:3484   */\n      dup2\n        /* \"#utility.yul\":3469:3473   */\n      dup2\n        /* \"#utility.yul\":3465:3485   */\n      sub\n        /* \"#utility.yul\":3461:3462   */\n      0x00\n        /* \"#utility.yul\":3450:3459   */\n      dup4\n        /* \"#utility.yul\":3446:3463   */\n      add\n        /* \"#utility.yul\":3439:3486   */\n      mstore\n        /* \"#utility.yul\":3503:3611   */\n      tag_87\n        /* \"#utility.yul\":3606:3610   */\n      dup2\n        /* \"#utility.yul\":3597:3603   */\n      dup5\n        /* \"#utility.yul\":3503:3611   */\n      tag_46\n      jump\t// in\n    tag_87:\n        /* \"#utility.yul\":3495:3611   */\n      swap1\n      pop\n        /* \"#utility.yul\":3245:3618   */\n      swap3\n      swap2\n      pop\n      pop\n      jump\t// out\n        /* \"#utility.yul\":3624:3742   */\n    tag_47:\n        /* \"#utility.yul\":3711:3735   */\n      tag_89\n        /* \"#utility.yul\":3729:3734   */\n      dup2\n        /* \"#utility.yul\":3711:3735   */\n      tag_34\n      jump\t// in\n    tag_89:\n        /* \"#utility.yul\":3706:3709   */\n      dup3\n        /* \"#utility.yul\":3699:3736   */\n      mstore\n        /* \"#utility.yul\":3624:3742   */\n      pop\n      pop\n      jump\t// out\n        /* \"#utility.yul\":3748:4080   */\n    tag_28:\n        /* \"#utility.yul\":3869:3873   */\n      0x00\n        /* \"#utility.yul\":3907:3909   */\n      0x40\n        /* \"#utility.yul\":3896:3905   */\n      dup3\n        /* \"#utility.yul\":3892:3910   */\n      add\n        /* \"#utility.yul\":3884:3910   */\n      swap1\n      pop\n        /* \"#utility.yul\":3920:3991   */\n      tag_91\n        /* \"#utility.yul\":3988:3989   */\n      0x00\n        /* \"#utility.yul\":3977:3986   */\n      dup4\n        /* \"#utility.yul\":3973:3990   */\n      add\n        /* \"#utility.yul\":3964:3970   */\n      dup6\n        /* \"#utility.yul\":3920:3991   */\n      tag_47\n      jump\t// in\n    tag_91:\n        /* \"#utility.yul\":4001:4073   */\n      tag_92\n        /* \"#utility.yul\":4069:4071   */\n      0x20\n        /* \"#utility.yul\":4058:4067   */\n      dup4\n        /* \"#utility.yul\":4054:4072   */\n      add\n        /* \"#utility.yul\":4045:4051   */\n      dup5\n        /* \"#utility.yul\":4001:4073   */\n      tag_39\n      jump\t// in\n    tag_92:\n        /* \"#utility.yul\":3748:4080   */\n      swap4\n      swap3\n      pop\n      pop\n      pop\n      jump\t// out\n    stop\n\n    sub_0: assembly {\n            /* \"Campaign.sol\":443:2885  contract Campaign {... */\n          mstore(0x40, 0x80)\n            /* \"Campaign.sol\":956:1075  constructor(uint minimum, address creator) {... */\n          callvalue\n          dup1\n          iszero\n          tag_1\n          jumpi\n          0x00\n          dup1\n          revert\n        tag_1:\n          pop\n          mload(0x40)\n          sub(codesize, bytecodeSize)\n          dup1\n          bytecodeSize\n          dup4\n          codecopy\n          dup2\n          dup2\n          add\n          0x40\n          mstore\n          dup2\n          add\n          swap1\n          tag_2\n          swap2\n          swap1\n          tag_3\n          jump\t// in\n        tag_2:\n            /* \"Campaign.sol\":1020:1027  creator */\n          dup1\n            /* \"Campaign.sol\":1010:1017  manager */\n          0x01\n          0x00\n            /* \"Campaign.sol\":1010:1027  manager = creator */\n          0x0100\n          exp\n          dup2\n          sload\n          dup2\n          0xffffffffffffffffffffffffffffffffffffffff\n          mul\n          not\n          and\n          swap1\n          dup4\n          0xffffffffffffffffffffffffffffffffffffffff\n          and\n          mul\n          or\n          swap1\n          sstore\n          pop\n            /* \"Campaign.sol\":1060:1067  minimum */\n          dup2\n            /* \"Campaign.sol\":1038:1057  minimumContribution */\n          0x02\n            /* \"Campaign.sol\":1038:1067  minimumContribution = minimum */\n          dup2\n          swap1\n          sstore\n          pop\n            /* \"Campaign.sol\":956:1075  constructor(uint minimum, address creator) {... */\n          pop\n          pop\n            /* \"Campaign.sol\":443:2885  contract Campaign {... */\n          jump(tag_6)\n            /* \"#utility.yul\":88:205   */\n        tag_8:\n            /* \"#utility.yul\":197:198   */\n          0x00\n            /* \"#utility.yul\":194:195   */\n          dup1\n            /* \"#utility.yul\":187:199   */\n          revert\n            /* \"#utility.yul\":334:411   */\n        tag_10:\n            /* \"#utility.yul\":371:378   */\n          0x00\n            /* \"#utility.yul\":400:405   */\n          dup2\n            /* \"#utility.yul\":389:405   */\n          swap1\n          pop\n            /* \"#utility.yul\":334:411   */\n          swap2\n          swap1\n          pop\n          jump\t// out\n            /* \"#utility.yul\":417:539   */\n        tag_11:\n            /* \"#utility.yul\":490:514   */\n          tag_23\n            /* \"#utility.yul\":508:513   */\n          dup2\n            /* \"#utility.yul\":490:514   */\n          tag_10\n          jump\t// in\n        tag_23:\n            /* \"#utility.yul\":483:488   */\n          dup2\n            /* \"#utility.yul\":480:515   */\n          eq\n            /* \"#utility.yul\":470:533   */\n          tag_24\n          jumpi\n            /* \"#utility.yul\":529:530   */\n          0x00\n            /* \"#utility.yul\":526:527   */\n          dup1\n            /* \"#utility.yul\":519:531   */\n          revert\n            /* \"#utility.yul\":470:533   */\n        tag_24:\n            /* \"#utility.yul\":417:539   */\n          pop\n          jump\t// out\n            /* \"#utility.yul\":545:688   */\n        tag_12:\n            /* \"#utility.yul\":602:607   */\n          0x00\n            /* \"#utility.yul\":633:639   */\n          dup2\n            /* \"#utility.yul\":627:640   */\n          mload\n            /* \"#utility.yul\":618:640   */\n          swap1\n          pop\n            /* \"#utility.yul\":649:682   */\n          tag_26\n            /* \"#utility.yul\":676:681   */\n          dup2\n            /* \"#utility.yul\":649:682   */\n          tag_11\n          jump\t// in\n        tag_26:\n            /* \"#utility.yul\":545:688   */\n          swap3\n          swap2\n          pop\n          pop\n          jump\t// out\n            /* \"#utility.yul\":694:820   */\n        tag_13:\n            /* \"#utility.yul\":731:738   */\n          0x00\n            /* \"#utility.yul\":771:813   */\n          0xffffffffffffffffffffffffffffffffffffffff\n            /* \"#utility.yul\":764:769   */\n          dup3\n            /* \"#utility.yul\":760:814   */\n          and\n            /* \"#utility.yul\":749:814   */\n          swap1\n          pop\n            /* \"#utility.yul\":694:820   */\n          swap2\n          swap1\n          pop\n          jump\t// out\n            /* \"#utility.yul\":826:922   */\n        tag_14:\n            /* \"#utility.yul\":863:870   */\n          0x00\n            /* \"#utility.yul\":892:916   */\n          tag_29\n            /* \"#utility.yul\":910:915   */\n          dup3\n            /* \"#utility.yul\":892:916   */\n          tag_13\n          jump\t// in\n        tag_29:\n            /* \"#utility.yul\":881:916   */\n          swap1\n          pop\n            /* \"#utility.yul\":826:922   */\n          swap2\n          swap1\n          pop\n          jump\t// out\n            /* \"#utility.yul\":928:1050   */\n        tag_15:\n            /* \"#utility.yul\":1001:1025   */\n          tag_31\n            /* \"#utility.yul\":1019:1024   */\n          dup2\n            /* \"#utility.yul\":1001:1025   */\n          tag_14\n          jump\t// in\n        tag_31:\n            /* \"#utility.yul\":994:999   */\n          dup2\n            /* \"#utility.yul\":991:1026   */\n          eq\n            /* \"#utility.yul\":981:1044   */\n          tag_32\n          jumpi\n            /* \"#utility.yul\":1040:1041   */\n          0x00\n            /* \"#utility.yul\":1037:1038   */\n          dup1\n            /* \"#utility.yul\":1030:1042   */\n          revert\n            /* \"#utility.yul\":981:1044   */\n        tag_32:\n            /* \"#utility.yul\":928:1050   */\n          pop\n          jump\t// out\n            /* \"#utility.yul\":1056:1199   */\n        tag_16:\n            /* \"#utility.yul\":1113:1118   */\n          0x00\n            /* \"#utility.yul\":1144:1150   */\n          dup2\n            /* \"#utility.yul\":1138:1151   */\n          mload\n            /* \"#utility.yul\":1129:1151   */\n          swap1\n          pop\n            /* \"#utility.yul\":1160:1193   */\n          tag_34\n            /* \"#utility.yul\":1187:1192   */\n          dup2\n            /* \"#utility.yul\":1160:1193   */\n          tag_15\n          jump\t// in\n        tag_34:\n            /* \"#utility.yul\":1056:1199   */\n          swap3\n          swap2\n          pop\n          pop\n          jump\t// out\n            /* \"#utility.yul\":1205:1712   */\n        tag_3:\n            /* \"#utility.yul\":1284:1290   */\n          0x00\n            /* \"#utility.yul\":1292:1298   */\n          dup1\n            /* \"#utility.yul\":1341:1343   */\n          0x40\n            /* \"#utility.yul\":1329:1338   */\n          dup4\n            /* \"#utility.yul\":1320:1327   */\n          dup6\n            /* \"#utility.yul\":1316:1339   */\n          sub\n            /* \"#utility.yul\":1312:1344   */\n          slt\n            /* \"#utility.yul\":1309:1428   */\n          iszero\n          tag_36\n          jumpi\n            /* \"#utility.yul\":1347:1426   */\n          tag_37\n          tag_8\n          jump\t// in\n        tag_37:\n            /* \"#utility.yul\":1309:1428   */\n        tag_36:\n            /* \"#utility.yul\":1467:1468   */\n          0x00\n            /* \"#utility.yul\":1492:1556   */\n          tag_38\n            /* \"#utility.yul\":1548:1555   */\n          dup6\n            /* \"#utility.yul\":1539:1545   */\n          dup3\n            /* \"#utility.yul\":1528:1537   */\n          dup7\n            /* \"#utility.yul\":1524:1546   */\n          add\n            /* \"#utility.yul\":1492:1556   */\n          tag_12\n          jump\t// in\n        tag_38:\n            /* \"#utility.yul\":1482:1556   */\n          swap3\n          pop\n            /* \"#utility.yul\":1438:1566   */\n          pop\n            /* \"#utility.yul\":1605:1607   */\n          0x20\n            /* \"#utility.yul\":1631:1695   */\n          tag_39\n            /* \"#utility.yul\":1687:1694   */\n          dup6\n            /* \"#utility.yul\":1678:1684   */\n          dup3\n            /* \"#utility.yul\":1667:1676   */\n          dup7\n            /* \"#utility.yul\":1663:1685   */\n          add\n            /* \"#utility.yul\":1631:1695   */\n          tag_16\n          jump\t// in\n        tag_39:\n            /* \"#utility.yul\":1621:1695   */\n          swap2\n          pop\n            /* \"#utility.yul\":1576:1705   */\n          pop\n            /* \"#utility.yul\":1205:1712   */\n          swap3\n          pop\n          swap3\n          swap1\n          pop\n          jump\t// out\n            /* \"Campaign.sol\":443:2885  contract Campaign {... */\n        tag_6:\n          dataSize(sub_0)\n          dup1\n          dataOffset(sub_0)\n          0x00\n          codecopy\n          0x00\n          return\n        stop\n\n        sub_0: assembly {\n                /* \"Campaign.sol\":443:2885  contract Campaign {... */\n              mstore(0x40, 0x80)\n              jumpi(tag_1, lt(calldatasize, 0x04))\n              shr(0xe0, calldataload(0x00))\n              dup1\n              0x81d12c58\n              gt\n              tag_13\n              jumpi\n              dup1\n              0x81d12c58\n              eq\n              tag_7\n              jumpi\n              dup1\n              0x82fde093\n              eq\n              tag_8\n              jumpi\n              dup1\n              0x8a9cfd55\n              eq\n              tag_9\n              jumpi\n              dup1\n              0x937e09b1\n              eq\n              tag_10\n              jumpi\n              dup1\n              0xd7bb99ba\n              eq\n              tag_11\n              jumpi\n              dup1\n              0xd7d1bbdb\n              eq\n              tag_12\n              jumpi\n              jump(tag_1)\n            tag_13:\n              dup1\n              0x03441006\n              eq\n              tag_2\n              jumpi\n              dup1\n              0x0a144391\n              eq\n              tag_3\n              jumpi\n              dup1\n              0x3410452a\n              eq\n              tag_4\n              jumpi\n              dup1\n              0x4051ddac\n              eq\n              tag_5\n              jumpi\n              dup1\n              0x481c6a75\n              eq\n              tag_6\n              jumpi\n            tag_1:\n              0x00\n              dup1\n              revert\n                /* \"Campaign.sol\":2202:2508  function finalizeRequest(uint index) public restricted {... */\n            tag_2:\n              callvalue\n              dup1\n              iszero\n              tag_14\n              jumpi\n              0x00\n              dup1\n              revert\n            tag_14:\n              pop\n              tag_15\n              0x04\n              dup1\n              calldatasize\n              sub\n              dup2\n              add\n              swap1\n              tag_16\n              swap2\n              swap1\n              tag_17\n              jump\t// in\n            tag_16:\n              tag_18\n              jump\t// in\n            tag_15:\n              stop\n                /* \"Campaign.sol\":782:823  mapping(address => bool) public approvers */\n            tag_3:\n              callvalue\n              dup1\n              iszero\n              tag_19\n              jumpi\n              0x00\n              dup1\n              revert\n            tag_19:\n              pop\n              tag_20\n              0x04\n              dup1\n              calldatasize\n              sub\n              dup2\n              add\n              swap1\n              tag_21\n              swap2\n              swap1\n              tag_22\n              jump\t// in\n            tag_21:\n              tag_23\n              jump\t// in\n            tag_20:\n              mload(0x40)\n              tag_24\n              swap2\n              swap1\n              tag_25\n              jump\t// in\n            tag_24:\n              mload(0x40)\n              dup1\n              swap2\n              sub\n              swap1\n              return\n                /* \"Campaign.sol\":2787:2882  function getRequestsCount() public view returns(uint) {... */\n            tag_4:\n              callvalue\n              dup1\n              iszero\n              tag_26\n              jumpi\n              0x00\n              dup1\n              revert\n            tag_26:\n              pop\n              tag_27\n              tag_28\n              jump\t// in\n            tag_27:\n              mload(0x40)\n              tag_29\n              swap2\n              swap1\n              tag_30\n              jump\t// in\n            tag_29:\n              mload(0x40)\n              dup1\n              swap2\n              sub\n              swap1\n              return\n                /* \"Campaign.sol\":2516:2779  function getSummary() public view returns(uint, uint, uint, uint, address) {... */\n            tag_5:\n              callvalue\n              dup1\n              iszero\n              tag_31\n              jumpi\n              0x00\n              dup1\n              revert\n            tag_31:\n              pop\n              tag_32\n              tag_33\n              jump\t// in\n            tag_32:\n              mload(0x40)\n              tag_34\n              swap6\n              swap5\n              swap4\n              swap3\n              swap2\n              swap1\n              tag_35\n              jump\t// in\n            tag_34:\n              mload(0x40)\n              dup1\n              swap2\n              sub\n              swap1\n              return\n                /* \"Campaign.sol\":715:737  address public manager */\n            tag_6:\n              callvalue\n              dup1\n              iszero\n              tag_36\n              jumpi\n              0x00\n              dup1\n              revert\n            tag_36:\n              pop\n              tag_37\n              tag_38\n              jump\t// in\n            tag_37:\n              mload(0x40)\n              tag_39\n              swap2\n              swap1\n              tag_40\n              jump\t// in\n            tag_39:\n              mload(0x40)\n              dup1\n              swap2\n              sub\n              swap1\n              return\n                /* \"Campaign.sol\":683:708  Request[] public requests */\n            tag_7:\n              callvalue\n              dup1\n              iszero\n              tag_41\n              jumpi\n              0x00\n              dup1\n              revert\n            tag_41:\n              pop\n              tag_42\n              0x04\n              dup1\n              calldatasize\n              sub\n              dup2\n              add\n              swap1\n              tag_43\n              swap2\n              swap1\n              tag_17\n              jump\t// in\n            tag_43:\n              tag_44\n              jump\t// in\n            tag_42:\n              mload(0x40)\n              tag_45\n              swap6\n              swap5\n              swap4\n              swap3\n              swap2\n              swap1\n              tag_46\n              jump\t// in\n            tag_45:\n              mload(0x40)\n              dup1\n              swap2\n              sub\n              swap1\n              return\n                /* \"Campaign.sol\":830:856  uint public approversCount */\n            tag_8:\n              callvalue\n              dup1\n              iszero\n              tag_47\n              jumpi\n              0x00\n              dup1\n              revert\n            tag_47:\n              pop\n              tag_48\n              tag_49\n              jump\t// in\n            tag_48:\n              mload(0x40)\n              tag_50\n              swap2\n              swap1\n              tag_30\n              jump\t// in\n            tag_50:\n              mload(0x40)\n              dup1\n              swap2\n              sub\n              swap1\n              return\n                /* \"Campaign.sol\":1255:1907  function createRequest(string memory description, uint value, address payable recipient) public restricted {... */\n            tag_9:\n              callvalue\n              dup1\n              iszero\n              tag_51\n              jumpi\n              0x00\n              dup1\n              revert\n            tag_51:\n              pop\n              tag_52\n              0x04\n              dup1\n              calldatasize\n              sub\n              dup2\n              add\n              swap1\n              tag_53\n              swap2\n              swap1\n              tag_54\n              jump\t// in\n            tag_53:\n              tag_55\n              jump\t// in\n            tag_52:\n              stop\n                /* \"Campaign.sol\":744:775  uint public minimumContribution */\n            tag_10:\n              callvalue\n              dup1\n              iszero\n              tag_56\n              jumpi\n              0x00\n              dup1\n              revert\n            tag_56:\n              pop\n              tag_57\n              tag_58\n              jump\t// in\n            tag_57:\n              mload(0x40)\n              tag_59\n              swap2\n              swap1\n              tag_30\n              jump\t// in\n            tag_59:\n              mload(0x40)\n              dup1\n              swap2\n              sub\n              swap1\n              return\n                /* \"Campaign.sol\":1083:1247  function contribute() public payable {... */\n            tag_11:\n              tag_60\n              tag_61\n              jump\t// in\n            tag_60:\n              stop\n                /* \"Campaign.sol\":1915:2194  function approveRequest(uint index) public {... */\n            tag_12:\n              callvalue\n              dup1\n              iszero\n              tag_62\n              jumpi\n              0x00\n              dup1\n              revert\n            tag_62:\n              pop\n              tag_63\n              0x04\n              dup1\n              calldatasize\n              sub\n              dup2\n              add\n              swap1\n              tag_64\n              swap2\n              swap1\n              tag_17\n              jump\t// in\n            tag_64:\n              tag_65\n              jump\t// in\n            tag_63:\n              stop\n                /* \"Campaign.sol\":2202:2508  function finalizeRequest(uint index) public restricted {... */\n            tag_18:\n                /* \"Campaign.sol\":920:927  manager */\n              0x01\n              0x00\n              swap1\n              sload\n              swap1\n              0x0100\n              exp\n              swap1\n              div\n              0xffffffffffffffffffffffffffffffffffffffff\n              and\n                /* \"Campaign.sol\":906:927  msg.sender == manager */\n              0xffffffffffffffffffffffffffffffffffffffff\n              and\n                /* \"Campaign.sol\":906:916  msg.sender */\n              caller\n                /* \"Campaign.sol\":906:927  msg.sender == manager */\n              0xffffffffffffffffffffffffffffffffffffffff\n              and\n              eq\n                /* \"Campaign.sol\":898:928  require(msg.sender == manager) */\n              tag_67\n              jumpi\n              0x00\n              dup1\n              revert\n            tag_67:\n                /* \"Campaign.sol\":2268:2291  Request storage request */\n              0x00\n                /* \"Campaign.sol\":2294:2302  requests */\n              dup1\n                /* \"Campaign.sol\":2303:2308  index */\n              dup3\n                /* \"Campaign.sol\":2294:2309  requests[index] */\n              dup2\n              sload\n              dup2\n              lt\n              tag_69\n              jumpi\n              tag_70\n              tag_71\n              jump\t// in\n            tag_70:\n            tag_69:\n              swap1\n              0x00\n              mstore\n              keccak256(0x00, 0x20)\n              swap1\n              0x05\n              mul\n              add\n                /* \"Campaign.sol\":2268:2309  Request storage request = requests[index] */\n              swap1\n              pop\n                /* \"Campaign.sol\":2372:2373  2 */\n              0x02\n                /* \"Campaign.sol\":2355:2369  approversCount */\n              sload(0x04)\n                /* \"Campaign.sol\":2355:2373  approversCount / 2 */\n              tag_73\n              swap2\n              swap1\n              tag_74\n              jump\t// in\n            tag_73:\n                /* \"Campaign.sol\":2330:2337  request */\n              dup2\n                /* \"Campaign.sol\":2330:2351  request.approvalCount */\n              0x03\n              add\n              sload\n                /* \"Campaign.sol\":2330:2374  request.approvalCount > (approversCount / 2) */\n              gt\n                /* \"Campaign.sol\":2322:2375  require(request.approvalCount > (approversCount / 2)) */\n              tag_75\n              jumpi\n              0x00\n              dup1\n              revert\n            tag_75:\n                /* \"Campaign.sol\":2395:2402  request */\n              dup1\n                /* \"Campaign.sol\":2395:2411  request.complete */\n              0x02\n              add\n              0x14\n              swap1\n              sload\n              swap1\n              0x0100\n              exp\n              swap1\n              div\n              0xff\n              and\n                /* \"Campaign.sol\":2394:2411  !request.complete */\n              iszero\n                /* \"Campaign.sol\":2386:2412  require(!request.complete) */\n              tag_76\n              jumpi\n              0x00\n              dup1\n              revert\n            tag_76:\n                /* \"Campaign.sol\":2425:2432  request */\n              dup1\n                /* \"Campaign.sol\":2425:2442  request.recipient */\n              0x02\n              add\n              0x00\n              swap1\n              sload\n              swap1\n              0x0100\n              exp\n              swap1\n              div\n              0xffffffffffffffffffffffffffffffffffffffff\n              and\n                /* \"Campaign.sol\":2425:2451  request.recipient.transfer */\n              0xffffffffffffffffffffffffffffffffffffffff\n              and\n                /* \"Campaign.sol\":2425:2466  request.recipient.transfer(request.value) */\n              0x08fc\n                /* \"Campaign.sol\":2452:2459  request */\n              dup3\n                /* \"Campaign.sol\":2452:2465  request.value */\n              0x01\n              add\n              sload\n                /* \"Campaign.sol\":2425:2466  request.recipient.transfer(request.value) */\n              swap1\n              dup2\n              iszero\n              mul\n              swap1\n              mload(0x40)\n              0x00\n              mload(0x40)\n              dup1\n              dup4\n              sub\n              dup2\n              dup6\n              dup9\n              dup9\n              call\n              swap4\n              pop\n              pop\n              pop\n              pop\n              iszero\n              dup1\n              iszero\n              tag_78\n              jumpi\n              returndatasize\n              0x00\n              dup1\n              returndatacopy\n              revert(0x00, returndatasize)\n            tag_78:\n              pop\n                /* \"Campaign.sol\":2496:2500  true */\n              0x01\n                /* \"Campaign.sol\":2477:2484  request */\n              dup2\n                /* \"Campaign.sol\":2477:2493  request.complete */\n              0x02\n              add\n              0x14\n                /* \"Campaign.sol\":2477:2500  request.complete = true */\n              0x0100\n              exp\n              dup2\n              sload\n              dup2\n              0xff\n              mul\n              not\n              and\n              swap1\n              dup4\n              iszero\n              iszero\n              mul\n              or\n              swap1\n              sstore\n              pop\n                /* \"Campaign.sol\":2257:2508  {... */\n              pop\n                /* \"Campaign.sol\":2202:2508  function finalizeRequest(uint index) public restricted {... */\n              pop\n              jump\t// out\n                /* \"Campaign.sol\":782:823  mapping(address => bool) public approvers */\n            tag_23:\n              mstore(0x20, 0x03)\n              dup1\n              0x00\n              mstore\n              keccak256(0x00, 0x40)\n              0x00\n              swap2\n              pop\n              sload\n              swap1\n              0x0100\n              exp\n              swap1\n              div\n              0xff\n              and\n              dup2\n              jump\t// out\n                /* \"Campaign.sol\":2787:2882  function getRequestsCount() public view returns(uint) {... */\n            tag_28:\n                /* \"Campaign.sol\":2835:2839  uint */\n              0x00\n                /* \"Campaign.sol\":2859:2867  requests */\n              dup1\n                /* \"Campaign.sol\":2859:2874  requests.length */\n              dup1\n              sload\n              swap1\n              pop\n                /* \"Campaign.sol\":2852:2874  return requests.length */\n              swap1\n              pop\n                /* \"Campaign.sol\":2787:2882  function getRequestsCount() public view returns(uint) {... */\n              swap1\n              jump\t// out\n                /* \"Campaign.sol\":2516:2779  function getSummary() public view returns(uint, uint, uint, uint, address) {... */\n            tag_33:\n                /* \"Campaign.sol\":2558:2562  uint */\n              0x00\n                /* \"Campaign.sol\":2564:2568  uint */\n              dup1\n                /* \"Campaign.sol\":2570:2574  uint */\n              0x00\n                /* \"Campaign.sol\":2576:2580  uint */\n              dup1\n                /* \"Campaign.sol\":2582:2589  address */\n              0x00\n                /* \"Campaign.sol\":2624:2643  minimumContribution */\n              sload(0x02)\n                /* \"Campaign.sol\":2658:2679  address(this).balance */\n              selfbalance\n                /* \"Campaign.sol\":2694:2702  requests */\n              0x00\n                /* \"Campaign.sol\":2694:2709  requests.length */\n              dup1\n              sload\n              swap1\n              pop\n                /* \"Campaign.sol\":2724:2738  approversCount */\n              sload(0x04)\n                /* \"Campaign.sol\":2753:2760  manager */\n              0x01\n              0x00\n              swap1\n              sload\n              swap1\n              0x0100\n              exp\n              swap1\n              div\n              0xffffffffffffffffffffffffffffffffffffffff\n              and\n                /* \"Campaign.sol\":2602:2771  return (... */\n              swap5\n              pop\n              swap5\n              pop\n              swap5\n              pop\n              swap5\n              pop\n              swap5\n              pop\n                /* \"Campaign.sol\":2516:2779  function getSummary() public view returns(uint, uint, uint, uint, address) {... */\n              swap1\n              swap2\n              swap3\n              swap4\n              swap5\n              jump\t// out\n                /* \"Campaign.sol\":715:737  address public manager */\n            tag_38:\n              0x01\n              0x00\n              swap1\n              sload\n              swap1\n              0x0100\n              exp\n              swap1\n              div\n              0xffffffffffffffffffffffffffffffffffffffff\n              and\n              dup2\n              jump\t// out\n                /* \"Campaign.sol\":683:708  Request[] public requests */\n            tag_44:\n              0x00\n              dup2\n              dup2\n              sload\n              dup2\n              lt\n              tag_81\n              jumpi\n              0x00\n              dup1\n              revert\n            tag_81:\n              swap1\n              0x00\n              mstore\n              keccak256(0x00, 0x20)\n              swap1\n              0x05\n              mul\n              add\n              0x00\n              swap2\n              pop\n              swap1\n              pop\n              dup1\n              0x00\n              add\n              dup1\n              sload\n              tag_83\n              swap1\n              tag_84\n              jump\t// in\n            tag_83:\n              dup1\n              0x1f\n              add\n              0x20\n              dup1\n              swap2\n              div\n              mul\n              0x20\n              add\n              mload(0x40)\n              swap1\n              dup2\n              add\n              0x40\n              mstore\n              dup1\n              swap3\n              swap2\n              swap1\n              dup2\n              dup2\n              mstore\n              0x20\n              add\n              dup3\n              dup1\n              sload\n              tag_85\n              swap1\n              tag_84\n              jump\t// in\n            tag_85:\n              dup1\n              iszero\n              tag_86\n              jumpi\n              dup1\n              0x1f\n              lt\n              tag_87\n              jumpi\n              0x0100\n              dup1\n              dup4\n              sload\n              div\n              mul\n              dup4\n              mstore\n              swap2\n              0x20\n              add\n              swap2\n              jump(tag_86)\n            tag_87:\n              dup3\n              add\n              swap2\n              swap1\n              0x00\n              mstore\n              keccak256(0x00, 0x20)\n              swap1\n            tag_88:\n              dup2\n              sload\n              dup2\n              mstore\n              swap1\n              0x01\n              add\n              swap1\n              0x20\n              add\n              dup1\n              dup4\n              gt\n              tag_88\n              jumpi\n              dup3\n              swap1\n              sub\n              0x1f\n              and\n              dup3\n              add\n              swap2\n            tag_86:\n              pop\n              pop\n              pop\n              pop\n              pop\n              swap1\n              dup1\n              0x01\n              add\n              sload\n              swap1\n              dup1\n              0x02\n              add\n              0x00\n              swap1\n              sload\n              swap1\n              0x0100\n              exp\n              swap1\n              div\n              0xffffffffffffffffffffffffffffffffffffffff\n              and\n              swap1\n              dup1\n              0x02\n              add\n              0x14\n              swap1\n              sload\n              swap1\n              0x0100\n              exp\n              swap1\n              div\n              0xff\n              and\n              swap1\n              dup1\n              0x03\n              add\n              sload\n              swap1\n              pop\n              dup6\n              jump\t// out\n                /* \"Campaign.sol\":830:856  uint public approversCount */\n            tag_49:\n              sload(0x04)\n              dup2\n              jump\t// out\n                /* \"Campaign.sol\":1255:1907  function createRequest(string memory description, uint value, address payable recipient) public restricted {... */\n            tag_55:\n                /* \"Campaign.sol\":920:927  manager */\n              0x01\n              0x00\n              swap1\n              sload\n              swap1\n              0x0100\n              exp\n              swap1\n              div\n              0xffffffffffffffffffffffffffffffffffffffff\n              and\n                /* \"Campaign.sol\":906:927  msg.sender == manager */\n              0xffffffffffffffffffffffffffffffffffffffff\n              and\n                /* \"Campaign.sol\":906:916  msg.sender */\n              caller\n                /* \"Campaign.sol\":906:927  msg.sender == manager */\n              0xffffffffffffffffffffffffffffffffffffffff\n              and\n              eq\n                /* \"Campaign.sol\":898:928  require(msg.sender == manager) */\n              tag_90\n              jumpi\n              0x00\n              dup1\n              revert\n            tag_90:\n                /* \"Campaign.sol\":1612:1638  Request storage newRequest */\n              0x00\n                /* \"Campaign.sol\":1641:1649  requests */\n              dup1\n                /* \"Campaign.sol\":1641:1656  requests.push() */\n              0x01\n              dup2\n              0x01\n              dup2\n              sload\n              add\n              dup1\n              dup3\n              sstore\n              dup1\n              swap2\n              pop\n              pop\n              sub\n              swap1\n              0x00\n              mstore\n              keccak256(0x00, 0x20)\n              swap1\n              0x05\n              mul\n              add\n                /* \"Campaign.sol\":1612:1656  Request storage newRequest = requests.push() */\n              swap1\n              pop\n                /* \"Campaign.sol\":1692:1703  description */\n              dup4\n                /* \"Campaign.sol\":1667:1677  newRequest */\n              dup2\n                /* \"Campaign.sol\":1667:1689  newRequest.description */\n              0x00\n              add\n                /* \"Campaign.sol\":1667:1703  newRequest.description = description */\n              swap1\n              dup2\n              tag_93\n              swap2\n              swap1\n              tag_94\n              jump\t// in\n            tag_93:\n              pop\n                /* \"Campaign.sol\":1733:1738  value */\n              dup3\n                /* \"Campaign.sol\":1714:1724  newRequest */\n              dup2\n                /* \"Campaign.sol\":1714:1730  newRequest.value */\n              0x01\n              add\n                /* \"Campaign.sol\":1714:1738  newRequest.value = value */\n              dup2\n              swap1\n              sstore\n              pop\n                /* \"Campaign.sol\":1772:1781  recipient */\n              dup2\n                /* \"Campaign.sol\":1749:1759  newRequest */\n              dup2\n                /* \"Campaign.sol\":1749:1769  newRequest.recipient */\n              0x02\n              add\n              0x00\n                /* \"Campaign.sol\":1749:1781  newRequest.recipient = recipient */\n              0x0100\n              exp\n              dup2\n              sload\n              dup2\n              0xffffffffffffffffffffffffffffffffffffffff\n              mul\n              not\n              and\n              swap1\n              dup4\n              0xffffffffffffffffffffffffffffffffffffffff\n              and\n              mul\n              or\n              swap1\n              sstore\n              pop\n                /* \"Campaign.sol\":1814:1819  false */\n              0x00\n                /* \"Campaign.sol\":1792:1802  newRequest */\n              dup2\n                /* \"Campaign.sol\":1792:1811  newRequest.complete */\n              0x02\n              add\n              0x14\n                /* \"Campaign.sol\":1792:1819  newRequest.complete = false */\n              0x0100\n              exp\n              dup2\n              sload\n              dup2\n              0xff\n              mul\n              not\n              and\n              swap1\n              dup4\n              iszero\n              iszero\n              mul\n              or\n              swap1\n              sstore\n              pop\n                /* \"Campaign.sol\":1857:1858  0 */\n              0x00\n                /* \"Campaign.sol\":1830:1840  newRequest */\n              dup2\n                /* \"Campaign.sol\":1830:1854  newRequest.approvalCount */\n              0x03\n              add\n                /* \"Campaign.sol\":1830:1858  newRequest.approvalCount = 0 */\n              dup2\n              swap1\n              sstore\n              pop\n                /* \"Campaign.sol\":1362:1907  {... */\n              pop\n                /* \"Campaign.sol\":1255:1907  function createRequest(string memory description, uint value, address payable recipient) public restricted {... */\n              pop\n              pop\n              pop\n              jump\t// out\n                /* \"Campaign.sol\":744:775  uint public minimumContribution */\n            tag_58:\n              sload(0x02)\n              dup2\n              jump\t// out\n                /* \"Campaign.sol\":1083:1247  function contribute() public payable {... */\n            tag_61:\n                /* \"Campaign.sol\":1151:1170  minimumContribution */\n              sload(0x02)\n                /* \"Campaign.sol\":1139:1148  msg.value */\n              callvalue\n                /* \"Campaign.sol\":1139:1170  msg.value > minimumContribution */\n              gt\n                /* \"Campaign.sol\":1131:1171  require(msg.value > minimumContribution) */\n              tag_96\n              jumpi\n              0x00\n              dup1\n              revert\n            tag_96:\n                /* \"Campaign.sol\":1208:1212  true */\n              0x01\n                /* \"Campaign.sol\":1184:1193  approvers */\n              0x03\n                /* \"Campaign.sol\":1184:1205  approvers[msg.sender] */\n              0x00\n                /* \"Campaign.sol\":1194:1204  msg.sender */\n              caller\n                /* \"Campaign.sol\":1184:1205  approvers[msg.sender] */\n              0xffffffffffffffffffffffffffffffffffffffff\n              and\n              0xffffffffffffffffffffffffffffffffffffffff\n              and\n              dup2\n              mstore\n              0x20\n              add\n              swap1\n              dup2\n              mstore\n              0x20\n              add\n              0x00\n              keccak256\n              0x00\n                /* \"Campaign.sol\":1184:1212  approvers[msg.sender] = true */\n              0x0100\n              exp\n              dup2\n              sload\n              dup2\n              0xff\n              mul\n              not\n              and\n              swap1\n              dup4\n              iszero\n              iszero\n              mul\n              or\n              swap1\n              sstore\n              pop\n                /* \"Campaign.sol\":1223:1237  approversCount */\n              0x04\n              0x00\n                /* \"Campaign.sol\":1223:1239  approversCount++ */\n              dup2\n              sload\n              dup1\n              swap3\n              swap2\n              swap1\n              tag_97\n              swap1\n              tag_98\n              jump\t// in\n            tag_97:\n              swap2\n              swap1\n              pop\n              sstore\n              pop\n                /* \"Campaign.sol\":1083:1247  function contribute() public payable {... */\n              jump\t// out\n                /* \"Campaign.sol\":1915:2194  function approveRequest(uint index) public {... */\n            tag_65:\n                /* \"Campaign.sol\":1969:1992  Request storage request */\n              0x00\n                /* \"Campaign.sol\":1995:2003  requests */\n              dup1\n                /* \"Campaign.sol\":2004:2009  index */\n              dup3\n                /* \"Campaign.sol\":1995:2010  requests[index] */\n              dup2\n              sload\n              dup2\n              lt\n              tag_100\n              jumpi\n              tag_101\n              tag_71\n              jump\t// in\n            tag_101:\n            tag_100:\n              swap1\n              0x00\n              mstore\n              keccak256(0x00, 0x20)\n              swap1\n              0x05\n              mul\n              add\n                /* \"Campaign.sol\":1969:2010  Request storage request = requests[index] */\n              swap1\n              pop\n                /* \"Campaign.sol\":2031:2040  approvers */\n              0x03\n                /* \"Campaign.sol\":2031:2052  approvers[msg.sender] */\n              0x00\n                /* \"Campaign.sol\":2041:2051  msg.sender */\n              caller\n                /* \"Campaign.sol\":2031:2052  approvers[msg.sender] */\n              0xffffffffffffffffffffffffffffffffffffffff\n              and\n              0xffffffffffffffffffffffffffffffffffffffff\n              and\n              dup2\n              mstore\n              0x20\n              add\n              swap1\n              dup2\n              mstore\n              0x20\n              add\n              0x00\n              keccak256\n              0x00\n              swap1\n              sload\n              swap1\n              0x0100\n              exp\n              swap1\n              div\n              0xff\n              and\n                /* \"Campaign.sol\":2023:2053  require(approvers[msg.sender]) */\n              tag_103\n              jumpi\n              0x00\n              dup1\n              revert\n            tag_103:\n                /* \"Campaign.sol\":2073:2080  request */\n              dup1\n                /* \"Campaign.sol\":2073:2090  request.approvals */\n              0x04\n              add\n                /* \"Campaign.sol\":2073:2102  request.approvals[msg.sender] */\n              0x00\n                /* \"Campaign.sol\":2091:2101  msg.sender */\n              caller\n                /* \"Campaign.sol\":2073:2102  request.approvals[msg.sender] */\n              0xffffffffffffffffffffffffffffffffffffffff\n              and\n              0xffffffffffffffffffffffffffffffffffffffff\n              and\n              dup2\n              mstore\n              0x20\n              add\n              swap1\n              dup2\n              mstore\n              0x20\n              add\n              0x00\n              keccak256\n              0x00\n              swap1\n              sload\n              swap1\n              0x0100\n              exp\n              swap1\n              div\n              0xff\n              and\n                /* \"Campaign.sol\":2072:2102  !request.approvals[msg.sender] */\n              iszero\n                /* \"Campaign.sol\":2064:2103  require(!request.approvals[msg.sender]) */\n              tag_104\n              jumpi\n              0x00\n              dup1\n              revert\n            tag_104:\n                /* \"Campaign.sol\":2148:2152  true */\n              0x01\n                /* \"Campaign.sol\":2116:2123  request */\n              dup2\n                /* \"Campaign.sol\":2116:2133  request.approvals */\n              0x04\n              add\n                /* \"Campaign.sol\":2116:2145  request.approvals[msg.sender] */\n              0x00\n                /* \"Campaign.sol\":2134:2144  msg.sender */\n              caller\n                /* \"Campaign.sol\":2116:2145  request.approvals[msg.sender] */\n              0xffffffffffffffffffffffffffffffffffffffff\n              and\n              0xffffffffffffffffffffffffffffffffffffffff\n              and\n              dup2\n              mstore\n              0x20\n              add\n              swap1\n              dup2\n              mstore\n              0x20\n              add\n              0x00\n              keccak256\n              0x00\n                /* \"Campaign.sol\":2116:2152  request.approvals[msg.sender] = true */\n              0x0100\n              exp\n              dup2\n              sload\n              dup2\n              0xff\n              mul\n              not\n              and\n              swap1\n              dup4\n              iszero\n              iszero\n              mul\n              or\n              swap1\n              sstore\n              pop\n                /* \"Campaign.sol\":2163:2170  request */\n              dup1\n                /* \"Campaign.sol\":2163:2184  request.approvalCount */\n              0x03\n              add\n              0x00\n                /* \"Campaign.sol\":2163:2186  request.approvalCount++ */\n              dup2\n              sload\n              dup1\n              swap3\n              swap2\n              swap1\n              tag_105\n              swap1\n              tag_98\n              jump\t// in\n            tag_105:\n              swap2\n              swap1\n              pop\n              sstore\n              pop\n                /* \"Campaign.sol\":1958:2194  {... */\n              pop\n                /* \"Campaign.sol\":1915:2194  function approveRequest(uint index) public {... */\n              pop\n              jump\t// out\n                /* \"#utility.yul\":7:82   */\n            tag_106:\n                /* \"#utility.yul\":40:46   */\n              0x00\n                /* \"#utility.yul\":73:75   */\n              0x40\n                /* \"#utility.yul\":67:76   */\n              mload\n                /* \"#utility.yul\":57:76   */\n              swap1\n              pop\n                /* \"#utility.yul\":7:82   */\n              swap1\n              jump\t// out\n                /* \"#utility.yul\":88:205   */\n            tag_107:\n                /* \"#utility.yul\":197:198   */\n              0x00\n                /* \"#utility.yul\":194:195   */\n              dup1\n                /* \"#utility.yul\":187:199   */\n              revert\n                /* \"#utility.yul\":211:328   */\n            tag_108:\n                /* \"#utility.yul\":320:321   */\n              0x00\n                /* \"#utility.yul\":317:318   */\n              dup1\n                /* \"#utility.yul\":310:322   */\n              revert\n                /* \"#utility.yul\":334:411   */\n            tag_109:\n                /* \"#utility.yul\":371:378   */\n              0x00\n                /* \"#utility.yul\":400:405   */\n              dup2\n                /* \"#utility.yul\":389:405   */\n              swap1\n              pop\n                /* \"#utility.yul\":334:411   */\n              swap2\n              swap1\n              pop\n              jump\t// out\n                /* \"#utility.yul\":417:539   */\n            tag_110:\n                /* \"#utility.yul\":490:514   */\n              tag_162\n                /* \"#utility.yul\":508:513   */\n              dup2\n                /* \"#utility.yul\":490:514   */\n              tag_109\n              jump\t// in\n            tag_162:\n                /* \"#utility.yul\":483:488   */\n              dup2\n                /* \"#utility.yul\":480:515   */\n              eq\n                /* \"#utility.yul\":470:533   */\n              tag_163\n              jumpi\n                /* \"#utility.yul\":529:530   */\n              0x00\n                /* \"#utility.yul\":526:527   */\n              dup1\n                /* \"#utility.yul\":519:531   */\n              revert\n                /* \"#utility.yul\":470:533   */\n            tag_163:\n                /* \"#utility.yul\":417:539   */\n              pop\n              jump\t// out\n                /* \"#utility.yul\":545:684   */\n            tag_111:\n                /* \"#utility.yul\":591:596   */\n              0x00\n                /* \"#utility.yul\":629:635   */\n              dup2\n                /* \"#utility.yul\":616:636   */\n              calldataload\n                /* \"#utility.yul\":607:636   */\n              swap1\n              pop\n                /* \"#utility.yul\":645:678   */\n              tag_165\n                /* \"#utility.yul\":672:677   */\n              dup2\n                /* \"#utility.yul\":645:678   */\n              tag_110\n              jump\t// in\n            tag_165:\n                /* \"#utility.yul\":545:684   */\n              swap3\n              swap2\n              pop\n              pop\n              jump\t// out\n                /* \"#utility.yul\":690:1019   */\n            tag_17:\n                /* \"#utility.yul\":749:755   */\n              0x00\n                /* \"#utility.yul\":798:800   */\n              0x20\n                /* \"#utility.yul\":786:795   */\n              dup3\n                /* \"#utility.yul\":777:784   */\n              dup5\n                /* \"#utility.yul\":773:796   */\n              sub\n                /* \"#utility.yul\":769:801   */\n              slt\n                /* \"#utility.yul\":766:885   */\n              iszero\n              tag_167\n              jumpi\n                /* \"#utility.yul\":804:883   */\n              tag_168\n              tag_107\n              jump\t// in\n            tag_168:\n                /* \"#utility.yul\":766:885   */\n            tag_167:\n                /* \"#utility.yul\":924:925   */\n              0x00\n                /* \"#utility.yul\":949:1002   */\n              tag_169\n                /* \"#utility.yul\":994:1001   */\n              dup5\n                /* \"#utility.yul\":985:991   */\n              dup3\n                /* \"#utility.yul\":974:983   */\n              dup6\n                /* \"#utility.yul\":970:992   */\n              add\n                /* \"#utility.yul\":949:1002   */\n              tag_111\n              jump\t// in\n            tag_169:\n                /* \"#utility.yul\":939:1002   */\n              swap2\n              pop\n                /* \"#utility.yul\":895:1012   */\n              pop\n                /* \"#utility.yul\":690:1019   */\n              swap3\n              swap2\n              pop\n              pop\n              jump\t// out\n                /* \"#utility.yul\":1025:1151   */\n            tag_112:\n                /* \"#utility.yul\":1062:1069   */\n              0x00\n                /* \"#utility.yul\":1102:1144   */\n              0xffffffffffffffffffffffffffffffffffffffff\n                /* \"#utility.yul\":1095:1100   */\n              dup3\n                /* \"#utility.yul\":1091:1145   */\n              and\n                /* \"#utility.yul\":1080:1145   */\n              swap1\n              pop\n                /* \"#utility.yul\":1025:1151   */\n              swap2\n              swap1\n              pop\n              jump\t// out\n                /* \"#utility.yul\":1157:1253   */\n            tag_113:\n                /* \"#utility.yul\":1194:1201   */\n              0x00\n                /* \"#utility.yul\":1223:1247   */\n              tag_172\n                /* \"#utility.yul\":1241:1246   */\n              dup3\n                /* \"#utility.yul\":1223:1247   */\n              tag_112\n              jump\t// in\n            tag_172:\n                /* \"#utility.yul\":1212:1247   */\n              swap1\n              pop\n                /* \"#utility.yul\":1157:1253   */\n              swap2\n              swap1\n              pop\n              jump\t// out\n                /* \"#utility.yul\":1259:1381   */\n            tag_114:\n                /* \"#utility.yul\":1332:1356   */\n              tag_174\n                /* \"#utility.yul\":1350:1355   */\n              dup2\n                /* \"#utility.yul\":1332:1356   */\n              tag_113\n              jump\t// in\n            tag_174:\n                /* \"#utility.yul\":1325:1330   */\n              dup2\n                /* \"#utility.yul\":1322:1357   */\n              eq\n                /* \"#utility.yul\":1312:1375   */\n              tag_175\n              jumpi\n                /* \"#utility.yul\":1371:1372   */\n              0x00\n                /* \"#utility.yul\":1368:1369   */\n              dup1\n                /* \"#utility.yul\":1361:1373   */\n              revert\n                /* \"#utility.yul\":1312:1375   */\n            tag_175:\n                /* \"#utility.yul\":1259:1381   */\n              pop\n              jump\t// out\n                /* \"#utility.yul\":1387:1526   */\n            tag_115:\n                /* \"#utility.yul\":1433:1438   */\n              0x00\n                /* \"#utility.yul\":1471:1477   */\n              dup2\n                /* \"#utility.yul\":1458:1478   */\n              calldataload\n                /* \"#utility.yul\":1449:1478   */\n              swap1\n              pop\n                /* \"#utility.yul\":1487:1520   */\n              tag_177\n                /* \"#utility.yul\":1514:1519   */\n              dup2\n                /* \"#utility.yul\":1487:1520   */\n              tag_114\n              jump\t// in\n            tag_177:\n                /* \"#utility.yul\":1387:1526   */\n              swap3\n              swap2\n              pop\n              pop\n              jump\t// out\n                /* \"#utility.yul\":1532:1861   */\n            tag_22:\n                /* \"#utility.yul\":1591:1597   */\n              0x00\n                /* \"#utility.yul\":1640:1642   */\n              0x20\n                /* \"#utility.yul\":1628:1637   */\n              dup3\n                /* \"#utility.yul\":1619:1626   */\n              dup5\n                /* \"#utility.yul\":1615:1638   */\n              sub\n                /* \"#utility.yul\":1611:1643   */\n              slt\n                /* \"#utility.yul\":1608:1727   */\n              iszero\n              tag_179\n              jumpi\n                /* \"#utility.yul\":1646:1725   */\n              tag_180\n              tag_107\n              jump\t// in\n            tag_180:\n                /* \"#utility.yul\":1608:1727   */\n            tag_179:\n                /* \"#utility.yul\":1766:1767   */\n              0x00\n                /* \"#utility.yul\":1791:1844   */\n              tag_181\n                /* \"#utility.yul\":1836:1843   */\n              dup5\n                /* \"#utility.yul\":1827:1833   */\n              dup3\n                /* \"#utility.yul\":1816:1825   */\n              dup6\n                /* \"#utility.yul\":1812:1834   */\n              add\n                /* \"#utility.yul\":1791:1844   */\n              tag_115\n              jump\t// in\n            tag_181:\n                /* \"#utility.yul\":1781:1844   */\n              swap2\n              pop\n                /* \"#utility.yul\":1737:1854   */\n              pop\n                /* \"#utility.yul\":1532:1861   */\n              swap3\n              swap2\n              pop\n              pop\n              jump\t// out\n                /* \"#utility.yul\":1867:1957   */\n            tag_116:\n                /* \"#utility.yul\":1901:1908   */\n              0x00\n                /* \"#utility.yul\":1944:1949   */\n              dup2\n                /* \"#utility.yul\":1937:1950   */\n              iszero\n                /* \"#utility.yul\":1930:1951   */\n              iszero\n                /* \"#utility.yul\":1919:1951   */\n              swap1\n              pop\n                /* \"#utility.yul\":1867:1957   */\n              swap2\n              swap1\n              pop\n              jump\t// out\n                /* \"#utility.yul\":1963:2072   */\n            tag_117:\n                /* \"#utility.yul\":2044:2065   */\n              tag_184\n                /* \"#utility.yul\":2059:2064   */\n              dup2\n                /* \"#utility.yul\":2044:2065   */\n              tag_116\n              jump\t// in\n            tag_184:\n                /* \"#utility.yul\":2039:2042   */\n              dup3\n                /* \"#utility.yul\":2032:2066   */\n              mstore\n                /* \"#utility.yul\":1963:2072   */\n              pop\n              pop\n              jump\t// out\n                /* \"#utility.yul\":2078:2288   */\n            tag_25:\n                /* \"#utility.yul\":2165:2169   */\n              0x00\n                /* \"#utility.yul\":2203:2205   */\n              0x20\n                /* \"#utility.yul\":2192:2201   */\n              dup3\n                /* \"#utility.yul\":2188:2206   */\n              add\n                /* \"#utility.yul\":2180:2206   */\n              swap1\n              pop\n                /* \"#utility.yul\":2216:2281   */\n              tag_186\n                /* \"#utility.yul\":2278:2279   */\n              0x00\n                /* \"#utility.yul\":2267:2276   */\n              dup4\n                /* \"#utility.yul\":2263:2280   */\n              add\n                /* \"#utility.yul\":2254:2260   */\n              dup5\n                /* \"#utility.yul\":2216:2281   */\n              tag_117\n              jump\t// in\n            tag_186:\n                /* \"#utility.yul\":2078:2288   */\n              swap3\n              swap2\n              pop\n              pop\n              jump\t// out\n                /* \"#utility.yul\":2294:2412   */\n            tag_118:\n                /* \"#utility.yul\":2381:2405   */\n              tag_188\n                /* \"#utility.yul\":2399:2404   */\n              dup2\n                /* \"#utility.yul\":2381:2405   */\n              tag_109\n              jump\t// in\n            tag_188:\n                /* \"#utility.yul\":2376:2379   */\n              dup3\n                /* \"#utility.yul\":2369:2406   */\n              mstore\n                /* \"#utility.yul\":2294:2412   */\n              pop\n              pop\n              jump\t// out\n                /* \"#utility.yul\":2418:2640   */\n            tag_30:\n                /* \"#utility.yul\":2511:2515   */\n              0x00\n                /* \"#utility.yul\":2549:2551   */\n              0x20\n                /* \"#utility.yul\":2538:2547   */\n              dup3\n                /* \"#utility.yul\":2534:2552   */\n              add\n                /* \"#utility.yul\":2526:2552   */\n              swap1\n              pop\n                /* \"#utility.yul\":2562:2633   */\n              tag_190\n                /* \"#utility.yul\":2630:2631   */\n              0x00\n                /* \"#utility.yul\":2619:2628   */\n              dup4\n                /* \"#utility.yul\":2615:2632   */\n              add\n                /* \"#utility.yul\":2606:2612   */\n              dup5\n                /* \"#utility.yul\":2562:2633   */\n              tag_118\n              jump\t// in\n            tag_190:\n                /* \"#utility.yul\":2418:2640   */\n              swap3\n              swap2\n              pop\n              pop\n              jump\t// out\n                /* \"#utility.yul\":2646:2764   */\n            tag_119:\n                /* \"#utility.yul\":2733:2757   */\n              tag_192\n                /* \"#utility.yul\":2751:2756   */\n              dup2\n                /* \"#utility.yul\":2733:2757   */\n              tag_113\n              jump\t// in\n            tag_192:\n                /* \"#utility.yul\":2728:2731   */\n              dup3\n                /* \"#utility.yul\":2721:2758   */\n              mstore\n                /* \"#utility.yul\":2646:2764   */\n              pop\n              pop\n              jump\t// out\n                /* \"#utility.yul\":2770:3434   */\n            tag_35:\n                /* \"#utility.yul\":2975:2979   */\n              0x00\n                /* \"#utility.yul\":3013:3016   */\n              0xa0\n                /* \"#utility.yul\":3002:3011   */\n              dup3\n                /* \"#utility.yul\":2998:3017   */\n              add\n                /* \"#utility.yul\":2990:3017   */\n              swap1\n              pop\n                /* \"#utility.yul\":3027:3098   */\n              tag_194\n                /* \"#utility.yul\":3095:3096   */\n              0x00\n                /* \"#utility.yul\":3084:3093   */\n              dup4\n                /* \"#utility.yul\":3080:3097   */\n              add\n                /* \"#utility.yul\":3071:3077   */\n              dup9\n                /* \"#utility.yul\":3027:3098   */\n              tag_118\n              jump\t// in\n            tag_194:\n                /* \"#utility.yul\":3108:3180   */\n              tag_195\n                /* \"#utility.yul\":3176:3178   */\n              0x20\n                /* \"#utility.yul\":3165:3174   */\n              dup4\n                /* \"#utility.yul\":3161:3179   */\n              add\n                /* \"#utility.yul\":3152:3158   */\n              dup8\n                /* \"#utility.yul\":3108:3180   */\n              tag_118\n              jump\t// in\n            tag_195:\n                /* \"#utility.yul\":3190:3262   */\n              tag_196\n                /* \"#utility.yul\":3258:3260   */\n              0x40\n                /* \"#utility.yul\":3247:3256   */\n              dup4\n                /* \"#utility.yul\":3243:3261   */\n              add\n                /* \"#utility.yul\":3234:3240   */\n              dup7\n                /* \"#utility.yul\":3190:3262   */\n              tag_118\n              jump\t// in\n            tag_196:\n                /* \"#utility.yul\":3272:3344   */\n              tag_197\n                /* \"#utility.yul\":3340:3342   */\n              0x60\n                /* \"#utility.yul\":3329:3338   */\n              dup4\n                /* \"#utility.yul\":3325:3343   */\n              add\n                /* \"#utility.yul\":3316:3322   */\n              dup6\n                /* \"#utility.yul\":3272:3344   */\n              tag_118\n              jump\t// in\n            tag_197:\n                /* \"#utility.yul\":3354:3427   */\n              tag_198\n                /* \"#utility.yul\":3422:3425   */\n              0x80\n                /* \"#utility.yul\":3411:3420   */\n              dup4\n                /* \"#utility.yul\":3407:3426   */\n              add\n                /* \"#utility.yul\":3398:3404   */\n              dup5\n                /* \"#utility.yul\":3354:3427   */\n              tag_119\n              jump\t// in\n            tag_198:\n                /* \"#utility.yul\":2770:3434   */\n              swap7\n              swap6\n              pop\n              pop\n              pop\n              pop\n              pop\n              pop\n              jump\t// out\n                /* \"#utility.yul\":3440:3662   */\n            tag_40:\n                /* \"#utility.yul\":3533:3537   */\n              0x00\n                /* \"#utility.yul\":3571:3573   */\n              0x20\n                /* \"#utility.yul\":3560:3569   */\n              dup3\n                /* \"#utility.yul\":3556:3574   */\n              add\n                /* \"#utility.yul\":3548:3574   */\n              swap1\n              pop\n                /* \"#utility.yul\":3584:3655   */\n              tag_200\n                /* \"#utility.yul\":3652:3653   */\n              0x00\n                /* \"#utility.yul\":3641:3650   */\n              dup4\n                /* \"#utility.yul\":3637:3654   */\n              add\n                /* \"#utility.yul\":3628:3634   */\n              dup5\n                /* \"#utility.yul\":3584:3655   */\n              tag_119\n              jump\t// in\n            tag_200:\n                /* \"#utility.yul\":3440:3662   */\n              swap3\n              swap2\n              pop\n              pop\n              jump\t// out\n                /* \"#utility.yul\":3668:3767   */\n            tag_120:\n                /* \"#utility.yul\":3720:3726   */\n              0x00\n                /* \"#utility.yul\":3754:3759   */\n              dup2\n                /* \"#utility.yul\":3748:3760   */\n              mload\n                /* \"#utility.yul\":3738:3760   */\n              swap1\n              pop\n                /* \"#utility.yul\":3668:3767   */\n              swap2\n              swap1\n              pop\n              jump\t// out\n                /* \"#utility.yul\":3773:3942   */\n            tag_121:\n                /* \"#utility.yul\":3857:3868   */\n              0x00\n                /* \"#utility.yul\":3891:3897   */\n              dup3\n                /* \"#utility.yul\":3886:3889   */\n              dup3\n                /* \"#utility.yul\":3879:3898   */\n              mstore\n                /* \"#utility.yul\":3931:3935   */\n              0x20\n                /* \"#utility.yul\":3926:3929   */\n              dup3\n                /* \"#utility.yul\":3922:3936   */\n              add\n                /* \"#utility.yul\":3907:3936   */\n              swap1\n              pop\n                /* \"#utility.yul\":3773:3942   */\n              swap3\n              swap2\n              pop\n              pop\n              jump\t// out\n                /* \"#utility.yul\":3948:4194   */\n            tag_122:\n                /* \"#utility.yul\":4029:4030   */\n              0x00\n                /* \"#utility.yul\":4039:4152   */\n            tag_204:\n                /* \"#utility.yul\":4053:4059   */\n              dup4\n                /* \"#utility.yul\":4050:4051   */\n              dup2\n                /* \"#utility.yul\":4047:4060   */\n              lt\n                /* \"#utility.yul\":4039:4152   */\n              iszero\n              tag_206\n              jumpi\n                /* \"#utility.yul\":4138:4139   */\n              dup1\n                /* \"#utility.yul\":4133:4136   */\n              dup3\n                /* \"#utility.yul\":4129:4140   */\n              add\n                /* \"#utility.yul\":4123:4141   */\n              mload\n                /* \"#utility.yul\":4119:4120   */\n              dup2\n                /* \"#utility.yul\":4114:4117   */\n              dup5\n                /* \"#utility.yul\":4110:4121   */\n              add\n                /* \"#utility.yul\":4103:4142   */\n              mstore\n                /* \"#utility.yul\":4075:4077   */\n              0x20\n                /* \"#utility.yul\":4072:4073   */\n              dup2\n                /* \"#utility.yul\":4068:4078   */\n              add\n                /* \"#utility.yul\":4063:4078   */\n              swap1\n              pop\n                /* \"#utility.yul\":4039:4152   */\n              jump(tag_204)\n            tag_206:\n                /* \"#utility.yul\":4186:4187   */\n              0x00\n                /* \"#utility.yul\":4177:4183   */\n              dup5\n                /* \"#utility.yul\":4172:4175   */\n              dup5\n                /* \"#utility.yul\":4168:4184   */\n              add\n                /* \"#utility.yul\":4161:4188   */\n              mstore\n                /* \"#utility.yul\":4010:4194   */\n              pop\n                /* \"#utility.yul\":3948:4194   */\n              pop\n              pop\n              pop\n              jump\t// out\n                /* \"#utility.yul\":4200:4302   */\n            tag_123:\n                /* \"#utility.yul\":4241:4247   */\n              0x00\n                /* \"#utility.yul\":4292:4294   */\n              0x1f\n                /* \"#utility.yul\":4288:4295   */\n              not\n                /* \"#utility.yul\":4283:4285   */\n              0x1f\n                /* \"#utility.yul\":4276:4281   */\n              dup4\n                /* \"#utility.yul\":4272:4286   */\n              add\n                /* \"#utility.yul\":4268:4296   */\n              and\n                /* \"#utility.yul\":4258:4296   */\n              swap1\n              pop\n                /* \"#utility.yul\":4200:4302   */\n              swap2\n              swap1\n              pop\n              jump\t// out\n                /* \"#utility.yul\":4308:4685   */\n            tag_124:\n                /* \"#utility.yul\":4396:4399   */\n              0x00\n                /* \"#utility.yul\":4424:4463   */\n              tag_209\n                /* \"#utility.yul\":4457:4462   */\n              dup3\n                /* \"#utility.yul\":4424:4463   */\n              tag_120\n              jump\t// in\n            tag_209:\n                /* \"#utility.yul\":4479:4550   */\n              tag_210\n                /* \"#utility.yul\":4543:4549   */\n              dup2\n                /* \"#utility.yul\":4538:4541   */\n              dup6\n                /* \"#utility.yul\":4479:4550   */\n              tag_121\n              jump\t// in\n            tag_210:\n                /* \"#utility.yul\":4472:4550   */\n              swap4\n              pop\n                /* \"#utility.yul\":4559:4624   */\n              tag_211\n                /* \"#utility.yul\":4617:4623   */\n              dup2\n                /* \"#utility.yul\":4612:4615   */\n              dup6\n                /* \"#utility.yul\":4605:4609   */\n              0x20\n                /* \"#utility.yul\":4598:4603   */\n              dup7\n                /* \"#utility.yul\":4594:4610   */\n              add\n                /* \"#utility.yul\":4559:4624   */\n              tag_122\n              jump\t// in\n            tag_211:\n                /* \"#utility.yul\":4649:4678   */\n              tag_212\n                /* \"#utility.yul\":4671:4677   */\n              dup2\n                /* \"#utility.yul\":4649:4678   */\n              tag_123\n              jump\t// in\n            tag_212:\n                /* \"#utility.yul\":4644:4647   */\n              dup5\n                /* \"#utility.yul\":4640:4679   */\n              add\n                /* \"#utility.yul\":4633:4679   */\n              swap2\n              pop\n                /* \"#utility.yul\":4400:4685   */\n              pop\n                /* \"#utility.yul\":4308:4685   */\n              swap3\n              swap2\n              pop\n              pop\n              jump\t// out\n                /* \"#utility.yul\":4691:4795   */\n            tag_125:\n                /* \"#utility.yul\":4736:4743   */\n              0x00\n                /* \"#utility.yul\":4765:4789   */\n              tag_214\n                /* \"#utility.yul\":4783:4788   */\n              dup3\n                /* \"#utility.yul\":4765:4789   */\n              tag_112\n              jump\t// in\n            tag_214:\n                /* \"#utility.yul\":4754:4789   */\n              swap1\n              pop\n                /* \"#utility.yul\":4691:4795   */\n              swap2\n              swap1\n              pop\n              jump\t// out\n                /* \"#utility.yul\":4801:4943   */\n            tag_126:\n                /* \"#utility.yul\":4904:4936   */\n              tag_216\n                /* \"#utility.yul\":4930:4935   */\n              dup2\n                /* \"#utility.yul\":4904:4936   */\n              tag_125\n              jump\t// in\n            tag_216:\n                /* \"#utility.yul\":4899:4902   */\n              dup3\n                /* \"#utility.yul\":4892:4937   */\n              mstore\n                /* \"#utility.yul\":4801:4943   */\n              pop\n              pop\n              jump\t// out\n                /* \"#utility.yul\":4949:5724   */\n            tag_46:\n                /* \"#utility.yul\":5184:5188   */\n              0x00\n                /* \"#utility.yul\":5222:5225   */\n              0xa0\n                /* \"#utility.yul\":5211:5220   */\n              dup3\n                /* \"#utility.yul\":5207:5226   */\n              add\n                /* \"#utility.yul\":5199:5226   */\n              swap1\n              pop\n                /* \"#utility.yul\":5272:5281   */\n              dup2\n                /* \"#utility.yul\":5266:5270   */\n              dup2\n                /* \"#utility.yul\":5262:5282   */\n              sub\n                /* \"#utility.yul\":5258:5259   */\n              0x00\n                /* \"#utility.yul\":5247:5256   */\n              dup4\n                /* \"#utility.yul\":5243:5260   */\n              add\n                /* \"#utility.yul\":5236:5283   */\n              mstore\n                /* \"#utility.yul\":5300:5378   */\n              tag_218\n                /* \"#utility.yul\":5373:5377   */\n              dup2\n                /* \"#utility.yul\":5364:5370   */\n              dup9\n                /* \"#utility.yul\":5300:5378   */\n              tag_124\n              jump\t// in\n            tag_218:\n                /* \"#utility.yul\":5292:5378   */\n              swap1\n              pop\n                /* \"#utility.yul\":5388:5460   */\n              tag_219\n                /* \"#utility.yul\":5456:5458   */\n              0x20\n                /* \"#utility.yul\":5445:5454   */\n              dup4\n                /* \"#utility.yul\":5441:5459   */\n              add\n                /* \"#utility.yul\":5432:5438   */\n              dup8\n                /* \"#utility.yul\":5388:5460   */\n              tag_118\n              jump\t// in\n            tag_219:\n                /* \"#utility.yul\":5470:5558   */\n              tag_220\n                /* \"#utility.yul\":5554:5556   */\n              0x40\n                /* \"#utility.yul\":5543:5552   */\n              dup4\n                /* \"#utility.yul\":5539:5557   */\n              add\n                /* \"#utility.yul\":5530:5536   */\n              dup7\n                /* \"#utility.yul\":5470:5558   */\n              tag_126\n              jump\t// in\n            tag_220:\n                /* \"#utility.yul\":5568:5634   */\n              tag_221\n                /* \"#utility.yul\":5630:5632   */\n              0x60\n                /* \"#utility.yul\":5619:5628   */\n              dup4\n                /* \"#utility.yul\":5615:5633   */\n              add\n                /* \"#utility.yul\":5606:5612   */\n              dup6\n                /* \"#utility.yul\":5568:5634   */\n              tag_117\n              jump\t// in\n            tag_221:\n                /* \"#utility.yul\":5644:5717   */\n              tag_222\n                /* \"#utility.yul\":5712:5715   */\n              0x80\n                /* \"#utility.yul\":5701:5710   */\n              dup4\n                /* \"#utility.yul\":5697:5716   */\n              add\n                /* \"#utility.yul\":5688:5694   */\n              dup5\n                /* \"#utility.yul\":5644:5717   */\n              tag_118\n              jump\t// in\n            tag_222:\n                /* \"#utility.yul\":4949:5724   */\n              swap7\n              swap6\n              pop\n              pop\n              pop\n              pop\n              pop\n              pop\n              jump\t// out\n                /* \"#utility.yul\":5730:5847   */\n            tag_127:\n                /* \"#utility.yul\":5839:5840   */\n              0x00\n                /* \"#utility.yul\":5836:5837   */\n              dup1\n                /* \"#utility.yul\":5829:5841   */\n              revert\n                /* \"#utility.yul\":5853:5970   */\n            tag_128:\n                /* \"#utility.yul\":5962:5963   */\n              0x00\n                /* \"#utility.yul\":5959:5960   */\n              dup1\n                /* \"#utility.yul\":5952:5964   */\n              revert\n                /* \"#utility.yul\":5976:6156   */\n            tag_129:\n                /* \"#utility.yul\":6024:6101   */\n              0x4e487b7100000000000000000000000000000000000000000000000000000000\n                /* \"#utility.yul\":6021:6022   */\n              0x00\n                /* \"#utility.yul\":6014:6102   */\n              mstore\n                /* \"#utility.yul\":6121:6125   */\n              0x41\n                /* \"#utility.yul\":6118:6119   */\n              0x04\n                /* \"#utility.yul\":6111:6126   */\n              mstore\n                /* \"#utility.yul\":6145:6149   */\n              0x24\n                /* \"#utility.yul\":6142:6143   */\n              0x00\n                /* \"#utility.yul\":6135:6150   */\n              revert\n                /* \"#utility.yul\":6162:6443   */\n            tag_130:\n                /* \"#utility.yul\":6245:6272   */\n              tag_227\n                /* \"#utility.yul\":6267:6271   */\n              dup3\n                /* \"#utility.yul\":6245:6272   */\n              tag_123\n              jump\t// in\n            tag_227:\n                /* \"#utility.yul\":6237:6243   */\n              dup2\n                /* \"#utility.yul\":6233:6273   */\n              add\n                /* \"#utility.yul\":6375:6381   */\n              dup2\n                /* \"#utility.yul\":6363:6373   */\n              dup2\n                /* \"#utility.yul\":6360:6382   */\n              lt\n                /* \"#utility.yul\":6339:6357   */\n              0xffffffffffffffff\n                /* \"#utility.yul\":6327:6337   */\n              dup3\n                /* \"#utility.yul\":6324:6358   */\n              gt\n                /* \"#utility.yul\":6321:6383   */\n              or\n                /* \"#utility.yul\":6318:6406   */\n              iszero\n              tag_228\n              jumpi\n                /* \"#utility.yul\":6386:6404   */\n              tag_229\n              tag_129\n              jump\t// in\n            tag_229:\n                /* \"#utility.yul\":6318:6406   */\n            tag_228:\n                /* \"#utility.yul\":6426:6436   */\n              dup1\n                /* \"#utility.yul\":6422:6424   */\n              0x40\n                /* \"#utility.yul\":6415:6437   */\n              mstore\n                /* \"#utility.yul\":6205:6443   */\n              pop\n                /* \"#utility.yul\":6162:6443   */\n              pop\n              pop\n              jump\t// out\n                /* \"#utility.yul\":6449:6578   */\n            tag_131:\n                /* \"#utility.yul\":6483:6489   */\n              0x00\n                /* \"#utility.yul\":6510:6530   */\n              tag_231\n              tag_106\n              jump\t// in\n            tag_231:\n                /* \"#utility.yul\":6500:6530   */\n              swap1\n              pop\n                /* \"#utility.yul\":6539:6572   */\n              tag_232\n                /* \"#utility.yul\":6567:6571   */\n              dup3\n                /* \"#utility.yul\":6559:6565   */\n              dup3\n                /* \"#utility.yul\":6539:6572   */\n              tag_130\n              jump\t// in\n            tag_232:\n                /* \"#utility.yul\":6449:6578   */\n              swap2\n              swap1\n              pop\n              jump\t// out\n                /* \"#utility.yul\":6584:6892   */\n            tag_132:\n                /* \"#utility.yul\":6646:6650   */\n              0x00\n                /* \"#utility.yul\":6736:6754   */\n              0xffffffffffffffff\n                /* \"#utility.yul\":6728:6734   */\n              dup3\n                /* \"#utility.yul\":6725:6755   */\n              gt\n                /* \"#utility.yul\":6722:6778   */\n              iszero\n              tag_234\n              jumpi\n                /* \"#utility.yul\":6758:6776   */\n              tag_235\n              tag_129\n              jump\t// in\n            tag_235:\n                /* \"#utility.yul\":6722:6778   */\n            tag_234:\n                /* \"#utility.yul\":6796:6825   */\n              tag_236\n                /* \"#utility.yul\":6818:6824   */\n              dup3\n                /* \"#utility.yul\":6796:6825   */\n              tag_123\n              jump\t// in\n            tag_236:\n                /* \"#utility.yul\":6788:6825   */\n              swap1\n              pop\n                /* \"#utility.yul\":6880:6884   */\n              0x20\n                /* \"#utility.yul\":6874:6878   */\n              dup2\n                /* \"#utility.yul\":6870:6885   */\n              add\n                /* \"#utility.yul\":6862:6885   */\n              swap1\n              pop\n                /* \"#utility.yul\":6584:6892   */\n              swap2\n              swap1\n              pop\n              jump\t// out\n                /* \"#utility.yul\":6898:7044   */\n            tag_133:\n                /* \"#utility.yul\":6995:7001   */\n              dup3\n                /* \"#utility.yul\":6990:6993   */\n              dup2\n                /* \"#utility.yul\":6985:6988   */\n              dup4\n                /* \"#utility.yul\":6972:7002   */\n              calldatacopy\n                /* \"#utility.yul\":7036:7037   */\n              0x00\n                /* \"#utility.yul\":7027:7033   */\n              dup4\n                /* \"#utility.yul\":7022:7025   */\n              dup4\n                /* \"#utility.yul\":7018:7034   */\n              add\n                /* \"#utility.yul\":7011:7038   */\n              mstore\n                /* \"#utility.yul\":6898:7044   */\n              pop\n              pop\n              pop\n              jump\t// out\n                /* \"#utility.yul\":7050:7475   */\n            tag_134:\n                /* \"#utility.yul\":7128:7133   */\n              0x00\n                /* \"#utility.yul\":7153:7219   */\n              tag_239\n                /* \"#utility.yul\":7169:7218   */\n              tag_240\n                /* \"#utility.yul\":7211:7217   */\n              dup5\n                /* \"#utility.yul\":7169:7218   */\n              tag_132\n              jump\t// in\n            tag_240:\n                /* \"#utility.yul\":7153:7219   */\n              tag_131\n              jump\t// in\n            tag_239:\n                /* \"#utility.yul\":7144:7219   */\n              swap1\n              pop\n                /* \"#utility.yul\":7242:7248   */\n              dup3\n                /* \"#utility.yul\":7235:7240   */\n              dup2\n                /* \"#utility.yul\":7228:7249   */\n              mstore\n                /* \"#utility.yul\":7280:7284   */\n              0x20\n                /* \"#utility.yul\":7273:7278   */\n              dup2\n                /* \"#utility.yul\":7269:7285   */\n              add\n                /* \"#utility.yul\":7318:7321   */\n              dup5\n                /* \"#utility.yul\":7309:7315   */\n              dup5\n                /* \"#utility.yul\":7304:7307   */\n              dup5\n                /* \"#utility.yul\":7300:7316   */\n              add\n                /* \"#utility.yul\":7297:7322   */\n              gt\n                /* \"#utility.yul\":7294:7406   */\n              iszero\n              tag_241\n              jumpi\n                /* \"#utility.yul\":7325:7404   */\n              tag_242\n              tag_128\n              jump\t// in\n            tag_242:\n                /* \"#utility.yul\":7294:7406   */\n            tag_241:\n                /* \"#utility.yul\":7415:7469   */\n              tag_243\n                /* \"#utility.yul\":7462:7468   */\n              dup5\n                /* \"#utility.yul\":7457:7460   */\n              dup3\n                /* \"#utility.yul\":7452:7455   */\n              dup6\n                /* \"#utility.yul\":7415:7469   */\n              tag_133\n              jump\t// in\n            tag_243:\n                /* \"#utility.yul\":7134:7475   */\n              pop\n                /* \"#utility.yul\":7050:7475   */\n              swap4\n              swap3\n              pop\n              pop\n              pop\n              jump\t// out\n                /* \"#utility.yul\":7495:7835   */\n            tag_135:\n                /* \"#utility.yul\":7551:7556   */\n              0x00\n                /* \"#utility.yul\":7600:7603   */\n              dup3\n                /* \"#utility.yul\":7593:7597   */\n              0x1f\n                /* \"#utility.yul\":7585:7591   */\n              dup4\n                /* \"#utility.yul\":7581:7598   */\n              add\n                /* \"#utility.yul\":7577:7604   */\n              slt\n                /* \"#utility.yul\":7567:7689   */\n              tag_245\n              jumpi\n                /* \"#utility.yul\":7608:7687   */\n              tag_246\n              tag_127\n              jump\t// in\n            tag_246:\n                /* \"#utility.yul\":7567:7689   */\n            tag_245:\n                /* \"#utility.yul\":7725:7731   */\n              dup2\n                /* \"#utility.yul\":7712:7732   */\n              calldataload\n                /* \"#utility.yul\":7750:7829   */\n              tag_247\n                /* \"#utility.yul\":7825:7828   */\n              dup5\n                /* \"#utility.yul\":7817:7823   */\n              dup3\n                /* \"#utility.yul\":7810:7814   */\n              0x20\n                /* \"#utility.yul\":7802:7808   */\n              dup7\n                /* \"#utility.yul\":7798:7815   */\n              add\n                /* \"#utility.yul\":7750:7829   */\n              tag_134\n              jump\t// in\n            tag_247:\n                /* \"#utility.yul\":7741:7829   */\n              swap2\n              pop\n                /* \"#utility.yul\":7557:7835   */\n              pop\n                /* \"#utility.yul\":7495:7835   */\n              swap3\n              swap2\n              pop\n              pop\n              jump\t// out\n                /* \"#utility.yul\":7841:7979   */\n            tag_136:\n                /* \"#utility.yul\":7922:7954   */\n              tag_249\n                /* \"#utility.yul\":7948:7953   */\n              dup2\n                /* \"#utility.yul\":7922:7954   */\n              tag_125\n              jump\t// in\n            tag_249:\n                /* \"#utility.yul\":7915:7920   */\n              dup2\n                /* \"#utility.yul\":7912:7955   */\n              eq\n                /* \"#utility.yul\":7902:7973   */\n              tag_250\n              jumpi\n                /* \"#utility.yul\":7969:7970   */\n              0x00\n                /* \"#utility.yul\":7966:7967   */\n              dup1\n                /* \"#utility.yul\":7959:7971   */\n              revert\n                /* \"#utility.yul\":7902:7973   */\n            tag_250:\n                /* \"#utility.yul\":7841:7979   */\n              pop\n              jump\t// out\n                /* \"#utility.yul\":7985:8140   */\n            tag_137:\n                /* \"#utility.yul\":8039:8044   */\n              0x00\n                /* \"#utility.yul\":8077:8083   */\n              dup2\n                /* \"#utility.yul\":8064:8084   */\n              calldataload\n                /* \"#utility.yul\":8055:8084   */\n              swap1\n              pop\n                /* \"#utility.yul\":8093:8134   */\n              tag_252\n                /* \"#utility.yul\":8128:8133   */\n              dup2\n                /* \"#utility.yul\":8093:8134   */\n              tag_136\n              jump\t// in\n            tag_252:\n                /* \"#utility.yul\":7985:8140   */\n              swap3\n              swap2\n              pop\n              pop\n              jump\t// out\n                /* \"#utility.yul\":8146:8961   */\n            tag_54:\n                /* \"#utility.yul\":8241:8247   */\n              0x00\n                /* \"#utility.yul\":8249:8255   */\n              dup1\n                /* \"#utility.yul\":8257:8263   */\n              0x00\n                /* \"#utility.yul\":8306:8308   */\n              0x60\n                /* \"#utility.yul\":8294:8303   */\n              dup5\n                /* \"#utility.yul\":8285:8292   */\n              dup7\n                /* \"#utility.yul\":8281:8304   */\n              sub\n                /* \"#utility.yul\":8277:8309   */\n              slt\n                /* \"#utility.yul\":8274:8393   */\n              iszero\n              tag_254\n              jumpi\n                /* \"#utility.yul\":8312:8391   */\n              tag_255\n              tag_107\n              jump\t// in\n            tag_255:\n                /* \"#utility.yul\":8274:8393   */\n            tag_254:\n                /* \"#utility.yul\":8460:8461   */\n              0x00\n                /* \"#utility.yul\":8449:8458   */\n              dup5\n                /* \"#utility.yul\":8445:8462   */\n              add\n                /* \"#utility.yul\":8432:8463   */\n              calldataload\n                /* \"#utility.yul\":8490:8508   */\n              0xffffffffffffffff\n                /* \"#utility.yul\":8482:8488   */\n              dup2\n                /* \"#utility.yul\":8479:8509   */\n              gt\n                /* \"#utility.yul\":8476:8593   */\n              iszero\n              tag_256\n              jumpi\n                /* \"#utility.yul\":8512:8591   */\n              tag_257\n              tag_108\n              jump\t// in\n            tag_257:\n                /* \"#utility.yul\":8476:8593   */\n            tag_256:\n                /* \"#utility.yul\":8617:8680   */\n              tag_258\n                /* \"#utility.yul\":8672:8679   */\n              dup7\n                /* \"#utility.yul\":8663:8669   */\n              dup3\n                /* \"#utility.yul\":8652:8661   */\n              dup8\n                /* \"#utility.yul\":8648:8670   */\n              add\n                /* \"#utility.yul\":8617:8680   */\n              tag_135\n              jump\t// in\n            tag_258:\n                /* \"#utility.yul\":8607:8680   */\n              swap4\n              pop\n                /* \"#utility.yul\":8403:8690   */\n              pop\n                /* \"#utility.yul\":8729:8731   */\n              0x20\n                /* \"#utility.yul\":8755:8808   */\n              tag_259\n                /* \"#utility.yul\":8800:8807   */\n              dup7\n                /* \"#utility.yul\":8791:8797   */\n              dup3\n                /* \"#utility.yul\":8780:8789   */\n              dup8\n                /* \"#utility.yul\":8776:8798   */\n              add\n                /* \"#utility.yul\":8755:8808   */\n              tag_111\n              jump\t// in\n            tag_259:\n                /* \"#utility.yul\":8745:8808   */\n              swap3\n              pop\n                /* \"#utility.yul\":8700:8818   */\n              pop\n                /* \"#utility.yul\":8857:8859   */\n              0x40\n                /* \"#utility.yul\":8883:8944   */\n              tag_260\n                /* \"#utility.yul\":8936:8943   */\n              dup7\n                /* \"#utility.yul\":8927:8933   */\n              dup3\n                /* \"#utility.yul\":8916:8925   */\n              dup8\n                /* \"#utility.yul\":8912:8934   */\n              add\n                /* \"#utility.yul\":8883:8944   */\n              tag_137\n              jump\t// in\n            tag_260:\n                /* \"#utility.yul\":8873:8944   */\n              swap2\n              pop\n                /* \"#utility.yul\":8828:8954   */\n              pop\n                /* \"#utility.yul\":8146:8961   */\n              swap3\n              pop\n              swap3\n              pop\n              swap3\n              jump\t// out\n                /* \"#utility.yul\":8967:9147   */\n            tag_71:\n                /* \"#utility.yul\":9015:9092   */\n              0x4e487b7100000000000000000000000000000000000000000000000000000000\n                /* \"#utility.yul\":9012:9013   */\n              0x00\n                /* \"#utility.yul\":9005:9093   */\n              mstore\n                /* \"#utility.yul\":9112:9116   */\n              0x32\n                /* \"#utility.yul\":9109:9110   */\n              0x04\n                /* \"#utility.yul\":9102:9117   */\n              mstore\n                /* \"#utility.yul\":9136:9140   */\n              0x24\n                /* \"#utility.yul\":9133:9134   */\n              0x00\n                /* \"#utility.yul\":9126:9141   */\n              revert\n                /* \"#utility.yul\":9153:9333   */\n            tag_138:\n                /* \"#utility.yul\":9201:9278   */\n              0x4e487b7100000000000000000000000000000000000000000000000000000000\n                /* \"#utility.yul\":9198:9199   */\n              0x00\n                /* \"#utility.yul\":9191:9279   */\n              mstore\n                /* \"#utility.yul\":9298:9302   */\n              0x12\n                /* \"#utility.yul\":9295:9296   */\n              0x04\n                /* \"#utility.yul\":9288:9303   */\n              mstore\n                /* \"#utility.yul\":9322:9326   */\n              0x24\n                /* \"#utility.yul\":9319:9320   */\n              0x00\n                /* \"#utility.yul\":9312:9327   */\n              revert\n                /* \"#utility.yul\":9339:9519   */\n            tag_139:\n                /* \"#utility.yul\":9387:9464   */\n              0x4e487b7100000000000000000000000000000000000000000000000000000000\n                /* \"#utility.yul\":9384:9385   */\n              0x00\n                /* \"#utility.yul\":9377:9465   */\n              mstore\n                /* \"#utility.yul\":9484:9488   */\n              0x11\n                /* \"#utility.yul\":9481:9482   */\n              0x04\n                /* \"#utility.yul\":9474:9489   */\n              mstore\n                /* \"#utility.yul\":9508:9512   */\n              0x24\n                /* \"#utility.yul\":9505:9506   */\n              0x00\n                /* \"#utility.yul\":9498:9513   */\n              revert\n                /* \"#utility.yul\":9525:9710   */\n            tag_74:\n                /* \"#utility.yul\":9565:9566   */\n              0x00\n                /* \"#utility.yul\":9582:9602   */\n              tag_265\n                /* \"#utility.yul\":9600:9601   */\n              dup3\n                /* \"#utility.yul\":9582:9602   */\n              tag_109\n              jump\t// in\n            tag_265:\n                /* \"#utility.yul\":9577:9602   */\n              swap2\n              pop\n                /* \"#utility.yul\":9616:9636   */\n              tag_266\n                /* \"#utility.yul\":9634:9635   */\n              dup4\n                /* \"#utility.yul\":9616:9636   */\n              tag_109\n              jump\t// in\n            tag_266:\n                /* \"#utility.yul\":9611:9636   */\n              swap3\n              pop\n                /* \"#utility.yul\":9655:9656   */\n              dup3\n                /* \"#utility.yul\":9645:9680   */\n              tag_267\n              jumpi\n                /* \"#utility.yul\":9660:9678   */\n              tag_268\n              tag_138\n              jump\t// in\n            tag_268:\n                /* \"#utility.yul\":9645:9680   */\n            tag_267:\n                /* \"#utility.yul\":9702:9703   */\n              dup3\n                /* \"#utility.yul\":9699:9700   */\n              dup3\n                /* \"#utility.yul\":9695:9704   */\n              div\n                /* \"#utility.yul\":9690:9704   */\n              swap1\n              pop\n                /* \"#utility.yul\":9525:9710   */\n              swap3\n              swap2\n              pop\n              pop\n              jump\t// out\n                /* \"#utility.yul\":9716:9896   */\n            tag_140:\n                /* \"#utility.yul\":9764:9841   */\n              0x4e487b7100000000000000000000000000000000000000000000000000000000\n                /* \"#utility.yul\":9761:9762   */\n              0x00\n                /* \"#utility.yul\":9754:9842   */\n              mstore\n                /* \"#utility.yul\":9861:9865   */\n              0x22\n                /* \"#utility.yul\":9858:9859   */\n              0x04\n                /* \"#utility.yul\":9851:9866   */\n              mstore\n                /* \"#utility.yul\":9885:9889   */\n              0x24\n                /* \"#utility.yul\":9882:9883   */\n              0x00\n                /* \"#utility.yul\":9875:9890   */\n              revert\n                /* \"#utility.yul\":9902:10222   */\n            tag_84:\n                /* \"#utility.yul\":9946:9952   */\n              0x00\n                /* \"#utility.yul\":9983:9984   */\n              0x02\n                /* \"#utility.yul\":9977:9981   */\n              dup3\n                /* \"#utility.yul\":9973:9985   */\n              div\n                /* \"#utility.yul\":9963:9985   */\n              swap1\n              pop\n                /* \"#utility.yul\":10030:10031   */\n              0x01\n                /* \"#utility.yul\":10024:10028   */\n              dup3\n                /* \"#utility.yul\":10020:10032   */\n              and\n                /* \"#utility.yul\":10051:10069   */\n              dup1\n                /* \"#utility.yul\":10041:10122   */\n              tag_271\n              jumpi\n                /* \"#utility.yul\":10107:10111   */\n              0x7f\n                /* \"#utility.yul\":10099:10105   */\n              dup3\n                /* \"#utility.yul\":10095:10112   */\n              and\n                /* \"#utility.yul\":10085:10112   */\n              swap2\n              pop\n                /* \"#utility.yul\":10041:10122   */\n            tag_271:\n                /* \"#utility.yul\":10169:10171   */\n              0x20\n                /* \"#utility.yul\":10161:10167   */\n              dup3\n                /* \"#utility.yul\":10158:10172   */\n              lt\n                /* \"#utility.yul\":10138:10156   */\n              dup2\n                /* \"#utility.yul\":10135:10173   */\n              sub\n                /* \"#utility.yul\":10132:10216   */\n              tag_272\n              jumpi\n                /* \"#utility.yul\":10188:10206   */\n              tag_273\n              tag_140\n              jump\t// in\n            tag_273:\n                /* \"#utility.yul\":10132:10216   */\n            tag_272:\n                /* \"#utility.yul\":9953:10222   */\n              pop\n                /* \"#utility.yul\":9902:10222   */\n              swap2\n              swap1\n              pop\n              jump\t// out\n                /* \"#utility.yul\":10228:10369   */\n            tag_141:\n                /* \"#utility.yul\":10277:10281   */\n              0x00\n                /* \"#utility.yul\":10300:10303   */\n              dup2\n                /* \"#utility.yul\":10292:10303   */\n              swap1\n              pop\n                /* \"#utility.yul\":10323:10326   */\n              dup2\n                /* \"#utility.yul\":10320:10321   */\n              0x00\n                /* \"#utility.yul\":10313:10327   */\n              mstore\n                /* \"#utility.yul\":10357:10361   */\n              0x20\n                /* \"#utility.yul\":10354:10355   */\n              0x00\n                /* \"#utility.yul\":10344:10362   */\n              keccak256\n                /* \"#utility.yul\":10336:10362   */\n              swap1\n              pop\n                /* \"#utility.yul\":10228:10369   */\n              swap2\n              swap1\n              pop\n              jump\t// out\n                /* \"#utility.yul\":10375:10468   */\n            tag_142:\n                /* \"#utility.yul\":10412:10418   */\n              0x00\n                /* \"#utility.yul\":10459:10461   */\n              0x20\n                /* \"#utility.yul\":10454:10456   */\n              0x1f\n                /* \"#utility.yul\":10447:10452   */\n              dup4\n                /* \"#utility.yul\":10443:10457   */\n              add\n                /* \"#utility.yul\":10439:10462   */\n              div\n                /* \"#utility.yul\":10429:10462   */\n              swap1\n              pop\n                /* \"#utility.yul\":10375:10468   */\n              swap2\n              swap1\n              pop\n              jump\t// out\n                /* \"#utility.yul\":10474:10581   */\n            tag_143:\n                /* \"#utility.yul\":10518:10526   */\n              0x00\n                /* \"#utility.yul\":10568:10573   */\n              dup3\n                /* \"#utility.yul\":10562:10566   */\n              dup3\n                /* \"#utility.yul\":10558:10574   */\n              shl\n                /* \"#utility.yul\":10537:10574   */\n              swap1\n              pop\n                /* \"#utility.yul\":10474:10581   */\n              swap3\n              swap2\n              pop\n              pop\n              jump\t// out\n                /* \"#utility.yul\":10587:10980   */\n            tag_144:\n                /* \"#utility.yul\":10656:10662   */\n              0x00\n                /* \"#utility.yul\":10706:10707   */\n              0x08\n                /* \"#utility.yul\":10694:10704   */\n              dup4\n                /* \"#utility.yul\":10690:10708   */\n              mul\n                /* \"#utility.yul\":10729:10826   */\n              tag_278\n                /* \"#utility.yul\":10759:10825   */\n              0xffffffffffffffffffffffffffffffffffffffffffffffffffffffffffffffff\n                /* \"#utility.yul\":10748:10757   */\n              dup3\n                /* \"#utility.yul\":10729:10826   */\n              tag_143\n              jump\t// in\n            tag_278:\n                /* \"#utility.yul\":10847:10886   */\n              tag_279\n                /* \"#utility.yul\":10877:10885   */\n              dup7\n                /* \"#utility.yul\":10866:10875   */\n              dup4\n                /* \"#utility.yul\":10847:10886   */\n              tag_143\n              jump\t// in\n            tag_279:\n                /* \"#utility.yul\":10835:10886   */\n              swap6\n              pop\n                /* \"#utility.yul\":10919:10923   */\n              dup1\n                /* \"#utility.yul\":10915:10924   */\n              not\n                /* \"#utility.yul\":10908:10913   */\n              dup5\n                /* \"#utility.yul\":10904:10925   */\n              and\n                /* \"#utility.yul\":10895:10925   */\n              swap4\n              pop\n                /* \"#utility.yul\":10968:10972   */\n              dup1\n                /* \"#utility.yul\":10958:10966   */\n              dup7\n                /* \"#utility.yul\":10954:10973   */\n              and\n                /* \"#utility.yul\":10947:10952   */\n              dup5\n                /* \"#utility.yul\":10944:10974   */\n              or\n                /* \"#utility.yul\":10934:10974   */\n              swap3\n              pop\n                /* \"#utility.yul\":10663:10980   */\n              pop\n              pop\n                /* \"#utility.yul\":10587:10980   */\n              swap4\n              swap3\n              pop\n              pop\n              pop\n              jump\t// out\n                /* \"#utility.yul\":10986:11046   */\n            tag_145:\n                /* \"#utility.yul\":11014:11017   */\n              0x00\n                /* \"#utility.yul\":11035:11040   */\n              dup2\n                /* \"#utility.yul\":11028:11040   */\n              swap1\n              pop\n                /* \"#utility.yul\":10986:11046   */\n              swap2\n              swap1\n              pop\n              jump\t// out\n                /* \"#utility.yul\":11052:11194   */\n            tag_146:\n                /* \"#utility.yul\":11102:11111   */\n              0x00\n                /* \"#utility.yul\":11135:11188   */\n              tag_282\n                /* \"#utility.yul\":11153:11187   */\n              tag_283\n                /* \"#utility.yul\":11162:11186   */\n              tag_284\n                /* \"#utility.yul\":11180:11185   */\n              dup5\n                /* \"#utility.yul\":11162:11186   */\n              tag_109\n              jump\t// in\n            tag_284:\n                /* \"#utility.yul\":11153:11187   */\n              tag_145\n              jump\t// in\n            tag_283:\n                /* \"#utility.yul\":11135:11188   */\n              tag_109\n              jump\t// in\n            tag_282:\n                /* \"#utility.yul\":11122:11188   */\n              swap1\n              pop\n                /* \"#utility.yul\":11052:11194   */\n              swap2\n              swap1\n              pop\n              jump\t// out\n                /* \"#utility.yul\":11200:11275   */\n            tag_147:\n                /* \"#utility.yul\":11243:11246   */\n              0x00\n                /* \"#utility.yul\":11264:11269   */\n              dup2\n                /* \"#utility.yul\":11257:11269   */\n              swap1\n              pop\n                /* \"#utility.yul\":11200:11275   */\n              swap2\n              swap1\n              pop\n              jump\t// out\n                /* \"#utility.yul\":11281:11550   */\n            tag_148:\n                /* \"#utility.yul\":11391:11430   */\n              tag_287\n                /* \"#utility.yul\":11422:11429   */\n              dup4\n                /* \"#utility.yul\":11391:11430   */\n              tag_146\n              jump\t// in\n            tag_287:\n                /* \"#utility.yul\":11452:11543   */\n              tag_288\n                /* \"#utility.yul\":11501:11542   */\n              tag_289\n                /* \"#utility.yul\":11525:11541   */\n              dup3\n                /* \"#utility.yul\":11501:11542   */\n              tag_147\n              jump\t// in\n            tag_289:\n                /* \"#utility.yul\":11493:11499   */\n              dup5\n                /* \"#utility.yul\":11486:11490   */\n              dup5\n                /* \"#utility.yul\":11480:11491   */\n              sload\n                /* \"#utility.yul\":11452:11543   */\n              tag_144\n              jump\t// in\n            tag_288:\n                /* \"#utility.yul\":11446:11450   */\n              dup3\n                /* \"#utility.yul\":11439:11544   */\n              sstore\n                /* \"#utility.yul\":11357:11550   */\n              pop\n                /* \"#utility.yul\":11281:11550   */\n              pop\n              pop\n              pop\n              jump\t// out\n                /* \"#utility.yul\":11556:11629   */\n            tag_149:\n                /* \"#utility.yul\":11601:11604   */\n              0x00\n                /* \"#utility.yul\":11556:11629   */\n              swap1\n              jump\t// out\n                /* \"#utility.yul\":11635:11824   */\n            tag_150:\n                /* \"#utility.yul\":11712:11744   */\n              tag_292\n              tag_149\n              jump\t// in\n            tag_292:\n                /* \"#utility.yul\":11753:11818   */\n              tag_293\n                /* \"#utility.yul\":11811:11817   */\n              dup2\n                /* \"#utility.yul\":11803:11809   */\n              dup5\n                /* \"#utility.yul\":11797:11801   */\n              dup5\n                /* \"#utility.yul\":11753:11818   */\n              tag_148\n              jump\t// in\n            tag_293:\n                /* \"#utility.yul\":11688:11824   */\n              pop\n                /* \"#utility.yul\":11635:11824   */\n              pop\n              pop\n              jump\t// out\n                /* \"#utility.yul\":11830:12016   */\n            tag_151:\n                /* \"#utility.yul\":11890:12010   */\n            tag_295:\n                /* \"#utility.yul\":11907:11910   */\n              dup2\n                /* \"#utility.yul\":11900:11905   */\n              dup2\n                /* \"#utility.yul\":11897:11911   */\n              lt\n                /* \"#utility.yul\":11890:12010   */\n              iszero\n              tag_297\n              jumpi\n                /* \"#utility.yul\":11961:12000   */\n              tag_298\n                /* \"#utility.yul\":11998:11999   */\n              0x00\n                /* \"#utility.yul\":11991:11996   */\n              dup3\n                /* \"#utility.yul\":11961:12000   */\n              tag_150\n              jump\t// in\n            tag_298:\n                /* \"#utility.yul\":11934:11935   */\n              0x01\n                /* \"#utility.yul\":11927:11932   */\n              dup2\n                /* \"#utility.yul\":11923:11936   */\n              add\n                /* \"#utility.yul\":11914:11936   */\n              swap1\n              pop\n                /* \"#utility.yul\":11890:12010   */\n              jump(tag_295)\n            tag_297:\n                /* \"#utility.yul\":11830:12016   */\n              pop\n              pop\n              jump\t// out\n                /* \"#utility.yul\":12022:12565   */\n            tag_152:\n                /* \"#utility.yul\":12123:12125   */\n              0x1f\n                /* \"#utility.yul\":12118:12121   */\n              dup3\n                /* \"#utility.yul\":12115:12126   */\n              gt\n                /* \"#utility.yul\":12112:12558   */\n              iszero\n              tag_300\n              jumpi\n                /* \"#utility.yul\":12157:12195   */\n              tag_301\n                /* \"#utility.yul\":12189:12194   */\n              dup2\n                /* \"#utility.yul\":12157:12195   */\n              tag_141\n              jump\t// in\n            tag_301:\n                /* \"#utility.yul\":12241:12270   */\n              tag_302\n                /* \"#utility.yul\":12259:12269   */\n              dup5\n                /* \"#utility.yul\":12241:12270   */\n              tag_142\n              jump\t// in\n            tag_302:\n                /* \"#utility.yul\":12231:12239   */\n              dup2\n                /* \"#utility.yul\":12227:12271   */\n              add\n                /* \"#utility.yul\":12424:12426   */\n              0x20\n                /* \"#utility.yul\":12412:12422   */\n              dup6\n                /* \"#utility.yul\":12409:12427   */\n              lt\n                /* \"#utility.yul\":12406:12455   */\n              iszero\n              tag_303\n              jumpi\n                /* \"#utility.yul\":12445:12453   */\n              dup2\n                /* \"#utility.yul\":12430:12453   */\n              swap1\n              pop\n                /* \"#utility.yul\":12406:12455   */\n            tag_303:\n                /* \"#utility.yul\":12468:12548   */\n              tag_304\n                /* \"#utility.yul\":12524:12546   */\n              tag_305\n                /* \"#utility.yul\":12542:12545   */\n              dup6\n                /* \"#utility.yul\":12524:12546   */\n              tag_142\n              jump\t// in\n            tag_305:\n                /* \"#utility.yul\":12514:12522   */\n              dup4\n                /* \"#utility.yul\":12510:12547   */\n              add\n                /* \"#utility.yul\":12497:12508   */\n              dup3\n                /* \"#utility.yul\":12468:12548   */\n              tag_151\n              jump\t// in\n            tag_304:\n                /* \"#utility.yul\":12127:12558   */\n              pop\n              pop\n                /* \"#utility.yul\":12112:12558   */\n            tag_300:\n                /* \"#utility.yul\":12022:12565   */\n              pop\n              pop\n              pop\n              jump\t// out\n                /* \"#utility.yul\":12571:12688   */\n            tag_153:\n                /* \"#utility.yul\":12625:12633   */\n              0x00\n                /* \"#utility.yul\":12675:12680   */\n              dup3\n                /* \"#utility.yul\":12669:12673   */\n              dup3\n                /* \"#utility.yul\":12665:12681   */\n              shr\n                /* \"#utility.yul\":12644:12681   */\n              swap1\n              pop\n                /* \"#utility.yul\":12571:12688   */\n              swap3\n              swap2\n              pop\n              pop\n              jump\t// out\n                /* \"#utility.yul\":12694:12863   */\n            tag_154:\n                /* \"#utility.yul\":12738:12744   */\n              0x00\n                /* \"#utility.yul\":12771:12822   */\n              tag_308\n                /* \"#utility.yul\":12819:12820   */\n              0x00\n                /* \"#utility.yul\":12815:12821   */\n              not\n                /* \"#utility.yul\":12807:12812   */\n              dup5\n                /* \"#utility.yul\":12804:12805   */\n              0x08\n                /* \"#utility.yul\":12800:12813   */\n              mul\n                /* \"#utility.yul\":12771:12822   */\n              tag_153\n              jump\t// in\n            tag_308:\n                /* \"#utility.yul\":12767:12823   */\n              not\n                /* \"#utility.yul\":12852:12856   */\n              dup1\n                /* \"#utility.yul\":12846:12850   */\n              dup4\n                /* \"#utility.yul\":12842:12857   */\n              and\n                /* \"#utility.yul\":12832:12857   */\n              swap2\n              pop\n                /* \"#utility.yul\":12745:12863   */\n              pop\n                /* \"#utility.yul\":12694:12863   */\n              swap3\n              swap2\n              pop\n              pop\n              jump\t// out\n                /* \"#utility.yul\":12868:13163   */\n            tag_155:\n                /* \"#utility.yul\":12944:12948   */\n              0x00\n                /* \"#utility.yul\":13090:13119   */\n              tag_310\n                /* \"#utility.yul\":13115:13118   */\n              dup4\n                /* \"#utility.yul\":13109:13113   */\n              dup4\n                /* \"#utility.yul\":13090:13119   */\n              tag_154\n              jump\t// in\n            tag_310:\n                /* \"#utility.yul\":13082:13119   */\n              swap2\n              pop\n                /* \"#utility.yul\":13152:13155   */\n              dup3\n                /* \"#utility.yul\":13149:13150   */\n              0x02\n                /* \"#utility.yul\":13145:13156   */\n              mul\n                /* \"#utility.yul\":13139:13143   */\n              dup3\n                /* \"#utility.yul\":13136:13157   */\n              or\n                /* \"#utility.yul\":13128:13157   */\n              swap1\n              pop\n                /* \"#utility.yul\":12868:13163   */\n              swap3\n              swap2\n              pop\n              pop\n              jump\t// out\n                /* \"#utility.yul\":13168:14563   */\n            tag_94:\n                /* \"#utility.yul\":13285:13322   */\n              tag_312\n                /* \"#utility.yul\":13318:13321   */\n              dup3\n                /* \"#utility.yul\":13285:13322   */\n              tag_120\n              jump\t// in\n            tag_312:\n                /* \"#utility.yul\":13387:13405   */\n              0xffffffffffffffff\n                /* \"#utility.yul\":13379:13385   */\n              dup2\n                /* \"#utility.yul\":13376:13406   */\n              gt\n                /* \"#utility.yul\":13373:13429   */\n              iszero\n              tag_313\n              jumpi\n                /* \"#utility.yul\":13409:13427   */\n              tag_314\n              tag_129\n              jump\t// in\n            tag_314:\n                /* \"#utility.yul\":13373:13429   */\n            tag_313:\n                /* \"#utility.yul\":13453:13491   */\n              tag_315\n                /* \"#utility.yul\":13485:13489   */\n              dup3\n                /* \"#utility.yul\":13479:13490   */\n              sload\n                /* \"#utility.yul\":13453:13491   */\n              tag_84\n              jump\t// in\n            tag_315:\n                /* \"#utility.yul\":13538:13605   */\n              tag_316\n                /* \"#utility.yul\":13598:13604   */\n              dup3\n                /* \"#utility.yul\":13590:13596   */\n              dup3\n                /* \"#utility.yul\":13584:13588   */\n              dup6\n                /* \"#utility.yul\":13538:13605   */\n              tag_152\n              jump\t// in\n            tag_316:\n                /* \"#utility.yul\":13632:13633   */\n              0x00\n                /* \"#utility.yul\":13656:13660   */\n              0x20\n                /* \"#utility.yul\":13643:13660   */\n              swap1\n              pop\n                /* \"#utility.yul\":13688:13690   */\n              0x1f\n                /* \"#utility.yul\":13680:13686   */\n              dup4\n                /* \"#utility.yul\":13677:13691   */\n              gt\n                /* \"#utility.yul\":13705:13706   */\n              0x01\n                /* \"#utility.yul\":13700:14318   */\n              dup2\n              eq\n              tag_318\n              jumpi\n                /* \"#utility.yul\":14362:14363   */\n              0x00\n                /* \"#utility.yul\":14379:14385   */\n              dup5\n                /* \"#utility.yul\":14376:14453   */\n              iszero\n              tag_319\n              jumpi\n                /* \"#utility.yul\":14428:14437   */\n              dup3\n                /* \"#utility.yul\":14423:14426   */\n              dup8\n                /* \"#utility.yul\":14419:14438   */\n              add\n                /* \"#utility.yul\":14413:14439   */\n              mload\n                /* \"#utility.yul\":14404:14439   */\n              swap1\n              pop\n                /* \"#utility.yul\":14376:14453   */\n            tag_319:\n                /* \"#utility.yul\":14479:14546   */\n              tag_320\n                /* \"#utility.yul\":14539:14545   */\n              dup6\n                /* \"#utility.yul\":14532:14537   */\n              dup3\n                /* \"#utility.yul\":14479:14546   */\n              tag_155\n              jump\t// in\n            tag_320:\n                /* \"#utility.yul\":14473:14477   */\n              dup7\n                /* \"#utility.yul\":14466:14547   */\n              sstore\n                /* \"#utility.yul\":14335:14557   */\n              pop\n                /* \"#utility.yul\":13670:14557   */\n              jump(tag_317)\n                /* \"#utility.yul\":13700:14318   */\n            tag_318:\n                /* \"#utility.yul\":13752:13756   */\n              0x1f\n                /* \"#utility.yul\":13748:13757   */\n              not\n                /* \"#utility.yul\":13740:13746   */\n              dup5\n                /* \"#utility.yul\":13736:13758   */\n              and\n                /* \"#utility.yul\":13786:13823   */\n              tag_321\n                /* \"#utility.yul\":13818:13822   */\n              dup7\n                /* \"#utility.yul\":13786:13823   */\n              tag_141\n              jump\t// in\n            tag_321:\n                /* \"#utility.yul\":13845:13846   */\n              0x00\n                /* \"#utility.yul\":13859:14067   */\n            tag_322:\n                /* \"#utility.yul\":13873:13880   */\n              dup3\n                /* \"#utility.yul\":13870:13871   */\n              dup2\n                /* \"#utility.yul\":13867:13881   */\n              lt\n                /* \"#utility.yul\":13859:14067   */\n              iszero\n              tag_324\n              jumpi\n                /* \"#utility.yul\":13952:13961   */\n              dup5\n                /* \"#utility.yul\":13947:13950   */\n              dup10\n                /* \"#utility.yul\":13943:13962   */\n              add\n                /* \"#utility.yul\":13937:13963   */\n              mload\n                /* \"#utility.yul\":13929:13935   */\n              dup3\n                /* \"#utility.yul\":13922:13964   */\n              sstore\n                /* \"#utility.yul\":14003:14004   */\n              0x01\n                /* \"#utility.yul\":13995:14001   */\n              dup3\n                /* \"#utility.yul\":13991:14005   */\n              add\n                /* \"#utility.yul\":13981:14005   */\n              swap2\n              pop\n                /* \"#utility.yul\":14050:14052   */\n              0x20\n                /* \"#utility.yul\":14039:14048   */\n              dup6\n                /* \"#utility.yul\":14035:14053   */\n              add\n                /* \"#utility.yul\":14022:14053   */\n              swap5\n              pop\n                /* \"#utility.yul\":13896:13900   */\n              0x20\n                /* \"#utility.yul\":13893:13894   */\n              dup2\n                /* \"#utility.yul\":13889:13901   */\n              add\n                /* \"#utility.yul\":13884:13901   */\n              swap1\n              pop\n                /* \"#utility.yul\":13859:14067   */\n              jump(tag_322)\n            tag_324:\n                /* \"#utility.yul\":14095:14101   */\n              dup7\n                /* \"#utility.yul\":14086:14093   */\n              dup4\n                /* \"#utility.yul\":14083:14102   */\n              lt\n                /* \"#utility.yul\":14080:14259   */\n              iszero\n              tag_325\n              jumpi\n                /* \"#utility.yul\":14153:14162   */\n              dup5\n                /* \"#utility.yul\":14148:14151   */\n              dup10\n                /* \"#utility.yul\":14144:14163   */\n              add\n                /* \"#utility.yul\":14138:14164   */\n              mload\n                /* \"#utility.yul\":14196:14244   */\n              tag_326\n                /* \"#utility.yul\":14238:14242   */\n              0x1f\n                /* \"#utility.yul\":14230:14236   */\n              dup10\n                /* \"#utility.yul\":14226:14243   */\n              and\n                /* \"#utility.yul\":14215:14224   */\n              dup3\n                /* \"#utility.yul\":14196:14244   */\n              tag_154\n              jump\t// in\n            tag_326:\n                /* \"#utility.yul\":14188:14194   */\n              dup4\n                /* \"#utility.yul\":14181:14245   */\n              sstore\n                /* \"#utility.yul\":14103:14259   */\n              pop\n                /* \"#utility.yul\":14080:14259   */\n            tag_325:\n                /* \"#utility.yul\":14305:14306   */\n              0x01\n                /* \"#utility.yul\":14301:14302   */\n              0x02\n                /* \"#utility.yul\":14293:14299   */\n              dup9\n                /* \"#utility.yul\":14289:14303   */\n              mul\n                /* \"#utility.yul\":14285:14307   */\n              add\n                /* \"#utility.yul\":14279:14283   */\n              dup9\n                /* \"#utility.yul\":14272:14308   */\n              sstore\n                /* \"#utility.yul\":13707:14318   */\n              pop\n              pop\n              pop\n                /* \"#utility.yul\":13670:14557   */\n            tag_317:\n              pop\n                /* \"#utility.yul\":13260:14563   */\n              pop\n              pop\n              pop\n                /* \"#utility.yul\":13168:14563   */\n              pop\n              pop\n              jump\t// out\n                /* \"#utility.yul\":14569:14802   */\n            tag_98:\n                /* \"#utility.yul\":14608:14611   */\n              0x00\n                /* \"#utility.yul\":14631:14655   */\n              tag_328\n                /* \"#utility.yul\":14649:14654   */\n              dup3\n                /* \"#utility.yul\":14631:14655   */\n              tag_109\n              jump\t// in\n            tag_328:\n                /* \"#utility.yul\":14622:14655   */\n              swap2\n              pop\n                /* \"#utility.yul\":14677:14743   */\n              0xffffffffffffffffffffffffffffffffffffffffffffffffffffffffffffffff\n                /* \"#utility.yul\":14670:14675   */\n              dup3\n                /* \"#utility.yul\":14667:14744   */\n              sub\n                /* \"#utility.yul\":14664:14767   */\n              tag_329\n              jumpi\n                /* \"#utility.yul\":14747:14765   */\n              tag_330\n              tag_139\n              jump\t// in\n            tag_330:\n                /* \"#utility.yul\":14664:14767   */\n            tag_329:\n                /* \"#utility.yul\":14794:14795   */\n              0x01\n                /* \"#utility.yul\":14787:14792   */\n              dup3\n                /* \"#utility.yul\":14783:14796   */\n              add\n                /* \"#utility.yul\":14776:14796   */\n              swap1\n              pop\n                /* \"#utility.yul\":14569:14802   */\n              swap2\n              swap1\n              pop\n              jump\t// out\n\n            auxdata: 0xa26469706673582212202b10a483e2a71641d465fb0c4d89c13cee09e773484e814050c3d808ab7fc4e364736f6c63430008100033\n        }\n    }\n\n    auxdata: 0xa26469706673582212204c9730ad8a8e22664d619439dec173bdf3681bc497be50b4ae54105d80e6d50464736f6c63430008100033\n}\n","bytecode":{"linkReferences":{},"object":"608060405234801561001057600080fd5b506116d2806100206000396000f3fe608060405234801561001057600080fd5b50600436106100415760003560e01c8063339d50a5146100465780634acb9d4f14610076578063a3303a7514610094575b600080fd5b610060600480360381019061005b9190610266565b6100b0565b60405161006d91906102d4565b60405180910390f35b61007e6100ef565b60405161008b91906103ad565b60405180910390f35b6100ae60048036038101906100a99190610266565b61017d565b005b600081815481106100c057600080fd5b906000526020600020016000915054906101000a900473ffffffffffffffffffffffffffffffffffffffff1681565b6060600080548060200260200160405190810160405280929190818152602001828054801561017357602002820191906000526020600020905b8160009054906101000a900473ffffffffffffffffffffffffffffffffffffffff1673ffffffffffffffffffffffffffffffffffffffff1681526020019060010190808311610129575b5050505050905090565b6000813360405161018d9061021e565b6101989291906103de565b604051809103906000f0801580156101b4573d6000803e3d6000fd5b5090506000819080600181540180825580915050600190039060005260206000200160009091909190916101000a81548173ffffffffffffffffffffffffffffffffffffffff021916908373ffffffffffffffffffffffffffffffffffffffff1602179055505050565b6112958061040883390190565b600080fd5b6000819050919050565b61024381610230565b811461024e57600080fd5b50565b6000813590506102608161023a565b92915050565b60006020828403121561027c5761027b61022b565b5b600061028a84828501610251565b91505092915050565b600073ffffffffffffffffffffffffffffffffffffffff82169050919050565b60006102be82610293565b9050919050565b6102ce816102b3565b82525050565b60006020820190506102e960008301846102c5565b92915050565b600081519050919050565b600082825260208201905092915050565b6000819050602082019050919050565b610324816102b3565b82525050565b6000610336838361031b565b60208301905092915050565b6000602082019050919050565b600061035a826102ef565b61036481856102fa565b935061036f8361030b565b8060005b838110156103a0578151610387888261032a565b975061039283610342565b925050600181019050610373565b5085935050505092915050565b600060208201905081810360008301526103c7818461034f565b905092915050565b6103d881610230565b82525050565b60006040820190506103f360008301856103cf565b61040060208301846102c5565b939250505056fe60806040523480156200001157600080fd5b50604051620012953803806200129583398181016040528101906200003791906200012c565b80600160006101000a81548173ffffffffffffffffffffffffffffffffffffffff021916908373ffffffffffffffffffffffffffffffffffffffff16021790555081600281905550505062000173565b600080fd5b6000819050919050565b620000a1816200008c565b8114620000ad57600080fd5b50565b600081519050620000c18162000096565b92915050565b600073ffffffffffffffffffffffffffffffffffffffff82169050919050565b6000620000f482620000c7565b9050919050565b6200010681620000e7565b81146200011257600080fd5b50565b6000815190506200012681620000fb565b92915050565b6000806040838503121562000146576200014562000087565b5b60006200015685828601620000b0565b9250506020620001698582860162000115565b9150509250929050565b61111280620001836000396000f3fe60806040526004361061009c5760003560e01c806381d12c581161006457806381d12c581461018c57806382fde093146101cd5780638a9cfd55146101f8578063937e09b114610221578063d7bb99ba1461024c578063d7d1bbdb146102565761009c565b806303441006146100a15780630a144391146100ca5780633410452a146101075780634051ddac14610132578063481c6a7514610161575b600080fd5b3480156100ad57600080fd5b506100c860048036038101906100c39190610888565b61027f565b005b3480156100d657600080fd5b506100f160048036038101906100ec9190610913565b6103c8565b6040516100fe919061095b565b60405180910390f35b34801561011357600080fd5b5061011c6103e8565b6040516101299190610985565b60405180910390f35b34801561013e57600080fd5b506101476103f4565b6040516101589594939291906109af565b60405180910390f35b34801561016d57600080fd5b5061017661043d565b6040516101839190610a02565b60405180910390f35b34801561019857600080fd5b506101b360048036038101906101ae9190610888565b610463565b6040516101c4959493929190610ace565b60405180910390f35b3480156101d957600080fd5b506101e261055e565b6040516101ef9190610985565b60405180910390f35b34801561020457600080fd5b5061021f600480360381019061021a9190610c89565b610564565b005b34801561022d57600080fd5b5061023661066c565b6040516102439190610985565b60405180910390f35b610254610672565b005b34801561026257600080fd5b5061027d60048036038101906102789190610888565b6106f2565b005b600160009054906101000a900473ffffffffffffffffffffffffffffffffffffffff1673ffffffffffffffffffffffffffffffffffffffff163373ffffffffffffffffffffffffffffffffffffffff16146102d957600080fd5b60008082815481106102ee576102ed610cf8565b5b90600052602060002090600502019050600260045461030d9190610d85565b81600301541161031c57600080fd5b8060020160149054906101000a900460ff161561033857600080fd5b8060020160009054906101000a900473ffffffffffffffffffffffffffffffffffffffff1673ffffffffffffffffffffffffffffffffffffffff166108fc82600101549081150290604051600060405180830381858888f193505050501580156103a6573d6000803e3d6000fd5b5060018160020160146101000a81548160ff0219169083151502179055505050565b60036020528060005260406000206000915054906101000a900460ff1681565b60008080549050905090565b600080600080600060025447600080549050600454600160009054906101000a900473ffffffffffffffffffffffffffffffffffffffff16945094509450945094509091929394565b600160009054906101000a900473ffffffffffffffffffffffffffffffffffffffff1681565b6000818154811061047357600080fd5b906000526020600020906005020160009150905080600001805461049690610de5565b80601f01602080910402602001604051908101604052809291908181526020018280546104c290610de5565b801561050f5780601f106104e45761010080835404028352916020019161050f565b820191906000526020600020905b8154815290600101906020018083116104f257829003601f168201915b5050505050908060010154908060020160009054906101000a900473ffffffffffffffffffffffffffffffffffffffff16908060020160149054906101000a900460ff16908060030154905085565b60045481565b600160009054906101000a900473ffffffffffffffffffffffffffffffffffffffff1673ffffffffffffffffffffffffffffffffffffffff163373ffffffffffffffffffffffffffffffffffffffff16146105be57600080fd5b6000806001816001815401808255809150500390600052602060002090600502019050838160000190816105f29190610fc2565b50828160010181905550818160020160006101000a81548173ffffffffffffffffffffffffffffffffffffffff021916908373ffffffffffffffffffffffffffffffffffffffff16021790555060008160020160146101000a81548160ff0219169083151502179055506000816003018190555050505050565b60025481565b600254341161068057600080fd5b6001600360003373ffffffffffffffffffffffffffffffffffffffff1673ffffffffffffffffffffffffffffffffffffffff16815260200190815260200160002060006101000a81548160ff021916908315150217905550600460008154809291906106eb90611094565b9190505550565b600080828154811061070757610706610cf8565b5b90600052602060002090600502019050600360003373ffffffffffffffffffffffffffffffffffffffff1673ffffffffffffffffffffffffffffffffffffffff16815260200190815260200160002060009054906101000a900460ff1661076d57600080fd5b8060040160003373ffffffffffffffffffffffffffffffffffffffff1673ffffffffffffffffffffffffffffffffffffffff16815260200190815260200160002060009054906101000a900460ff16156107c657600080fd5b60018160040160003373ffffffffffffffffffffffffffffffffffffffff1673ffffffffffffffffffffffffffffffffffffffff16815260200190815260200160002060006101000a81548160ff02191690831515021790555080600301600081548092919061083590611094565b91905055505050565b6000604051905090565b600080fd5b600080fd5b6000819050919050565b61086581610852565b811461087057600080fd5b50565b6000813590506108828161085c565b92915050565b60006020828403121561089e5761089d610848565b5b60006108ac84828501610873565b91505092915050565b600073ffffffffffffffffffffffffffffffffffffffff82169050919050565b60006108e0826108b5565b9050919050565b6108f0816108d5565b81146108fb57600080fd5b50565b60008135905061090d816108e7565b92915050565b60006020828403121561092957610928610848565b5b6000610937848285016108fe565b91505092915050565b60008115159050919050565b61095581610940565b82525050565b6000602082019050610970600083018461094c565b92915050565b61097f81610852565b82525050565b600060208201905061099a6000830184610976565b92915050565b6109a9816108d5565b82525050565b600060a0820190506109c46000830188610976565b6109d16020830187610976565b6109de6040830186610976565b6109eb6060830185610976565b6109f860808301846109a0565b9695505050505050565b6000602082019050610a1760008301846109a0565b92915050565b600081519050919050565b600082825260208201905092915050565b60005b83811015610a57578082015181840152602081019050610a3c565b60008484015250505050565b6000601f19601f8301169050919050565b6000610a7f82610a1d565b610a898185610a28565b9350610a99818560208601610a39565b610aa281610a63565b840191505092915050565b6000610ab8826108b5565b9050919050565b610ac881610aad565b82525050565b600060a0820190508181036000830152610ae88188610a74565b9050610af76020830187610976565b610b046040830186610abf565b610b11606083018561094c565b610b1e6080830184610976565b9695505050505050565b600080fd5b600080fd5b7f4e487b7100000000000000000000000000000000000000000000000000000000600052604160045260246000fd5b610b6a82610a63565b810181811067ffffffffffffffff82111715610b8957610b88610b32565b5b80604052505050565b6000610b9c61083e565b9050610ba88282610b61565b919050565b600067ffffffffffffffff821115610bc857610bc7610b32565b5b610bd182610a63565b9050602081019050919050565b82818337600083830152505050565b6000610c00610bfb84610bad565b610b92565b905082815260208101848484011115610c1c57610c1b610b2d565b5b610c27848285610bde565b509392505050565b600082601f830112610c4457610c43610b28565b5b8135610c54848260208601610bed565b91505092915050565b610c6681610aad565b8114610c7157600080fd5b50565b600081359050610c8381610c5d565b92915050565b600080600060608486031215610ca257610ca1610848565b5b600084013567ffffffffffffffff811115610cc057610cbf61084d565b5b610ccc86828701610c2f565b9350506020610cdd86828701610873565b9250506040610cee86828701610c74565b9150509250925092565b7f4e487b7100000000000000000000000000000000000000000000000000000000600052603260045260246000fd5b7f4e487b7100000000000000000000000000000000000000000000000000000000600052601260045260246000fd5b7f4e487b7100000000000000000000000000000000000000000000000000000000600052601160045260246000fd5b6000610d9082610852565b9150610d9b83610852565b925082610dab57610daa610d27565b5b828204905092915050565b7f4e487b7100000000000000000000000000000000000000000000000000000000600052602260045260246000fd5b60006002820490506001821680610dfd57607f821691505b602082108103610e1057610e0f610db6565b5b50919050565b60008190508160005260206000209050919050565b60006020601f8301049050919050565b600082821b905092915050565b600060088302610e787fffffffffffffffffffffffffffffffffffffffffffffffffffffffffffffffff82610e3b565b610e828683610e3b565b95508019841693508086168417925050509392505050565b6000819050919050565b6000610ebf610eba610eb584610852565b610e9a565b610852565b9050919050565b6000819050919050565b610ed983610ea4565b610eed610ee582610ec6565b848454610e48565b825550505050565b600090565b610f02610ef5565b610f0d818484610ed0565b505050565b5b81811015610f3157610f26600082610efa565b600181019050610f13565b5050565b601f821115610f7657610f4781610e16565b610f5084610e2b565b81016020851015610f5f578190505b610f73610f6b85610e2b565b830182610f12565b50505b505050565b600082821c905092915050565b6000610f9960001984600802610f7b565b1980831691505092915050565b6000610fb28383610f88565b9150826002028217905092915050565b610fcb82610a1d565b67ffffffffffffffff811115610fe457610fe3610b32565b5b610fee8254610de5565b610ff9828285610f35565b600060209050601f83116001811461102c576000841561101a578287015190505b6110248582610fa6565b86555061108c565b601f19841661103a86610e16565b60005b828110156110625784890151825560018201915060208501945060208101905061103d565b8683101561107f578489015161107b601f891682610f88565b8355505b6001600288020188555050505b505050505050565b600061109f82610852565b91507fffffffffffffffffffffffffffffffffffffffffffffffffffffffffffffffff82036110d1576110d0610d56565b5b60018201905091905056fea26469706673582212202b10a483e2a71641d465fb0c4d89c13cee09e773484e814050c3d808ab7fc4e364736f6c63430008100033a26469706673582212204c9730ad8a8e22664d619439dec173bdf3681bc497be50b4ae54105d80e6d50464736f6c63430008100033","opcodes":"PUSH1 0x80 PUSH1 0x40 MSTORE CALLVALUE DUP1 ISZERO PUSH2 0x10 JUMPI PUSH1 0x0 DUP1 REVERT JUMPDEST POP PUSH2 0x16D2 DUP1 PUSH2 0x20 PUSH1 0x0 CODECOPY PUSH1 0x0 RETURN INVALID PUSH1 0x80 PUSH1 0x40 MSTORE CALLVALUE DUP1 ISZERO PUSH2 0x10 JUMPI PUSH1 0x0 DUP1 REVERT JUMPDEST POP PUSH1 0x4 CALLDATASIZE LT PUSH2 0x41 JUMPI PUSH1 0x0 CALLDATALOAD PUSH1 0xE0 SHR DUP1 PUSH4 0x339D50A5 EQ PUSH2 0x46 JUMPI DUP1 PUSH4 0x4ACB9D4F EQ PUSH2 0x76 JUMPI DUP1 PUSH4 0xA3303A75 EQ PUSH2 0x94 JUMPI JUMPDEST PUSH1 0x0 DUP1 REVERT JUMPDEST PUSH2 0x60 PUSH1 0x4 DUP1 CALLDATASIZE SUB DUP2 ADD SWAP1 PUSH2 0x5B SWAP2 SWAP1 PUSH2 0x266 JUMP JUMPDEST PUSH2 0xB0 JUMP JUMPDEST PUSH1 0x40 MLOAD PUSH2 0x6D SWAP2 SWAP1 PUSH2 0x2D4 JUMP JUMPDEST PUSH1 0x40 MLOAD DUP1 SWAP2 SUB SWAP1 RETURN JUMPDEST PUSH2 0x7E PUSH2 0xEF JUMP JUMPDEST PUSH1 0x40 MLOAD PUSH2 0x8B SWAP2 SWAP1 PUSH2 0x3AD JUMP JUMPDEST PUSH1 0x40 MLOAD DUP1 SWAP2 SUB SWAP1 RETURN JUMPDEST PUSH2 0xAE PUSH1 0x4 DUP1 CALLDATASIZE SUB DUP2 ADD SWAP1 PUSH2 0xA9 SWAP2 SWAP1 PUSH2 0x266 JUMP JUMPDEST PUSH2 0x17D JUMP JUMPDEST STOP JUMPDEST PUSH1 0x0 DUP2 DUP2 SLOAD DUP2 LT PUSH2 0xC0 JUMPI PUSH1 0x0 DUP1 REVERT JUMPDEST SWAP1 PUSH1 0x0 MSTORE PUSH1 0x20 PUSH1 0x0 KECCAK256 ADD PUSH1 0x0 SWAP2 POP SLOAD SWAP1 PUSH2 0x100 EXP SWAP1 DIV PUSH20 0xFFFFFFFFFFFFFFFFFFFFFFFFFFFFFFFFFFFFFFFF AND DUP2 JUMP JUMPDEST PUSH1 0x60 PUSH1 0x0 DUP1 SLOAD DUP1 PUSH1 0x20 MUL PUSH1 0x20 ADD PUSH1 0x40 MLOAD SWAP1 DUP2 ADD PUSH1 0x40 MSTORE DUP1 SWAP3 SWAP2 SWAP1 DUP2 DUP2 MSTORE PUSH1 0x20 ADD DUP3 DUP1 SLOAD DUP1 ISZERO PUSH2 0x173 JUMPI PUSH1 0x20 MUL DUP3 ADD SWAP2 SWAP1 PUSH1 0x0 MSTORE PUSH1 0x20 PUSH1 0x0 KECCAK256 SWAP1 JUMPDEST DUP2 PUSH1 0x0 SWAP1 SLOAD SWAP1 PUSH2 0x100 EXP SWAP1 DIV PUSH20 0xFFFFFFFFFFFFFFFFFFFFFFFFFFFFFFFFFFFFFFFF AND PUSH20 0xFFFFFFFFFFFFFFFFFFFFFFFFFFFFFFFFFFFFFFFF AND DUP2 MSTORE PUSH1 0x20 ADD SWAP1 PUSH1 0x1 ADD SWAP1 DUP1 DUP4 GT PUSH2 0x129 JUMPI JUMPDEST POP POP POP POP POP SWAP1 POP SWAP1 JUMP JUMPDEST PUSH1 0x0 DUP2 CALLER PUSH1 0x40 MLOAD PUSH2 0x18D SWAP1 PUSH2 0x21E JUMP JUMPDEST PUSH2 0x198 SWAP3 SWAP2 SWAP1 PUSH2 0x3DE JUMP JUMPDEST PUSH1 0x40 MLOAD DUP1 SWAP2 SUB SWAP1 PUSH1 0x0 CREATE DUP1 ISZERO DUP1 ISZERO PUSH2 0x1B4 JUMPI RETURNDATASIZE PUSH1 0x0 DUP1 RETURNDATACOPY RETURNDATASIZE PUSH1 0x0 REVERT JUMPDEST POP SWAP1 POP PUSH1 0x0 DUP2 SWAP1 DUP1 PUSH1 0x1 DUP2 SLOAD ADD DUP1 DUP3 SSTORE DUP1 SWAP2 POP POP PUSH1 0x1 SWAP1 SUB SWAP1 PUSH1 0x0 MSTORE PUSH1 0x20 PUSH1 0x0 KECCAK256 ADD PUSH1 0x0 SWAP1 SWAP2 SWAP1 SWAP2 SWAP1 SWAP2 PUSH2 0x100 EXP DUP2 SLOAD DUP2 PUSH20 0xFFFFFFFFFFFFFFFFFFFFFFFFFFFFFFFFFFFFFFFF MUL NOT AND SWAP1 DUP4 PUSH20 0xFFFFFFFFFFFFFFFFFFFFFFFFFFFFFFFFFFFFFFFF AND MUL OR SWAP1 SSTORE POP POP POP JUMP JUMPDEST PUSH2 0x1295 DUP1 PUSH2 0x408 DUP4 CODECOPY ADD SWAP1 JUMP JUMPDEST PUSH1 0x0 DUP1 REVERT JUMPDEST PUSH1 0x0 DUP2 SWAP1 POP SWAP2 SWAP1 POP JUMP JUMPDEST PUSH2 0x243 DUP2 PUSH2 0x230 JUMP JUMPDEST DUP2 EQ PUSH2 0x24E JUMPI PUSH1 0x0 DUP1 REVERT JUMPDEST POP JUMP JUMPDEST PUSH1 0x0 DUP2 CALLDATALOAD SWAP1 POP PUSH2 0x260 DUP2 PUSH2 0x23A JUMP JUMPDEST SWAP3 SWAP2 POP POP JUMP JUMPDEST PUSH1 0x0 PUSH1 0x20 DUP3 DUP5 SUB SLT ISZERO PUSH2 0x27C JUMPI PUSH2 0x27B PUSH2 0x22B JUMP JUMPDEST JUMPDEST PUSH1 0x0 PUSH2 0x28A DUP5 DUP3 DUP6 ADD PUSH2 0x251 JUMP JUMPDEST SWAP2 POP POP SWAP3 SWAP2 POP POP JUMP JUMPDEST PUSH1 0x0 PUSH20 0xFFFFFFFFFFFFFFFFFFFFFFFFFFFFFFFFFFFFFFFF DUP3 AND SWAP1 POP SWAP2 SWAP1 POP JUMP JUMPDEST PUSH1 0x0 PUSH2 0x2BE DUP3 PUSH2 0x293 JUMP JUMPDEST SWAP1 POP SWAP2 SWAP1 POP JUMP JUMPDEST PUSH2 0x2CE DUP2 PUSH2 0x2B3 JUMP JUMPDEST DUP3 MSTORE POP POP JUMP JUMPDEST PUSH1 0x0 PUSH1 0x20 DUP3 ADD SWAP1 POP PUSH2 0x2E9 PUSH1 0x0 DUP4 ADD DUP5 PUSH2 0x2C5 JUMP JUMPDEST SWAP3 SWAP2 POP POP JUMP JUMPDEST PUSH1 0x0 DUP2 MLOAD SWAP1 POP SWAP2 SWAP1 POP JUMP JUMPDEST PUSH1 0x0 DUP3 DUP3 MSTORE PUSH1 0x20 DUP3 ADD SWAP1 POP SWAP3 SWAP2 POP POP JUMP JUMPDEST PUSH1 0x0 DUP2 SWAP1 POP PUSH1 0x20 DUP3 ADD SWAP1 POP SWAP2 SWAP1 POP JUMP JUMPDEST PUSH2 0x324 DUP2 PUSH2 0x2B3 JUMP JUMPDEST DUP3 MSTORE POP POP JUMP JUMPDEST PUSH1 0x0 PUSH2 0x336 DUP4 DUP4 PUSH2 0x31B JUMP JUMPDEST PUSH1 0x20 DUP4 ADD SWAP1 POP SWAP3 SWAP2 POP POP JUMP JUMPDEST PUSH1 0x0 PUSH1 0x20 DUP3 ADD SWAP1 POP SWAP2 SWAP1 POP JUMP JUMPDEST PUSH1 0x0 PUSH2 0x35A DUP3 PUSH2 0x2EF JUMP JUMPDEST PUSH2 0x364 DUP2 DUP6 PUSH2 0x2FA JUMP JUMPDEST SWAP4 POP PUSH2 0x36F DUP4 PUSH2 0x30B JUMP JUMPDEST DUP1 PUSH1 0x0 JUMPDEST DUP4 DUP2 LT ISZERO PUSH2 0x3A0 JUMPI DUP2 MLOAD PUSH2 0x387 DUP9 DUP3 PUSH2 0x32A JUMP JUMPDEST SWAP8 POP PUSH2 0x392 DUP4 PUSH2 0x342 JUMP JUMPDEST SWAP3 POP POP PUSH1 0x1 DUP2 ADD SWAP1 POP PUSH2 0x373 JUMP JUMPDEST POP DUP6 SWAP4 POP POP POP POP SWAP3 SWAP2 POP POP JUMP JUMPDEST PUSH1 0x0 PUSH1 0x20 DUP3 ADD SWAP1 POP DUP2 DUP2 SUB PUSH1 0x0 DUP4 ADD MSTORE PUSH2 0x3C7 DUP2 DUP5 PUSH2 0x34F JUMP JUMPDEST SWAP1 POP SWAP3 SWAP2 POP POP JUMP JUMPDEST PUSH2 0x3D8 DUP2 PUSH2 0x230 JUMP JUMPDEST DUP3 MSTORE POP POP JUMP JUMPDEST PUSH1 0x0 PUSH1 0x40 DUP3 ADD SWAP1 POP PUSH2 0x3F3 PUSH1 0x0 DUP4 ADD DUP6 PUSH2 0x3CF JUMP JUMPDEST PUSH2 0x400 PUSH1 0x20 DUP4 ADD DUP5 PUSH2 0x2C5 JUMP JUMPDEST SWAP4 SWAP3 POP POP POP JUMP INVALID PUSH1 0x80 PUSH1 0x40 MSTORE CALLVALUE DUP1 ISZERO PUSH3 0x11 JUMPI PUSH1 0x0 DUP1 REVERT JUMPDEST POP PUSH1 0x40 MLOAD PUSH3 0x1295 CODESIZE SUB DUP1 PUSH3 0x1295 DUP4 CODECOPY DUP2 DUP2 ADD PUSH1 0x40 MSTORE DUP2 ADD SWAP1 PUSH3 0x37 SWAP2 SWAP1 PUSH3 0x12C JUMP JUMPDEST DUP1 PUSH1 0x1 PUSH1 0x0 PUSH2 0x100 EXP DUP2 SLOAD DUP2 PUSH20 0xFFFFFFFFFFFFFFFFFFFFFFFFFFFFFFFFFFFFFFFF MUL NOT AND SWAP1 DUP4 PUSH20 0xFFFFFFFFFFFFFFFFFFFFFFFFFFFFFFFFFFFFFFFF AND MUL OR SWAP1 SSTORE POP DUP2 PUSH1 0x2 DUP2 SWAP1 SSTORE POP POP POP PUSH3 0x173 JUMP JUMPDEST PUSH1 0x0 DUP1 REVERT JUMPDEST PUSH1 0x0 DUP2 SWAP1 POP SWAP2 SWAP1 POP JUMP JUMPDEST PUSH3 0xA1 DUP2 PUSH3 0x8C JUMP JUMPDEST DUP2 EQ PUSH3 0xAD JUMPI PUSH1 0x0 DUP1 REVERT JUMPDEST POP JUMP JUMPDEST PUSH1 0x0 DUP2 MLOAD SWAP1 POP PUSH3 0xC1 DUP2 PUSH3 0x96 JUMP JUMPDEST SWAP3 SWAP2 POP POP JUMP JUMPDEST PUSH1 0x0 PUSH20 0xFFFFFFFFFFFFFFFFFFFFFFFFFFFFFFFFFFFFFFFF DUP3 AND SWAP1 POP SWAP2 SWAP1 POP JUMP JUMPDEST PUSH1 0x0 PUSH3 0xF4 DUP3 PUSH3 0xC7 JUMP JUMPDEST SWAP1 POP SWAP2 SWAP1 POP JUMP JUMPDEST PUSH3 0x106 DUP2 PUSH3 0xE7 JUMP JUMPDEST DUP2 EQ PUSH3 0x112 JUMPI PUSH1 0x0 DUP1 REVERT JUMPDEST POP JUMP JUMPDEST PUSH1 0x0 DUP2 MLOAD SWAP1 POP PUSH3 0x126 DUP2 PUSH3 0xFB JUMP JUMPDEST SWAP3 SWAP2 POP POP JUMP JUMPDEST PUSH1 0x0 DUP1 PUSH1 0x40 DUP4 DUP6 SUB SLT ISZERO PUSH3 0x146 JUMPI PUSH3 0x145 PUSH3 0x87 JUMP JUMPDEST JUMPDEST PUSH1 0x0 PUSH3 0x156 DUP6 DUP3 DUP7 ADD PUSH3 0xB0 JUMP JUMPDEST SWAP3 POP POP PUSH1 0x20 PUSH3 0x169 DUP6 DUP3 DUP7 ADD PUSH3 0x115 JUMP JUMPDEST SWAP2 POP POP SWAP3 POP SWAP3 SWAP1 POP JUMP JUMPDEST PUSH2 0x1112 DUP1 PUSH3 0x183 PUSH1 0x0 CODECOPY PUSH1 0x0 RETURN INVALID PUSH1 0x80 PUSH1 0x40 MSTORE PUSH1 0x4 CALLDATASIZE LT PUSH2 0x9C JUMPI PUSH1 0x0 CALLDATALOAD PUSH1 0xE0 SHR DUP1 PUSH4 0x81D12C58 GT PUSH2 0x64 JUMPI DUP1 PUSH4 0x81D12C58 EQ PUSH2 0x18C JUMPI DUP1 PUSH4 0x82FDE093 EQ PUSH2 0x1CD JUMPI DUP1 PUSH4 0x8A9CFD55 EQ PUSH2 0x1F8 JUMPI DUP1 PUSH4 0x937E09B1 EQ PUSH2 0x221 JUMPI DUP1 PUSH4 0xD7BB99BA EQ PUSH2 0x24C JUMPI DUP1 PUSH4 0xD7D1BBDB EQ PUSH2 0x256 JUMPI PUSH2 0x9C JUMP JUMPDEST DUP1 PUSH4 0x3441006 EQ PUSH2 0xA1 JUMPI DUP1 PUSH4 0xA144391 EQ PUSH2 0xCA JUMPI DUP1 PUSH4 0x3410452A EQ PUSH2 0x107 JUMPI DUP1 PUSH4 0x4051DDAC EQ PUSH2 0x132 JUMPI DUP1 PUSH4 0x481C6A75 EQ PUSH2 0x161 JUMPI JUMPDEST PUSH1 0x0 DUP1 REVERT JUMPDEST CALLVALUE DUP1 ISZERO PUSH2 0xAD JUMPI PUSH1 0x0 DUP1 REVERT JUMPDEST POP PUSH2 0xC8 PUSH1 0x4 DUP1 CALLDATASIZE SUB DUP2 ADD SWAP1 PUSH2 0xC3 SWAP2 SWAP1 PUSH2 0x888 JUMP JUMPDEST PUSH2 0x27F JUMP JUMPDEST STOP JUMPDEST CALLVALUE DUP1 ISZERO PUSH2 0xD6 JUMPI PUSH1 0x0 DUP1 REVERT JUMPDEST POP PUSH2 0xF1 PUSH1 0x4 DUP1 CALLDATASIZE SUB DUP2 ADD SWAP1 PUSH2 0xEC SWAP2 SWAP1 PUSH2 0x913 JUMP JUMPDEST PUSH2 0x3C8 JUMP JUMPDEST PUSH1 0x40 MLOAD PUSH2 0xFE SWAP2 SWAP1 PUSH2 0x95B JUMP JUMPDEST PUSH1 0x40 MLOAD DUP1 SWAP2 SUB SWAP1 RETURN JUMPDEST CALLVALUE DUP1 ISZERO PUSH2 0x113 JUMPI PUSH1 0x0 DUP1 REVERT JUMPDEST POP PUSH2 0x11C PUSH2 0x3E8 JUMP JUMPDEST PUSH1 0x40 MLOAD PUSH2 0x129 SWAP2 SWAP1 PUSH2 0x985 JUMP JUMPDEST PUSH1 0x40 MLOAD DUP1 SWAP2 SUB SWAP1 RETURN JUMPDEST CALLVALUE DUP1 ISZERO PUSH2 0x13E JUMPI PUSH1 0x0 DUP1 REVERT JUMPDEST POP PUSH2 0x147 PUSH2 0x3F4 JUMP JUMPDEST PUSH1 0x40 MLOAD PUSH2 0x158 SWAP6 SWAP5 SWAP4 SWAP3 SWAP2 SWAP1 PUSH2 0x9AF JUMP JUMPDEST PUSH1 0x40 MLOAD DUP1 SWAP2 SUB SWAP1 RETURN JUMPDEST CALLVALUE DUP1 ISZERO PUSH2 0x16D JUMPI PUSH1 0x0 DUP1 REVERT JUMPDEST POP PUSH2 0x176 PUSH2 0x43D JUMP JUMPDEST PUSH1 0x40 MLOAD PUSH2 0x183 SWAP2 SWAP1 PUSH2 0xA02 JUMP JUMPDEST PUSH1 0x40 MLOAD DUP1 SWAP2 SUB SWAP1 RETURN JUMPDEST CALLVALUE DUP1 ISZERO PUSH2 0x198 JUMPI PUSH1 0x0 DUP1 REVERT JUMPDEST POP PUSH2 0x1B3 PUSH1 0x4 DUP1 CALLDATASIZE SUB DUP2 ADD SWAP1 PUSH2 0x1AE SWAP2 SWAP1 PUSH2 0x888 JUMP JUMPDEST PUSH2 0x463 JUMP JUMPDEST PUSH1 0x40 MLOAD PUSH2 0x1C4 SWAP6 SWAP5 SWAP4 SWAP3 SWAP2 SWAP1 PUSH2 0xACE JUMP JUMPDEST PUSH1 0x40 MLOAD DUP1 SWAP2 SUB SWAP1 RETURN JUMPDEST CALLVALUE DUP1 ISZERO PUSH2 0x1D9 JUMPI PUSH1 0x0 DUP1 REVERT JUMPDEST POP PUSH2 0x1E2 PUSH2 0x55E JUMP JUMPDEST PUSH1 0x40 MLOAD PUSH2 0x1EF SWAP2 SWAP1 PUSH2 0x985 JUMP JUMPDEST PUSH1 0x40 MLOAD DUP1 SWAP2 SUB SWAP1 RETURN JUMPDEST CALLVALUE DUP1 ISZERO PUSH2 0x204 JUMPI PUSH1 0x0 DUP1 REVERT JUMPDEST POP PUSH2 0x21F PUSH1 0x4 DUP1 CALLDATASIZE SUB DUP2 ADD SWAP1 PUSH2 0x21A SWAP2 SWAP1 PUSH2 0xC89 JUMP JUMPDEST PUSH2 0x564 JUMP JUMPDEST STOP JUMPDEST CALLVALUE DUP1 ISZERO PUSH2 0x22D JUMPI PUSH1 0x0 DUP1 REVERT JUMPDEST POP PUSH2 0x236 PUSH2 0x66C JUMP JUMPDEST PUSH1 0x40 MLOAD PUSH2 0x243 SWAP2 SWAP1 PUSH2 0x985 JUMP JUMPDEST PUSH1 0x40 MLOAD DUP1 SWAP2 SUB SWAP1 RETURN JUMPDEST PUSH2 0x254 PUSH2 0x672 JUMP JUMPDEST STOP JUMPDEST CALLVALUE DUP1 ISZERO PUSH2 0x262 JUMPI PUSH1 0x0 DUP1 REVERT JUMPDEST POP PUSH2 0x27D PUSH1 0x4 DUP1 CALLDATASIZE SUB DUP2 ADD SWAP1 PUSH2 0x278 SWAP2 SWAP1 PUSH2 0x888 JUMP JUMPDEST PUSH2 0x6F2 JUMP JUMPDEST STOP JUMPDEST PUSH1 0x1 PUSH1 0x0 SWAP1 SLOAD SWAP1 PUSH2 0x100 EXP SWAP1 DIV PUSH20 0xFFFFFFFFFFFFFFFFFFFFFFFFFFFFFFFFFFFFFFFF AND PUSH20 0xFFFFFFFFFFFFFFFFFFFFFFFFFFFFFFFFFFFFFFFF AND CALLER PUSH20 0xFFFFFFFFFFFFFFFFFFFFFFFFFFFFFFFFFFFFFFFF AND EQ PUSH2 0x2D9 JUMPI PUSH1 0x0 DUP1 REVERT JUMPDEST PUSH1 0x0 DUP1 DUP3 DUP2 SLOAD DUP2 LT PUSH2 0x2EE JUMPI PUSH2 0x2ED PUSH2 0xCF8 JUMP JUMPDEST JUMPDEST SWAP1 PUSH1 0x0 MSTORE PUSH1 0x20 PUSH1 0x0 KECCAK256 SWAP1 PUSH1 0x5 MUL ADD SWAP1 POP PUSH1 0x2 PUSH1 0x4 SLOAD PUSH2 0x30D SWAP2 SWAP1 PUSH2 0xD85 JUMP JUMPDEST DUP2 PUSH1 0x3 ADD SLOAD GT PUSH2 0x31C JUMPI PUSH1 0x0 DUP1 REVERT JUMPDEST DUP1 PUSH1 0x2 ADD PUSH1 0x14 SWAP1 SLOAD SWAP1 PUSH2 0x100 EXP SWAP1 DIV PUSH1 0xFF AND ISZERO PUSH2 0x338 JUMPI PUSH1 0x0 DUP1 REVERT JUMPDEST DUP1 PUSH1 0x2 ADD PUSH1 0x0 SWAP1 SLOAD SWAP1 PUSH2 0x100 EXP SWAP1 DIV PUSH20 0xFFFFFFFFFFFFFFFFFFFFFFFFFFFFFFFFFFFFFFFF AND PUSH20 0xFFFFFFFFFFFFFFFFFFFFFFFFFFFFFFFFFFFFFFFF AND PUSH2 0x8FC DUP3 PUSH1 0x1 ADD SLOAD SWAP1 DUP2 ISZERO MUL SWAP1 PUSH1 0x40 MLOAD PUSH1 0x0 PUSH1 0x40 MLOAD DUP1 DUP4 SUB DUP2 DUP6 DUP9 DUP9 CALL SWAP4 POP POP POP POP ISZERO DUP1 ISZERO PUSH2 0x3A6 JUMPI RETURNDATASIZE PUSH1 0x0 DUP1 RETURNDATACOPY RETURNDATASIZE PUSH1 0x0 REVERT JUMPDEST POP PUSH1 0x1 DUP2 PUSH1 0x2 ADD PUSH1 0x14 PUSH2 0x100 EXP DUP2 SLOAD DUP2 PUSH1 0xFF MUL NOT AND SWAP1 DUP4 ISZERO ISZERO MUL OR SWAP1 SSTORE POP POP POP JUMP JUMPDEST PUSH1 0x3 PUSH1 0x20 MSTORE DUP1 PUSH1 0x0 MSTORE PUSH1 0x40 PUSH1 0x0 KECCAK256 PUSH1 0x0 SWAP2 POP SLOAD SWAP1 PUSH2 0x100 EXP SWAP1 DIV PUSH1 0xFF AND DUP2 JUMP JUMPDEST PUSH1 0x0 DUP1 DUP1 SLOAD SWAP1 POP SWAP1 POP SWAP1 JUMP JUMPDEST PUSH1 0x0 DUP1 PUSH1 0x0 DUP1 PUSH1 0x0 PUSH1 0x2 SLOAD SELFBALANCE PUSH1 0x0 DUP1 SLOAD SWAP1 POP PUSH1 0x4 SLOAD PUSH1 0x1 PUSH1 0x0 SWAP1 SLOAD SWAP1 PUSH2 0x100 EXP SWAP1 DIV PUSH20 0xFFFFFFFFFFFFFFFFFFFFFFFFFFFFFFFFFFFFFFFF AND SWAP5 POP SWAP5 POP SWAP5 POP SWAP5 POP SWAP5 POP SWAP1 SWAP2 SWAP3 SWAP4 SWAP5 JUMP JUMPDEST PUSH1 0x1 PUSH1 0x0 SWAP1 SLOAD SWAP1 PUSH2 0x100 EXP SWAP1 DIV PUSH20 0xFFFFFFFFFFFFFFFFFFFFFFFFFFFFFFFFFFFFFFFF AND DUP2 JUMP JUMPDEST PUSH1 0x0 DUP2 DUP2 SLOAD DUP2 LT PUSH2 0x473 JUMPI PUSH1 0x0 DUP1 REVERT JUMPDEST SWAP1 PUSH1 0x0 MSTORE PUSH1 0x20 PUSH1 0x0 KECCAK256 SWAP1 PUSH1 0x5 MUL ADD PUSH1 0x0 SWAP2 POP SWAP1 POP DUP1 PUSH1 0x0 ADD DUP1 SLOAD PUSH2 0x496 SWAP1 PUSH2 0xDE5 JUMP JUMPDEST DUP1 PUSH1 0x1F ADD PUSH1 0x20 DUP1 SWAP2 DIV MUL PUSH1 0x20 ADD PUSH1 0x40 MLOAD SWAP1 DUP2 ADD PUSH1 0x40 MSTORE DUP1 SWAP3 SWAP2 SWAP1 DUP2 DUP2 MSTORE PUSH1 0x20 ADD DUP3 DUP1 SLOAD PUSH2 0x4C2 SWAP1 PUSH2 0xDE5 JUMP JUMPDEST DUP1 ISZERO PUSH2 0x50F JUMPI DUP1 PUSH1 0x1F LT PUSH2 0x4E4 JUMPI PUSH2 0x100 DUP1 DUP4 SLOAD DIV MUL DUP4 MSTORE SWAP2 PUSH1 0x20 ADD SWAP2 PUSH2 0x50F JUMP JUMPDEST DUP3 ADD SWAP2 SWAP1 PUSH1 0x0 MSTORE PUSH1 0x20 PUSH1 0x0 KECCAK256 SWAP1 JUMPDEST DUP2 SLOAD DUP2 MSTORE SWAP1 PUSH1 0x1 ADD SWAP1 PUSH1 0x20 ADD DUP1 DUP4 GT PUSH2 0x4F2 JUMPI DUP3 SWAP1 SUB PUSH1 0x1F AND DUP3 ADD SWAP2 JUMPDEST POP POP POP POP POP SWAP1 DUP1 PUSH1 0x1 ADD SLOAD SWAP1 DUP1 PUSH1 0x2 ADD PUSH1 0x0 SWAP1 SLOAD SWAP1 PUSH2 0x100 EXP SWAP1 DIV PUSH20 0xFFFFFFFFFFFFFFFFFFFFFFFFFFFFFFFFFFFFFFFF AND SWAP1 DUP1 PUSH1 0x2 ADD PUSH1 0x14 SWAP1 SLOAD SWAP1 PUSH2 0x100 EXP SWAP1 DIV PUSH1 0xFF AND SWAP1 DUP1 PUSH1 0x3 ADD SLOAD SWAP1 POP DUP6 JUMP JUMPDEST PUSH1 0x4 SLOAD DUP2 JUMP JUMPDEST PUSH1 0x1 PUSH1 0x0 SWAP1 SLOAD SWAP1 PUSH2 0x100 EXP SWAP1 DIV PUSH20 0xFFFFFFFFFFFFFFFFFFFFFFFFFFFFFFFFFFFFFFFF AND PUSH20 0xFFFFFFFFFFFFFFFFFFFFFFFFFFFFFFFFFFFFFFFF AND CALLER PUSH20 0xFFFFFFFFFFFFFFFFFFFFFFFFFFFFFFFFFFFFFFFF AND EQ PUSH2 0x5BE JUMPI PUSH1 0x0 DUP1 REVERT JUMPDEST PUSH1 0x0 DUP1 PUSH1 0x1 DUP2 PUSH1 0x1 DUP2 SLOAD ADD DUP1 DUP3 SSTORE DUP1 SWAP2 POP POP SUB SWAP1 PUSH1 0x0 MSTORE PUSH1 0x20 PUSH1 0x0 KECCAK256 SWAP1 PUSH1 0x5 MUL ADD SWAP1 POP DUP4 DUP2 PUSH1 0x0 ADD SWAP1 DUP2 PUSH2 0x5F2 SWAP2 SWAP1 PUSH2 0xFC2 JUMP JUMPDEST POP DUP3 DUP2 PUSH1 0x1 ADD DUP2 SWAP1 SSTORE POP DUP2 DUP2 PUSH1 0x2 ADD PUSH1 0x0 PUSH2 0x100 EXP DUP2 SLOAD DUP2 PUSH20 0xFFFFFFFFFFFFFFFFFFFFFFFFFFFFFFFFFFFFFFFF MUL NOT AND SWAP1 DUP4 PUSH20 0xFFFFFFFFFFFFFFFFFFFFFFFFFFFFFFFFFFFFFFFF AND MUL OR SWAP1 SSTORE POP PUSH1 0x0 DUP2 PUSH1 0x2 ADD PUSH1 0x14 PUSH2 0x100 EXP DUP2 SLOAD DUP2 PUSH1 0xFF MUL NOT AND SWAP1 DUP4 ISZERO ISZERO MUL OR SWAP1 SSTORE POP PUSH1 0x0 DUP2 PUSH1 0x3 ADD DUP2 SWAP1 SSTORE POP POP POP POP POP JUMP JUMPDEST PUSH1 0x2 SLOAD DUP2 JUMP JUMPDEST PUSH1 0x2 SLOAD CALLVALUE GT PUSH2 0x680 JUMPI PUSH1 0x0 DUP1 REVERT JUMPDEST PUSH1 0x1 PUSH1 0x3 PUSH1 0x0 CALLER PUSH20 0xFFFFFFFFFFFFFFFFFFFFFFFFFFFFFFFFFFFFFFFF AND PUSH20 0xFFFFFFFFFFFFFFFFFFFFFFFFFFFFFFFFFFFFFFFF AND DUP2 MSTORE PUSH1 0x20 ADD SWAP1 DUP2 MSTORE PUSH1 0x20 ADD PUSH1 0x0 KECCAK256 PUSH1 0x0 PUSH2 0x100 EXP DUP2 SLOAD DUP2 PUSH1 0xFF MUL NOT AND SWAP1 DUP4 ISZERO ISZERO MUL OR SWAP1 SSTORE POP PUSH1 0x4 PUSH1 0x0 DUP2 SLOAD DUP1 SWAP3 SWAP2 SWAP1 PUSH2 0x6EB SWAP1 PUSH2 0x1094 JUMP JUMPDEST SWAP2 SWAP1 POP SSTORE POP JUMP JUMPDEST PUSH1 0x0 DUP1 DUP3 DUP2 SLOAD DUP2 LT PUSH2 0x707 JUMPI PUSH2 0x706 PUSH2 0xCF8 JUMP JUMPDEST JUMPDEST SWAP1 PUSH1 0x0 MSTORE PUSH1 0x20 PUSH1 0x0 KECCAK256 SWAP1 PUSH1 0x5 MUL ADD SWAP1 POP PUSH1 0x3 PUSH1 0x0 CALLER PUSH20 0xFFFFFFFFFFFFFFFFFFFFFFFFFFFFFFFFFFFFFFFF AND PUSH20 0xFFFFFFFFFFFFFFFFFFFFFFFFFFFFFFFFFFFFFFFF AND DUP2 MSTORE PUSH1 0x20 ADD SWAP1 DUP2 MSTORE PUSH1 0x20 ADD PUSH1 0x0 KECCAK256 PUSH1 0x0 SWAP1 SLOAD SWAP1 PUSH2 0x100 EXP SWAP1 DIV PUSH1 0xFF AND PUSH2 0x76D JUMPI PUSH1 0x0 DUP1 REVERT JUMPDEST DUP1 PUSH1 0x4 ADD PUSH1 0x0 CALLER PUSH20 0xFFFFFFFFFFFFFFFFFFFFFFFFFFFFFFFFFFFFFFFF AND PUSH20 0xFFFFFFFFFFFFFFFFFFFFFFFFFFFFFFFFFFFFFFFF AND DUP2 MSTORE PUSH1 0x20 ADD SWAP1 DUP2 MSTORE PUSH1 0x20 ADD PUSH1 0x0 KECCAK256 PUSH1 0x0 SWAP1 SLOAD SWAP1 PUSH2 0x100 EXP SWAP1 DIV PUSH1 0xFF AND ISZERO PUSH2 0x7C6 JUMPI PUSH1 0x0 DUP1 REVERT JUMPDEST PUSH1 0x1 DUP2 PUSH1 0x4 ADD PUSH1 0x0 CALLER PUSH20 0xFFFFFFFFFFFFFFFFFFFFFFFFFFFFFFFFFFFFFFFF AND PUSH20 0xFFFFFFFFFFFFFFFFFFFFFFFFFFFFFFFFFFFFFFFF AND DUP2 MSTORE PUSH1 0x20 ADD SWAP1 DUP2 MSTORE PUSH1 0x20 ADD PUSH1 0x0 KECCAK256 PUSH1 0x0 PUSH2 0x100 EXP DUP2 SLOAD DUP2 PUSH1 0xFF MUL NOT AND SWAP1 DUP4 ISZERO ISZERO MUL OR SWAP1 SSTORE POP DUP1 PUSH1 0x3 ADD PUSH1 0x0 DUP2 SLOAD DUP1 SWAP3 SWAP2 SWAP1 PUSH2 0x835 SWAP1 PUSH2 0x1094 JUMP JUMPDEST SWAP2 SWAP1 POP SSTORE POP POP POP JUMP JUMPDEST PUSH1 0x0 PUSH1 0x40 MLOAD SWAP1 POP SWAP1 JUMP JUMPDEST PUSH1 0x0 DUP1 REVERT JUMPDEST PUSH1 0x0 DUP1 REVERT JUMPDEST PUSH1 0x0 DUP2 SWAP1 POP SWAP2 SWAP1 POP JUMP JUMPDEST PUSH2 0x865 DUP2 PUSH2 0x852 JUMP JUMPDEST DUP2 EQ PUSH2 0x870 JUMPI PUSH1 0x0 DUP1 REVERT JUMPDEST POP JUMP JUMPDEST PUSH1 0x0 DUP2 CALLDATALOAD SWAP1 POP PUSH2 0x882 DUP2 PUSH2 0x85C JUMP JUMPDEST SWAP3 SWAP2 POP POP JUMP JUMPDEST PUSH1 0x0 PUSH1 0x20 DUP3 DUP5 SUB SLT ISZERO PUSH2 0x89E JUMPI PUSH2 0x89D PUSH2 0x848 JUMP JUMPDEST JUMPDEST PUSH1 0x0 PUSH2 0x8AC DUP5 DUP3 DUP6 ADD PUSH2 0x873 JUMP JUMPDEST SWAP2 POP POP SWAP3 SWAP2 POP POP JUMP JUMPDEST PUSH1 0x0 PUSH20 0xFFFFFFFFFFFFFFFFFFFFFFFFFFFFFFFFFFFFFFFF DUP3 AND SWAP1 POP SWAP2 SWAP1 POP JUMP JUMPDEST PUSH1 0x0 PUSH2 0x8E0 DUP3 PUSH2 0x8B5 JUMP JUMPDEST SWAP1 POP SWAP2 SWAP1 POP JUMP JUMPDEST PUSH2 0x8F0 DUP2 PUSH2 0x8D5 JUMP JUMPDEST DUP2 EQ PUSH2 0x8FB JUMPI PUSH1 0x0 DUP1 REVERT JUMPDEST POP JUMP JUMPDEST PUSH1 0x0 DUP2 CALLDATALOAD SWAP1 POP PUSH2 0x90D DUP2 PUSH2 0x8E7 JUMP JUMPDEST SWAP3 SWAP2 POP POP JUMP JUMPDEST PUSH1 0x0 PUSH1 0x20 DUP3 DUP5 SUB SLT ISZERO PUSH2 0x929 JUMPI PUSH2 0x928 PUSH2 0x848 JUMP JUMPDEST JUMPDEST PUSH1 0x0 PUSH2 0x937 DUP5 DUP3 DUP6 ADD PUSH2 0x8FE JUMP JUMPDEST SWAP2 POP POP SWAP3 SWAP2 POP POP JUMP JUMPDEST PUSH1 0x0 DUP2 ISZERO ISZERO SWAP1 POP SWAP2 SWAP1 POP JUMP JUMPDEST PUSH2 0x955 DUP2 PUSH2 0x940 JUMP JUMPDEST DUP3 MSTORE POP POP JUMP JUMPDEST PUSH1 0x0 PUSH1 0x20 DUP3 ADD SWAP1 POP PUSH2 0x970 PUSH1 0x0 DUP4 ADD DUP5 PUSH2 0x94C JUMP JUMPDEST SWAP3 SWAP2 POP POP JUMP JUMPDEST PUSH2 0x97F DUP2 PUSH2 0x852 JUMP JUMPDEST DUP3 MSTORE POP POP JUMP JUMPDEST PUSH1 0x0 PUSH1 0x20 DUP3 ADD SWAP1 POP PUSH2 0x99A PUSH1 0x0 DUP4 ADD DUP5 PUSH2 0x976 JUMP JUMPDEST SWAP3 SWAP2 POP POP JUMP JUMPDEST PUSH2 0x9A9 DUP2 PUSH2 0x8D5 JUMP JUMPDEST DUP3 MSTORE POP POP JUMP JUMPDEST PUSH1 0x0 PUSH1 0xA0 DUP3 ADD SWAP1 POP PUSH2 0x9C4 PUSH1 0x0 DUP4 ADD DUP9 PUSH2 0x976 JUMP JUMPDEST PUSH2 0x9D1 PUSH1 0x20 DUP4 ADD DUP8 PUSH2 0x976 JUMP JUMPDEST PUSH2 0x9DE PUSH1 0x40 DUP4 ADD DUP7 PUSH2 0x976 JUMP JUMPDEST PUSH2 0x9EB PUSH1 0x60 DUP4 ADD DUP6 PUSH2 0x976 JUMP JUMPDEST PUSH2 0x9F8 PUSH1 0x80 DUP4 ADD DUP5 PUSH2 0x9A0 JUMP JUMPDEST SWAP7 SWAP6 POP POP POP POP POP POP JUMP JUMPDEST PUSH1 0x0 PUSH1 0x20 DUP3 ADD SWAP1 POP PUSH2 0xA17 PUSH1 0x0 DUP4 ADD DUP5 PUSH2 0x9A0 JUMP JUMPDEST SWAP3 SWAP2 POP POP JUMP JUMPDEST PUSH1 0x0 DUP2 MLOAD SWAP1 POP SWAP2 SWAP1 POP JUMP JUMPDEST PUSH1 0x0 DUP3 DUP3 MSTORE PUSH1 0x20 DUP3 ADD SWAP1 POP SWAP3 SWAP2 POP POP JUMP JUMPDEST PUSH1 0x0 JUMPDEST DUP4 DUP2 LT ISZERO PUSH2 0xA57 JUMPI DUP1 DUP3 ADD MLOAD DUP2 DUP5 ADD MSTORE PUSH1 0x20 DUP2 ADD SWAP1 POP PUSH2 0xA3C JUMP JUMPDEST PUSH1 0x0 DUP5 DUP5 ADD MSTORE POP POP POP POP JUMP JUMPDEST PUSH1 0x0 PUSH1 0x1F NOT PUSH1 0x1F DUP4 ADD AND SWAP1 POP SWAP2 SWAP1 POP JUMP JUMPDEST PUSH1 0x0 PUSH2 0xA7F DUP3 PUSH2 0xA1D JUMP JUMPDEST PUSH2 0xA89 DUP2 DUP6 PUSH2 0xA28 JUMP JUMPDEST SWAP4 POP PUSH2 0xA99 DUP2 DUP6 PUSH1 0x20 DUP7 ADD PUSH2 0xA39 JUMP JUMPDEST PUSH2 0xAA2 DUP2 PUSH2 0xA63 JUMP JUMPDEST DUP5 ADD SWAP2 POP POP SWAP3 SWAP2 POP POP JUMP JUMPDEST PUSH1 0x0 PUSH2 0xAB8 DUP3 PUSH2 0x8B5 JUMP JUMPDEST SWAP1 POP SWAP2 SWAP1 POP JUMP JUMPDEST PUSH2 0xAC8 DUP2 PUSH2 0xAAD JUMP JUMPDEST DUP3 MSTORE POP POP JUMP JUMPDEST PUSH1 0x0 PUSH1 0xA0 DUP3 ADD SWAP1 POP DUP2 DUP2 SUB PUSH1 0x0 DUP4 ADD MSTORE PUSH2 0xAE8 DUP2 DUP9 PUSH2 0xA74 JUMP JUMPDEST SWAP1 POP PUSH2 0xAF7 PUSH1 0x20 DUP4 ADD DUP8 PUSH2 0x976 JUMP JUMPDEST PUSH2 0xB04 PUSH1 0x40 DUP4 ADD DUP7 PUSH2 0xABF JUMP JUMPDEST PUSH2 0xB11 PUSH1 0x60 DUP4 ADD DUP6 PUSH2 0x94C JUMP JUMPDEST PUSH2 0xB1E PUSH1 0x80 DUP4 ADD DUP5 PUSH2 0x976 JUMP JUMPDEST SWAP7 SWAP6 POP POP POP POP POP POP JUMP JUMPDEST PUSH1 0x0 DUP1 REVERT JUMPDEST PUSH1 0x0 DUP1 REVERT JUMPDEST PUSH32 0x4E487B7100000000000000000000000000000000000000000000000000000000 PUSH1 0x0 MSTORE PUSH1 0x41 PUSH1 0x4 MSTORE PUSH1 0x24 PUSH1 0x0 REVERT JUMPDEST PUSH2 0xB6A DUP3 PUSH2 0xA63 JUMP JUMPDEST DUP2 ADD DUP2 DUP2 LT PUSH8 0xFFFFFFFFFFFFFFFF DUP3 GT OR ISZERO PUSH2 0xB89 JUMPI PUSH2 0xB88 PUSH2 0xB32 JUMP JUMPDEST JUMPDEST DUP1 PUSH1 0x40 MSTORE POP POP POP JUMP JUMPDEST PUSH1 0x0 PUSH2 0xB9C PUSH2 0x83E JUMP JUMPDEST SWAP1 POP PUSH2 0xBA8 DUP3 DUP3 PUSH2 0xB61 JUMP JUMPDEST SWAP2 SWAP1 POP JUMP JUMPDEST PUSH1 0x0 PUSH8 0xFFFFFFFFFFFFFFFF DUP3 GT ISZERO PUSH2 0xBC8 JUMPI PUSH2 0xBC7 PUSH2 0xB32 JUMP JUMPDEST JUMPDEST PUSH2 0xBD1 DUP3 PUSH2 0xA63 JUMP JUMPDEST SWAP1 POP PUSH1 0x20 DUP2 ADD SWAP1 POP SWAP2 SWAP1 POP JUMP JUMPDEST DUP3 DUP2 DUP4 CALLDATACOPY PUSH1 0x0 DUP4 DUP4 ADD MSTORE POP POP POP JUMP JUMPDEST PUSH1 0x0 PUSH2 0xC00 PUSH2 0xBFB DUP5 PUSH2 0xBAD JUMP JUMPDEST PUSH2 0xB92 JUMP JUMPDEST SWAP1 POP DUP3 DUP2 MSTORE PUSH1 0x20 DUP2 ADD DUP5 DUP5 DUP5 ADD GT ISZERO PUSH2 0xC1C JUMPI PUSH2 0xC1B PUSH2 0xB2D JUMP JUMPDEST JUMPDEST PUSH2 0xC27 DUP5 DUP3 DUP6 PUSH2 0xBDE JUMP JUMPDEST POP SWAP4 SWAP3 POP POP POP JUMP JUMPDEST PUSH1 0x0 DUP3 PUSH1 0x1F DUP4 ADD SLT PUSH2 0xC44 JUMPI PUSH2 0xC43 PUSH2 0xB28 JUMP JUMPDEST JUMPDEST DUP2 CALLDATALOAD PUSH2 0xC54 DUP5 DUP3 PUSH1 0x20 DUP7 ADD PUSH2 0xBED JUMP JUMPDEST SWAP2 POP POP SWAP3 SWAP2 POP POP JUMP JUMPDEST PUSH2 0xC66 DUP2 PUSH2 0xAAD JUMP JUMPDEST DUP2 EQ PUSH2 0xC71 JUMPI PUSH1 0x0 DUP1 REVERT JUMPDEST POP JUMP JUMPDEST PUSH1 0x0 DUP2 CALLDATALOAD SWAP1 POP PUSH2 0xC83 DUP2 PUSH2 0xC5D JUMP JUMPDEST SWAP3 SWAP2 POP POP JUMP JUMPDEST PUSH1 0x0 DUP1 PUSH1 0x0 PUSH1 0x60 DUP5 DUP7 SUB SLT ISZERO PUSH2 0xCA2 JUMPI PUSH2 0xCA1 PUSH2 0x848 JUMP JUMPDEST JUMPDEST PUSH1 0x0 DUP5 ADD CALLDATALOAD PUSH8 0xFFFFFFFFFFFFFFFF DUP2 GT ISZERO PUSH2 0xCC0 JUMPI PUSH2 0xCBF PUSH2 0x84D JUMP JUMPDEST JUMPDEST PUSH2 0xCCC DUP7 DUP3 DUP8 ADD PUSH2 0xC2F JUMP JUMPDEST SWAP4 POP POP PUSH1 0x20 PUSH2 0xCDD DUP7 DUP3 DUP8 ADD PUSH2 0x873 JUMP JUMPDEST SWAP3 POP POP PUSH1 0x40 PUSH2 0xCEE DUP7 DUP3 DUP8 ADD PUSH2 0xC74 JUMP JUMPDEST SWAP2 POP POP SWAP3 POP SWAP3 POP SWAP3 JUMP JUMPDEST PUSH32 0x4E487B7100000000000000000000000000000000000000000000000000000000 PUSH1 0x0 MSTORE PUSH1 0x32 PUSH1 0x4 MSTORE PUSH1 0x24 PUSH1 0x0 REVERT JUMPDEST PUSH32 0x4E487B7100000000000000000000000000000000000000000000000000000000 PUSH1 0x0 MSTORE PUSH1 0x12 PUSH1 0x4 MSTORE PUSH1 0x24 PUSH1 0x0 REVERT JUMPDEST PUSH32 0x4E487B7100000000000000000000000000000000000000000000000000000000 PUSH1 0x0 MSTORE PUSH1 0x11 PUSH1 0x4 MSTORE PUSH1 0x24 PUSH1 0x0 REVERT JUMPDEST PUSH1 0x0 PUSH2 0xD90 DUP3 PUSH2 0x852 JUMP JUMPDEST SWAP2 POP PUSH2 0xD9B DUP4 PUSH2 0x852 JUMP JUMPDEST SWAP3 POP DUP3 PUSH2 0xDAB JUMPI PUSH2 0xDAA PUSH2 0xD27 JUMP JUMPDEST JUMPDEST DUP3 DUP3 DIV SWAP1 POP SWAP3 SWAP2 POP POP JUMP JUMPDEST PUSH32 0x4E487B7100000000000000000000000000000000000000000000000000000000 PUSH1 0x0 MSTORE PUSH1 0x22 PUSH1 0x4 MSTORE PUSH1 0x24 PUSH1 0x0 REVERT JUMPDEST PUSH1 0x0 PUSH1 0x2 DUP3 DIV SWAP1 POP PUSH1 0x1 DUP3 AND DUP1 PUSH2 0xDFD JUMPI PUSH1 0x7F DUP3 AND SWAP2 POP JUMPDEST PUSH1 0x20 DUP3 LT DUP2 SUB PUSH2 0xE10 JUMPI PUSH2 0xE0F PUSH2 0xDB6 JUMP JUMPDEST JUMPDEST POP SWAP2 SWAP1 POP JUMP JUMPDEST PUSH1 0x0 DUP2 SWAP1 POP DUP2 PUSH1 0x0 MSTORE PUSH1 0x20 PUSH1 0x0 KECCAK256 SWAP1 POP SWAP2 SWAP1 POP JUMP JUMPDEST PUSH1 0x0 PUSH1 0x20 PUSH1 0x1F DUP4 ADD DIV SWAP1 POP SWAP2 SWAP1 POP JUMP JUMPDEST PUSH1 0x0 DUP3 DUP3 SHL SWAP1 POP SWAP3 SWAP2 POP POP JUMP JUMPDEST PUSH1 0x0 PUSH1 0x8 DUP4 MUL PUSH2 0xE78 PUSH32 0xFFFFFFFFFFFFFFFFFFFFFFFFFFFFFFFFFFFFFFFFFFFFFFFFFFFFFFFFFFFFFFFF DUP3 PUSH2 0xE3B JUMP JUMPDEST PUSH2 0xE82 DUP7 DUP4 PUSH2 0xE3B JUMP JUMPDEST SWAP6 POP DUP1 NOT DUP5 AND SWAP4 POP DUP1 DUP7 AND DUP5 OR SWAP3 POP POP POP SWAP4 SWAP3 POP POP POP JUMP JUMPDEST PUSH1 0x0 DUP2 SWAP1 POP SWAP2 SWAP1 POP JUMP JUMPDEST PUSH1 0x0 PUSH2 0xEBF PUSH2 0xEBA PUSH2 0xEB5 DUP5 PUSH2 0x852 JUMP JUMPDEST PUSH2 0xE9A JUMP JUMPDEST PUSH2 0x852 JUMP JUMPDEST SWAP1 POP SWAP2 SWAP1 POP JUMP JUMPDEST PUSH1 0x0 DUP2 SWAP1 POP SWAP2 SWAP1 POP JUMP JUMPDEST PUSH2 0xED9 DUP4 PUSH2 0xEA4 JUMP JUMPDEST PUSH2 0xEED PUSH2 0xEE5 DUP3 PUSH2 0xEC6 JUMP JUMPDEST DUP5 DUP5 SLOAD PUSH2 0xE48 JUMP JUMPDEST DUP3 SSTORE POP POP POP POP JUMP JUMPDEST PUSH1 0x0 SWAP1 JUMP JUMPDEST PUSH2 0xF02 PUSH2 0xEF5 JUMP JUMPDEST PUSH2 0xF0D DUP2 DUP5 DUP5 PUSH2 0xED0 JUMP JUMPDEST POP POP POP JUMP JUMPDEST JUMPDEST DUP2 DUP2 LT ISZERO PUSH2 0xF31 JUMPI PUSH2 0xF26 PUSH1 0x0 DUP3 PUSH2 0xEFA JUMP JUMPDEST PUSH1 0x1 DUP2 ADD SWAP1 POP PUSH2 0xF13 JUMP JUMPDEST POP POP JUMP JUMPDEST PUSH1 0x1F DUP3 GT ISZERO PUSH2 0xF76 JUMPI PUSH2 0xF47 DUP2 PUSH2 0xE16 JUMP JUMPDEST PUSH2 0xF50 DUP5 PUSH2 0xE2B JUMP JUMPDEST DUP2 ADD PUSH1 0x20 DUP6 LT ISZERO PUSH2 0xF5F JUMPI DUP2 SWAP1 POP JUMPDEST PUSH2 0xF73 PUSH2 0xF6B DUP6 PUSH2 0xE2B JUMP JUMPDEST DUP4 ADD DUP3 PUSH2 0xF12 JUMP JUMPDEST POP POP JUMPDEST POP POP POP JUMP JUMPDEST PUSH1 0x0 DUP3 DUP3 SHR SWAP1 POP SWAP3 SWAP2 POP POP JUMP JUMPDEST PUSH1 0x0 PUSH2 0xF99 PUSH1 0x0 NOT DUP5 PUSH1 0x8 MUL PUSH2 0xF7B JUMP JUMPDEST NOT DUP1 DUP4 AND SWAP2 POP POP SWAP3 SWAP2 POP POP JUMP JUMPDEST PUSH1 0x0 PUSH2 0xFB2 DUP4 DUP4 PUSH2 0xF88 JUMP JUMPDEST SWAP2 POP DUP3 PUSH1 0x2 MUL DUP3 OR SWAP1 POP SWAP3 SWAP2 POP POP JUMP JUMPDEST PUSH2 0xFCB DUP3 PUSH2 0xA1D JUMP JUMPDEST PUSH8 0xFFFFFFFFFFFFFFFF DUP2 GT ISZERO PUSH2 0xFE4 JUMPI PUSH2 0xFE3 PUSH2 0xB32 JUMP JUMPDEST JUMPDEST PUSH2 0xFEE DUP3 SLOAD PUSH2 0xDE5 JUMP JUMPDEST PUSH2 0xFF9 DUP3 DUP3 DUP6 PUSH2 0xF35 JUMP JUMPDEST PUSH1 0x0 PUSH1 0x20 SWAP1 POP PUSH1 0x1F DUP4 GT PUSH1 0x1 DUP2 EQ PUSH2 0x102C JUMPI PUSH1 0x0 DUP5 ISZERO PUSH2 0x101A JUMPI DUP3 DUP8 ADD MLOAD SWAP1 POP JUMPDEST PUSH2 0x1024 DUP6 DUP3 PUSH2 0xFA6 JUMP JUMPDEST DUP7 SSTORE POP PUSH2 0x108C JUMP JUMPDEST PUSH1 0x1F NOT DUP5 AND PUSH2 0x103A DUP7 PUSH2 0xE16 JUMP JUMPDEST PUSH1 0x0 JUMPDEST DUP3 DUP2 LT ISZERO PUSH2 0x1062 JUMPI DUP5 DUP10 ADD MLOAD DUP3 SSTORE PUSH1 0x1 DUP3 ADD SWAP2 POP PUSH1 0x20 DUP6 ADD SWAP5 POP PUSH1 0x20 DUP2 ADD SWAP1 POP PUSH2 0x103D JUMP JUMPDEST DUP7 DUP4 LT ISZERO PUSH2 0x107F JUMPI DUP5 DUP10 ADD MLOAD PUSH2 0x107B PUSH1 0x1F DUP10 AND DUP3 PUSH2 0xF88 JUMP JUMPDEST DUP4 SSTORE POP JUMPDEST PUSH1 0x1 PUSH1 0x2 DUP9 MUL ADD DUP9 SSTORE POP POP POP JUMPDEST POP POP POP POP POP POP JUMP JUMPDEST PUSH1 0x0 PUSH2 0x109F DUP3 PUSH2 0x852 JUMP JUMPDEST SWAP2 POP PUSH32 0xFFFFFFFFFFFFFFFFFFFFFFFFFFFFFFFFFFFFFFFFFFFFFFFFFFFFFFFFFFFFFFFF DUP3 SUB PUSH2 0x10D1 JUMPI PUSH2 0x10D0 PUSH2 0xD56 JUMP JUMPDEST JUMPDEST PUSH1 0x1 DUP3 ADD SWAP1 POP SWAP2 SWAP1 POP JUMP INVALID LOG2 PUSH5 0x6970667358 0x22 SLT KECCAK256 0x2B LT LOG4 DUP4 0xE2 0xA7 AND COINBASE 0xD4 PUSH6 0xFB0C4D89C13C 0xEE MULMOD 0xE7 PUSH20 0x484E814050C3D808AB7FC4E364736F6C63430008 LT STOP CALLER LOG2 PUSH5 0x6970667358 0x22 SLT KECCAK256 0x4C SWAP8 ADDRESS 0xAD DUP11 DUP15 0x22 PUSH7 0x4D619439DEC173 0xBD RETURN PUSH9 0x1BC497BE50B4AE5410 0x5D DUP1 0xE6 0xD5 DIV PUSH5 0x736F6C6343 STOP ADDMOD LT STOP CALLER "},"gasEstimates":{"creation":{"codeDepositCost":"1168400","executionCost":"1214","totalCost":"1169614"},"external":{"createCampaign(uint256)":"infinite","deployedCampaigns(uint256)":"4934","getDeployedCampaigns()":"infinite"}},"methodIdentifiers":{"createCampaign(uint256)":"a3303a75","deployedCampaigns(uint256)":"339d50a5","getDeployedCampaigns()":"4acb9d4f"}},"storageLayout":{"storage":[{"astId":4,"contract":"Campaign.sol:CampaignFactory","label":"deployedCampaigns","offset":0,"slot":"0","type":"t_array(t_address)dyn_storage"}],"types":{"t_address":{"encoding":"inplace","label":"address","numberOfBytes":"20"},"t_array(t_address)dyn_storage":{"base":"t_address","encoding":"dynamic_array","label":"address[]","numberOfBytes":"32"}}},"userdoc":{"kind":"user","methods":{},"version":1}}